S0170000576F726B696E6720636F64652076312E73726563AA
S11300001DC024C023C022C021C020C01FC01EC0E8
S11300101DC01CC01BC01AC019C018C017C016C010
S113002015C014C013C012C011C010C00FC00EC040
S11300300DC00CC00BC00AC009C008C011241FBEEB
S1130040CFEFD2E0DEBFCDBF50D0EFC0D9CF18166E
S1130050190644F4EFECF7E03197F1F700C0000023
S11300600197C1F70895E6E8F0E080818823ECF772
S11300708091800008951092820083E38093810030
S1130080E5E8F0E0808180618083E4E8F0E080814D
S113009086608083E5E6F0E0808181608083089556
S11300A0E7E6F0E0808180628083E6E6F0E080812C
S11300B0846080838FE08ABB82E087BBEAECF0E057
S11300C0808182628083E9ECF0E080818A618083B0
S11300D08FE19EE49093C1008093C00080E496E099
S11300E09093C3008093C2000895DADFC4DFD998E7
S11300F0DA98D898C198CAE0D0E00F2EF0E4CF2E59
S1130100F6E0DF2EF02D00E810E0EE24E394F12C6D
S11301100F2EF3E08F2EF02D912C0F2EF5E06F2E85
S1130120F02D712C0F2EFAE04F2EF02D512C0F2EA6
S1130130F2ECAF2EB12CF02D22242A9433243A94DD
S113014002C0C22DD32DEFE1FEE43197F1F700C0D8
S1130150000089DFF8018081813309F45AC08233B9
S113016009F45AC0833309F45AC0843309F45AC0D9
S1130170853339F3883729F4D998DA98D898C1980F
S11301803CC0873729F4D99ADA98D89AC19835C0EF
S1130190833729F4D998DA9AD898C19A2EC081362F
S11301A029F4D99ADA98D898C19A27C0843629F4C0
S11301B0D998DA9AD89AC19820C0813761F4FBE1C2
S11301C0CF16F4E0DF061CF082E3C81AD108F5016B
S11301D0D182C08212C0853661F4F4EACF16F6E00B
S11301E0DF061CF482E3C80ED11CF501D182C08263
S11301F004C0D998DA98D898C198CF3FFFEFDF07A9
S113020009F4A1CFCE0123DFD998DA98D898C19800
S11302109ACFCE2DDF2DF6CFC82DD92DF3CFC62DF5
S1110220D72DF0CFC42DD52DEDCFF894FFCF00
S9030000FC
