S015000050726F6A6563745F305F315F312E7372656389
S11300000C94BB000C9423020C94D8000C94D800DC
S11300100C94D8000C94D8000C94D8000C94D800FC
S11300200C94D8000C94D8000C94D8000C94D800EC
S11300300C94D8000C94D8000C94D8000C94D800DC
S11300400C94A2050C94D8000C94D8000C94D800FD
S11300500C94D0010C948E010C94D8000C94D8000C
S11300600C94D8000C94D8000C94D8000C94D800AC
S11300700C94D8000C94D8000C94D80000407A104A
S1130080F35A00A0724E18090010A5D4E80000E845
S11300907648170000E40B54020000CA9A3B0000A3
S11300A000E1F505000080969800000040420F0032
S11300B00000A08601000000102700000000E803F3
S11300C0000000006400000000000A0000000000BE
S11300D00100000000002C76D888DC674F0823DF7D
S11300E0C1DFAE59E1B1B796E5E3E453C63AE65150
S11300F0997696E8E6C28426EB898C9B62ED407C77
S11301006FFCEFBC9C9F40F2BAA56FA5F490055A12
S11301102AF75C936B6CF9676DC11BFCE0E40D4737
S1130120FEF520E6B500D0ED902E0300943577055A
S11301300080841E080000204E0A000000C80C3312
S11301403333330F986E12831141EF8D2114893BA1
S1130150E65516CFFEE6DB18D1844B381BF77C1D21
S1130160901DA4BBE424203284725E228100C9F174
S113017024ECA1E53D2711241FBECFEFD8E0DEBF5C
S1130180CDBF11E0A0E0B1E0EAE5FAE102C00590DC
S11301900D92A435B107D9F722E0A4E5B1E001C07E
S11301A01D92AC37B207E1F70E9497040C942B0D13
S11301B00C940000CF93C82F8A3019F48DE00E946C
S11301C0DA009FB7907802C0992329F180915F01EA
S11301D08F3FD1F3F894E0915E0181E08E0F80931C
S11301E05E01F0E0E05AFE4FC08380915F018F5FB3
S11301F080935F0180915E018F3F11F410925E0144
S1130200E1ECF0E0808180628083992339F0789476
S113021080E090E005C081E090E002C080E090E0E2
S1130220CF910895809171028823E1F32FB720784C
S1130230F89480915F023091710290E0831B9109E0
S11302405AF4E0915F0280917102F0E0E81BF10939
S1130250E059FD4F80810AC0E0915F0280917102F4
S1130260F0E0E81BF109E05AFD4F808190917102A2
S1130270915090937102222309F0789490E00895AC
S113028010925E0110925F0110925F02109271024F
S11302901092700240935401DC01CB01880F991F26
S11302A0AA1FBB1F880F991FAA1FBB1F9C01AD016A
S11302B0220F331F441F551F60E072E18AE790E06C
S11302C00E94A907BA01A9014F5F5F4F6F4F7F4F8B
S11302D0DB01CA011AF40196A11DB11DB595A795BC
S11302E09795879501979093C5008093C400E1EC9E
S11302F0F0E088E18083808180688083E6E7F2E033
S11303008AE091E09383828391838083089590911E
S1130310710281E0911101C080E008951F920F9253
S11303200FB60F9211242F938F939F93EF93FF9304
S113033080915F01882329F180915E0120915F0102
S113034090E0821B91095AF4E0915E0180915F0173
S1130350F0E0E81BF109E15AFD4F90810AC0E091F9
S11303605E0180915F01F0E0E81BF109E05AFE4F65
S1130370908180915F01815080935F019093C600CA
S113038005C0E1ECF0E080818F7D8083FF91EF91E7
S11303909F918F912F910F900FBE0F901F901895E2
S11303A01F920F920FB60F9211242F933F934F93E6
S11303B05F936F937F938F939F93AF93BF93CF93E9
S11303C0EF93FF93C091C60080915401882349F0B4
S11303D080915F018F3F29F060E070E08C2F0E94D4
S11303E0DA0080917102803120F081E08093700204
S11303F018C0CD3009F4CAE0E0915F0281E08E0FAD
S113040080935F02F0E0E05AFD4FC0838091710257
S11304108F5F8093710280915F02803111F410929A
S11304205F02FF91EF91CF91BF91AF919F918F9117
S11304307F916F915F914F913F912F910F900FBEDC
S11304400F901F9018951F920F920FB60F921124C0
S11304508F939F93EF93FF9380915701909158014D
S1130460019781F410928100E4E8F0E080819181A9
S11304709093560180935501118210821092580175
S1130480109257018091570190915801892B59F48A
S1130490E1E8F0E080818160808381E090E09093E6
S11304A0580180935701FF91EF919F918F910F9085
S11304B00FBE0F901F9018951092B2001092B300C7
S11304C01092B4008AB1806C8AB9E0EBF0E08081CC
S11304D0836A8083E1EBF0E080818160808308950A
S11304E08CE390E00E940A080895CF92DF92EF9285
S11304F0FF926B017C010E949405C60ED71EE81E74
S1130500F91E0E9494056C157D058E059F05C8F3A0
S1130510FF90EF90DF90CF9008950F931F93CF93A8
S1130520DF9385E281B981B1857F81B98AB1826225
S11305308AB95098159A0E945C0280E00E94710565
S113054040E060E875E280E090E00E9440010E9493
S11305509405CB010E947C09789464E670E080E005
S113056090E00E94750264E670E080E090E00E94F2
S11305707502C0E006E712E00E948701882391F02B
S1130580F801808191810E94B809D82FF801628115
S1130590738190E00E94F609DA3031F0CF5FC63003
S11305A019F0EACFC63040F368EE73E080E090E0E3
S11305B00E94750220917802309179024CE050E05B
S11305C061E070E088E191E00E945C0ADF91CF91E4
S11305D01F910F9108957F928F929F92AF92BF9235
S11305E0CF92DF92EF92FF920F931F93CF93DF93FB
S11305F08C01109860E971E080E090E00E9475023F
S1130600109A62E370E080E090E00E947502109816
S11306100E949405C0E06B017C0120E2C20E23E03D
S1130620D21EE11CF11CD1E008C00E949405C6163C
S1130630D706E806F90608F4CD2F019BF6CF0E94F1
S113064094054B015C016B017C0180E2C80E83E0E0
S1130650D81EE11CF11CD1E0712C09C00E94940544
S1130660CD2FC616D706E806F90608F0C72D019B5C
S113067003C0CC2399F31BC0C11119C00E94940577
S1130680681979098A099B090E94AE062AE939E9A1
S113069049E550E40E943C0720E030E040E05FE39D
S11306A00E943C07F80164AB75AB86AB97AB12981C
S11306B060E971E080E090E00E947502129A62E3C2
S11306C070E080E090E00E94750212980E94940508
S11306D06B017C01F0E2CF0EF3E0DF1EE11CF11CA4
S11306E0D2E008C00E949405C616D706E806F906AB
S11306F008F4CD2F039BF6CF0E9494054B015C01B7
S11307006B017C0120E2C20E23E0D21EE11CF11C2D
S1130710D2E008C00E949405C616D706E806F9067A
S113072008F4CD2F039B03C0C230A1F71BC0C23015
S1130730C9F00E949405681979098A099B090E94E5
S1130740AE062AE939E949E550E40E943C0720E075
S113075030E040E05FE30E943C07F80160AF71AF16
S113076082AF93AF80E0DF91CF911F910F91FF9003
S1130770EF90DF90CF90BF90AF909F908F907F903D
S113078008952F923F924F925F926F927F928F9231
S11307909F92AF92BF92CF92DF92EF92FF920F930C
S11307A01F93CF93DF93CDB7DEB76B970FB6F89453
S11307B0DEBF0FBECDBF8C01FFB6F89481E00E946E
S11307C07105FF200CF08AC0789488C0C8010E948B
S11307D0EB02F10181931F01F80184A995A9A6A94F
S11307E0B7A9F50181939193A193B1935F01F801A6
S11307F080AD91ADA2ADB3ADF20181939193A1937C
S1130800B1932F01A814B90409F7F80114AA15AA81
S113081016AA17AA10AE11AE12AE13AEB12CF30184
S113082081913F01811123C0F701208131814281EF
S11308305381F80164A975A986A997A90E94D005D6
S1130840F80164AB75AB86AB97ABF60120813181BF
S113085042815381F80160AD71AD82AD93AD0E94C8
S1130860D005F80160AF71AF82AF93AFB394F4E0F9
S1130870EF0EF11C84E0C80ED11CE814F90479F6DB
S1130880BB2019F16B2D70E080E090E00E94B0066F
S11308906B017C019B01AC01F80164A975A986A9CF
S11308A097A90E943C06F80164AB75AB86AB97AB85
S11308B0A701960160AD71AD82AD93AD0E943C0677
S11308C0F80160AF71AF82AF93AF1FB7F89480E0C7
S11308D00E947105112394F4789410C03E01F9E14B
S11308E06F0E711CCE0101967C016E019DE0C90E54
S11308F0D11C460126015701130168CF6B960FB630
S1130900F894DEBF0FBECDBFDF91CF911F910F9141
S1130910FF90EF90DF90CF90BF90AF909F908F901B
S11309207F906F905F904F903F902F900895CF935A
S1130930DF93CDB7DEB7C654D1090FB6F894DEBF46
S11309400FBECDBF0E9470024C010E948D020F2E7B
S1130950F6E7CF2EF2E0DF2EF02D0F2EF3EBAF2EC5
S1130960B12CF02D0F2EFAEFEF2EF02D0E948701FF
S11309708823E1F3F601808191810E94B809F82E61
S11309808B3271F4409A4198F501E08289E0E5E206
S1130990F1E0DE01999601900D928A95E1F796C0F7
S11309A08F3529F4F501E082419A4098DFCF8032F7
S11309B021F418B8F501108289C08F3309F078C08A
S11309C089E0EEE2F1E0DE01999601900D928A95BC
S11309D0E1F7C4010E94C103F40164A975A986A9C1
S11309E097A98E010B5E1F4F25E043E00E94EA07A2
S11309F0F6012281338149E050E061E070E087E351
S1130A0091E00E945C0AF60162817381C8010E9430
S1130A10320AF6016281738189E090E00E94F6094E
S1130A20F40160AD71AD82AD93AD0451110925E0BF
S1130A3043E00E94EA07F6012281338149E050E055
S1130A4061E070E081E491E00E945C0AF601628159
S1130A507381C8010E94320AF6016281738189E0C0
S1130A6090E00E94F60917B5F6012281338147E030
S1130A7050E061E070E08BE491E00E945C0A612F39
S1130A8070E080E090E02AE0AE01435C5F4F0E949A
S1130A908709F60162817381CE01CD960E94320AE4
S1130AA0F601628173818AE090E00E94F6090EC02B
S1130AB08834A1F4159868EE73E080E090E00E9419
S1130AC07502159A03C0833509F450CFF60162818B
S1130AD073818F2D90E00E94F60948CF8D3399F7EA
S1130AE045CF1092590110925A0110925B01109255
S1130AF05C0110925D0116BC882339F08FE487BD38
S1130B0082E084BD81E085BD06C08CE787BD82E0BC
S1130B1084BD83E085BDEEE6F0E080818260808361
S1130B2085B3827085BB08952FB7F89460915A01FC
S1130B3070915B0180915C0190915D0122230CF422
S1130B40789408951F920F920FB60F9211248F93E9
S1130B509F93AF93BF9380915A0190915B01A091B1
S1130B605C01B0915D010196A11DB11D80935A01F4
S1130B7090935B01A0935C01B0935D014F9B04C013
S1130B8081E08093590102C010925901BF91AF9145
S1130B909F918F910F900FBE0F901F9018955058F2
S1130BA0BB27AA270E94E7050C9402070E94F406BB
S1130BB038F00E94FB0620F039F49F3F19F426F424
S1130BC00C94F1060EF4E095E7FB0C94EB06E92F88
S1130BD00E94130758F3BA1762077307840795072F
S1130BE020F079F4A6F50C9435070EF4E0950B2E5D
S1130BF0BA2FA02D0B01B90190010C01CA01A0016B
S1130C001124FF27591B99F0593F50F4503E68F1C5
S1130C101A16F040A22F232F342F4427585FF3CF06
S1130C20469537952795A795F0405395C9F77EF4D7
S1130C301F16BA0B620B730B840BBAF09150A1F020
S1130C40FF0FBB1F661F771F881FC2F70EC0BA0FA6
S1130C50621F731F841F48F4879577956795B7952E
S1130C60F7959E3F08F0B0CF9395880F08F0992729
S1130C70EE0F9795879508950E9450060C940207ED
S1130C800E94FB0658F00E94F40640F029F45F3FEE
S1130C9029F00C94EB0651110C9436070C94F106D0
S1130CA00E94130768F39923B1F3552391F3951B1D
S1130CB0550BBB27AA2762177307840738F09F5F79
S1130CC05F4F220F331F441FAA1FA9F335D00E2EE6
S1130CD03AF0E0E832D091505040E695001CCAF753
S1130CE02BD0FE2F29D0660F771F881FBB1F261716
S1130CF037074807AB07B0E809F0BB0B802DBF01ED
S1130D00FF2793585F4F3AF09E3F510578F00C94BB
S1130D10EB060C9436075F3FE4F3983ED4F38695D4
S1130D2077956795B795F7959F5FC9F7880F911DDC
S1130D309695879597F90895E1E0660F771F881FC8
S1130D40BB1F621773078407BA0720F0621B730B7B
S1130D50840BBA0BEE1F88F7E0950895E89409C058
S1130D6097FB3EF490958095709561957F4F8F4FDA
S1130D709F4F9923A9F0F92F96E9BB279395F695F0
S1130D80879577956795B795F111F8CFFAF4BB0F6E
S1130D9011F460FF1BC06F5F7F4F8F4F9F4F16C0D2
S1130DA0882311F096E911C0772321F09EE8872F5C
S1130DB0762F05C0662371F096E8862F70E060E018
S1130DC02AF09A95660F771F881FDAF7880F969591
S1130DD0879597F9089597F99F6780E870E060E038
S1130DE008959FEF80EC089500240A9416161706C0
S1130DF018060906089500240A9412161306140608
S1130E0005060895092E0394000C11F4882352F06A
S1130E10BB0F40F4BF2B11F460FF04C06F5F7F4F22
S1130E208F4F9F4F089557FD9058440F551F59F009
S1130E305F3F71F04795880F97FB991F61F09F3FC3
S1130E4079F087950895121613061406551FF2CFEC
S1130E504695F1DF08C0161617061806991FF1CF3C
S1130E6086957105610508940895E894BB27662763
S1130E707727CB0197F908950E944F070C94020736
S1130E800E94F40638F00E94FB0620F0952311F02E
S1130E900C94EB060C94F10611240C9436070E9472
S1130EA0130770F3959FC1F3950F50E0551F629F90
S1130EB0F001729FBB27F00DB11D639FAA27F00DAF
S1130EC0B11DAA1F649F6627B00DA11D661F829FD6
S1130ED02227B00DA11D621F739FB00DA11D621FBB
S1130EE0839FA00D611D221F749F3327A00D611DD8
S1130EF0231F849F600D211D822F762F6A2F1124BA
S1130F009F5750409AF0F1F088234AF0EE0FFF1FEC
S1130F10BB1F661F771F881F91505040A9F79E3F43
S1130F20510580F00C94EB060C9436075F3FE4F314
S1130F30983ED4F3869577956795B795F795E79599
S1130F409F5FC1F7FE2B880F911D9695879597F9A2
S1130F500895052E97FB1EF400940E94C00757FDC8
S1130F6007D00E94C80707FC03D04EF40C94C007B6
S1130F7050954095309521953F4F4F4F5F4F0895C1
S1130F8090958095709561957F4F8F4F9F4F0895F1
S1130F90A1E21A2EAA1BBB1BFD010DC0AA1FBB1F79
S1130FA0EE1FFF1FA217B307E407F50720F0A21BEB
S1130FB0B30BE40BF50B661F771F881F991F1A9458
S1130FC069F760957095809590959B01AC01BD0182
S1130FD0CF010895EF920F931F93CF93DF93E8010E
S1130FE047FD02C034E001C034E1042E000C550B6F
S1130FF057FF03C0519541955109E32E022F242F29
S1131000AE010E94900ACE01DF91CF911F910F9102
S1131010EF9008950F931F93CF93DF938230910540
S113102010F482E090E0E0917402F091750220E007
S113103030E0A0E0B0E0309719F1408151810281A5
S1131040138148175907C8F08417950769F4109756
S113105031F012960C93129713961C9327C00093A9
S113106074021093750222C02115310519F042173C
S1131070530718F49A01BD01EF01DF01F801DBCF3A
S113108021153105F9F0281B390B2430310580F482
S11310908A819B816115710521F0FB019383828311
S11310A004C09093750280937402FE01329644C08A
S11310B0FE01E20FF31F819391932250310939838A
S11310C028833AC02091720230917302232B41F499
S11310D02091020130910301309373022093720234
S11310E020910001309101012115310541F42DB702
S11310F03EB74091040150910501241B350BE0914A
S11311007202F0917302E217F307A0F42E1B3F0B57
S11311102817390778F0AC014E5F5F4F2417350765
S113112048F04E0F5F1F50937302409372028193F5
S1131130919302C0E0E0F0E0CF01DF91CF911F91E5
S11311400F910895CF93DF93009709F481C0FC01B8
S1131150329713821282A0917402B0917502109793
S113116081F420813181820F931F2091720230918A
S113117073022817390751F5F0937302E093720252
S113118067C0ED0120E030E0CE17DF0740F44A816C
S11311905B819E0141155105F1F0EA01F5CFD3833E
S11311A0C28340815181840F951FC817D90759F410
S11311B088819981840F951F0296918380838A8107
S11311C09B81938382832115310529F4F093750261
S11311D0E09374023DC0E901FB83EA83499159918C
S11311E0C40FD51FEC17FD0761F480819181840F32
S11311F0951F0296E90199838883828193819B8359
S11312008A83E0E0F0E012968D919C911397009709
S113121019F0FD01DC01F7CF8D919C9111979D018F
S11312202E5F3F4F820F931F209172023091730201
S11312302817390769F4309729F41092750210922F
S1131240740202C013821282B0937302A0937202DA
S1131250DF91CF9108958F929F92AF92BF92CF92D8
S1131260DF92EF92FF92CF93DF93EC016881798153
S11312708A819B81611571058105910521F464E2E0
S113128079ED8BE597E02DE133EF41E050E00E94EA
S1131290A90749015A019B01AC01A7EAB1E40E94E4
S11312A0D20C6B017C01ACEEB4EFA50194010E9459
S11312B0E00CDC01CB018C0D9D1DAE1DBF1DB7FFE5
S11312C003C00197A109B04888839983AA83BB838B
S11312D09F77DF91CF91FF90EF90DF90CF90BF90F9
S11312E0AF909F908F9008950E942B09089586E0F7
S11312F091E00E942B090895A0E0B0E080930601DC
S113130090930701A0930801B09309010895BB27A6
S11313102A3051F4992342F4BDE29095809570955A
S113132061957F4F8F4F9F4F0C949709BB27FA010C
S1131330A62F6217710581059105330B30FB66F00A
S1131340AA27660F771F881F991FAA1FA21710F0DC
S1131350A21B63953850A9F7A05DAA3308F0A95DD4
S1131360A19336F7B111B1931082CA010C94C20C47
S1131370CF93DF93EC012B8120FF33C026FF0AC0FB
S11313802F7B2B838E819F8101969F838E838A81FD
S113139090E029C022FF0FC0E881F9818081082EE6
S11313A0000C990B009719F420622B831AC0319614
S11313B0F983E8830EC0EA85FB85099597FF09C088
S11313C02B81019611F080E201C080E1822B8B8396
S11313D008C02E813F812F5F3F4F3F832E83992783
S11313E002C08FEF9FEFDF91CF9108950F931F936A
S11313F0CF93DF93FB01238121FD03C08FEF9FEF88
S11314002CC022FF16C046815781248135814217A2
S1131410530744F4A081B1819D012F5F3F4F318375
S113142020838C93268137812F5F3F4F3783268318
S113143014C08B01EC01FB010084F185E02D0995BA
S1131440892BE1F6D80116968D919C9117970196F8
S113145017969C938E931697CE01DF91CF911F918F
S11314600F910895EF92FF920F931F93CF93DF9301
S1131470DB0113962C9121FF18C08B017C01D0E075
S1131480C0E0F70181917F01882361F0D8011896AB
S1131490ED91FC911997B8010995892B91F3DFEF30
S11314A0CFEFEFCF8D2F9C2F02C08FEF9FEFCDB7E3
S11314B0DEB7E6E00C940D0DA0E0B0E0E2E6FAE061
S11314C00C94EB0C5B014A017901D90113962C9120
S11314D021FF1DC0C0E0D0E0C815D905D9F08C01AA
S11314E06C01CA0CDB1CC8010C151D0571F00F5FE3
S11314F01F4FD7011896ED91FC911997B701DC01A4
S11315008C910995892B79F305C02196E5CF80E06C
S113151090E001C0CE01CDB7DEB7ECE00C94070D2E
S1131520A9E0B0E0E6E9FAE00C94EB0C6A01122FB2
S1131530B02E2BE3201720F0FF24F394F00E02C00A
S11315402CE3F22E0F2D27E0AE014F5F5F4F0E9478
S1131550EA0BBC014981842F8970813031F0E1FCB0
S113156006C0E0FE06C090E205C09DE203C09BE217
S113157001C090E05E2D507143FF3CC0911102C048
S113158083E001C084E0811718F4212F281B01C0D7
S113159020E051110BC0F601822F30E2882319F0AC
S11315A031938150FBCFC20ED11C20E0992329F046
S11315B0D6019C93F60131966F01C6010396E2FEB3
S11315C00AC03EE4D6013C9341E411964C93119732
S11315D012963C9306C03EE6F601308341E6418311
S11315E03283FC01322F40E2332309F442C0419399
S11315F03150FACF42FF44C0911102C083E001C0D0
S113160084E0811718F4212F281B01C020E0511118
S11316100BC0F601822F30E2882319F031938150F8
S1131620FBCFC20ED11C20E0992329F0D6019C9354
S1131630F60131966F01C6010396E2FE0BC039E450
S1131640D6013C933EE411963C93119736E41296EE
S11316503C9307C039E6F60130833EE6318336E633
S11316603283FC01322F40E2332319F0419331508D
S1131670FBCFFC01E20FF11D10828EEF9FEFA6C09D
S113168021E030E0911102C020E030E01616170688
S11316901CF4FB01319602C0E1E0F0E02E0F3F1F85
S11316A0BB2021F0EB2DF0E0319602C0E0E0F0E049
S11316B02E0F3F1FE12FF0E02E173F071CF4121BE3
S11316C0212F01C020E08E2D887159F4F601822F5C
S11316D030E2882319F031938150FBCFC20ED11C24
S11316E020E0992329F0D6019C93F60131966F01ED
S11316F051110BC0F601822F90E3882319F09193C6
S11317008150FBCFC20ED11C20E00F2D060F9A8111
S1131710342F307144FF03C0913309F40150101683
S113172024F4093018F008E001C001E0AB0177FFB0
S113173002C040E050E0FB01E41BF50BA1E0B0E087
S1131740AC0FBD1FEA0FFB1F8EE2A82E4B01801ABF
S113175091080B2D10E01195019511094F3FBFEF32
S11317605B0721F4D601AC9211966D0164177507DD
S11317702CF08416950614F4818101C080E3415055
S113178051093196D60111967D014017510724F075
S1131790D6018C936701E2CF6417750739F4963349
S11317A020F4953319F4311101C081E3F6018083EB
S11317B0F701822F90E2882319F091938150FBCF97
S11317C0F701E20FF11D108280E090E02996ECE031
S11317D00C94070D283008F027E03327DA01990F1D
S11317E0311D87FD916000966105710539F4326001
S11317F02E5F3D9330E32A95E1F708959F3F30F043
S113180080387105610509F03C5F3C5F3D93913080
S113181008F08068911DDF93CF931F930F93FF927D
S1131820EF92192F987F9695E92F96959695E90F43
S1131830FF27EA52FF4F99273327EE24FF24A701FD
S1131840E70105900894079428F4360FE71EF81E64
S1131850491F511D660F771F881F991F0694A1F712
S11318600590079428F4E70EF81E491F561FC11D62
S1131870770F881F991F661F0694A1F70590079498
S113188028F4F80E491F561FC71FD11D880F991F32
S1131890661F771F0694A1F70590079420F4490F5B
S11318A0561FC71FD81F990F661F771F881F0694DE
S11318B0A9F784911095177041F0D695C79557955F
S11318C04795F794E7941A95C1F7ECE7F0E068942C
S11318D01590159135916591959105907FE27395D9
S11318E0E118F10A430B560BC90BD009C0F7E10C00
S11318F0F11E431F561FC91FD01D7EF4703311F40F
S11319008A95E6CFE894015030F0080F0AF40027D6
S1131910021708F4202F2395022F7A3328F079E355
S11319207D932A95E9F710C07D932A9589F606944C
S113193097956795379517951794E118F10A430B16
S1131940560BC90BD00998F023957E9173957A3381
S113195008F070E37C932013B8F77E9170617D9357
S113196030F0839571E37D9370E32A95E1F71124B8
S1131970EF90FF900F911F91CF91DF91992787FDF1
S113198090950895DC01FC01672F71917723E1F7AD
S1131990329704C07C916D9370836291AE17BF0738
S11319A0C8F308950E941C0DA59F900DB49F900D3F
S11319B0A49F800D911D11240895B7FF0C94D20C9F
S11319C00E94D20C821B930B08952F923F924F9248
S11319D05F926F927F928F929F92AF92BF92CF92BB
S11319E0DF92EF92FF920F931F93CF93DF93CDB7C4
S11319F0DEB7CA1BDB0B0FB6F894DEBF0FBECDBF3C
S1131A0009942A88398848885F846E847D848C840C
S1131A109B84AA84B984C884DF80EE80FD800C8115
S1131A201B81AA81B981CE0FD11D0FB6F894DEBFF8
S1131A300FBECDBFED010895A29FB001B39FC001B9
S1131A40A39F700D811D1124911DB29F700D811DE6
S10D1A501124911D0895F894FFCFAE
S1131A5A00007C02200001000000000000030000D6
S1131A6A0000DA0012010000466C6F61742072658E
S1131A7A6164790A006C696674696E670A00736541
S1131A8A6E73696E670A0053656E736F72303A201B
S1131A9A0053656E736F72313A200074696D657212
S1071AAA3A200000DA
S9030000FC
