S015000050726F6A6563745F305F315F312E7372656389
S11300000C943E000C945B000C945B000C945B001D
S11300100C945B000C945B000C945B000C945B00F0
S11300200C945B000C945B000C945B000C945B00E0
S11300300C945B000C945B000C945B000C945B00D0
S11300400C94E3070C945B000C945B000C945B0031
S11300500C94E8020C94A6020C945B000C945B00D4
S11300600C945B000C945B000C945B000C945B00A0
S11300700C945B000C945B000C945B0011241FBE79
S1130080CFEFD8E0DEBFCDBF11E0A0E0B1E0EAECF5
S1130090F7E102C005900D92AC31B107D9F722E027
S11300A0ACE1B1E001C01D92AE34B207E1F70E94A9
S11300B0B7070C94E30B0C940000AF92BF92DF924D
S11300C0EF92FF920F931F93CF93DF936623C9F1AF
S11300D0C52FD42FD62E182F80ED0E941608812FFD
S11300E00E946C0861E070E080E090E00E944003B0
S11300F081ED0E9416080D2F1C2FEE24EA94ED0CBE
S1130100F12C8FEFE81AF80AC0E0D0E0AD2CB12C46
S1130110E1E0AE1AB108CA15DB0529F40E94A7086C
S1130120F801808304C00E948D08F8018083219621
S11301300F5F1F4FCE15DF0571F7CD2D0E945C08B0
S113014001C0C0E08C2FDF91CF911F910F91FF90E0
S1130150EF90DF90BF90AF900895AB0161E00E94F3
S11301605D000895EF92FF920F931F93CF93DF9357
S11301706623D1F07A01162FC82F80ED0E9416084D
S11301808C2F0E946C08E7016FEF610F062F10E0BF
S11301900F5F1F4F0E0D1F1D89910E946C08C01721
S11301A0D107D1F70E945C08DF91CF911F910F9185
S11301B0FF90EF900895CF93DF931F92CDB7DEB7F2
S11301C06983AE014F5F5F4F61E00E94B2000F9000
S11301D0DF91CF910895EF92FF920F931F93CF93E6
S11301E0DF931F92CDB7DEB7442389F1F22E142F8B
S11301F0062FE82E1982BE016F5F7F4F0E94AD006B
S1130200882329F1402F50E0411B51094F5F5F4F74
S113021081E090E002C0880F991F1A95E2F70197D8
S1130220042E02C0880F991F0A94E2F72F2D30E0A4
S113023002C0220F331F4A95E2F7682F6095998117
S113024069238223682B69838E2D0E94DB000F9023
S1130250DF91CF911F910F91FF90EF900895FF923E
S11302600F931F93CF93DF931F92CDB7DEB7182F51
S1130270062FF42EBE016F5F7F4F0E94AD00FF205A
S113028059F021E030E0B90102C0660F771F0A95EA
S1130290E2F78981682B0BC021E030E0B90102C08C
S11302A0660F771F0A95E2F7609599816923698340
S11302B0812F0E94DB000F90DF91CF911F910F914E
S11302C0FF90089540E066E08BE60E942F010895B8
S11302D00E94100861E070E080E090E00E9440031A
S11302E064E670E080E090E00E9440030E946201B6
S11302F06AE070E080E090E00E94400321E043E087
S113030062E08BE60E94EB0023E043E062E08AE1D6
S11303100E94EB0064E089E10E94DB0023E042E0FC
S113032064E08BE10E94EB0020E042E064E08CE1B9
S11303300E94EB0008956F927F928F929F92AF92EA
S1130340BF92CF92DF92EF92FF920F931F93CF93BE
S1130350DF93EC014B015A01390142E251E06EE0B6
S11303608BE30E945D000E94D50728813981AB018F
S1130370421B530B5B834A8379836883E2E2F1E097
S11303802081818190E0922BD4018D939C932281D2
S1130390838190E0922BD5018D939C932481858158
S11303A090E0922BD3018D939C932085818590E0DE
S11303B0922BD8018D939C932285838590E0922B78
S11303C0D7018D939C932485858590E0922BF6012B
S11303D091838083DF91CF911F910F91FF90EF90D4
S11303E0DF90CF90BF90AF909F908F907F906F9051
S11303F00895CF93C82F8A3019F48DE00E94F90133
S11304002FB7207802C0222329F1909131019F3F18
S1130410D1F3F894E091300181E08E0F80933001A4
S1130420F0E0EE5CFE4FC083809131018F5F8093DA
S11304303101809130018F3F11F410923001E1ECD1
S1130440F0E0808180628083222339F0789480E018
S113045090E005C081E090E002C080E090E0CF91A0
S11304600895809143028823E1F32FB72078F8940C
S1130470809131023091430290E0831B91095AF438
S1130480E091310280914302F0E0E81BF109EE5B58
S1130490FD4F80810AC0E091310280914302F0E077
S11304A0E81BF109EE5CFD4F80819091430291506D
S11304B090934302222309F0789490E008951092D7
S11304C030011092310110923102109243021092C5
S11304D0420240931C01DC01CB01880F991FAA1F23
S11304E0BB1F880F991FAA1FBB1F9C01AD01220FC0
S11304F0331F441F551F60E072E18AE790E00E94B9
S1130500D508BA01A9014F5F5F4F6F4F7F4FDB01E1
S1130510CA011AF40196A11DB11DB595A795979529
S1130520879501979093C5008093C400E1ECF0E0B7
S113053088E18083808180688083E8E4F2E08AE057
S113054091E0938382839183808308951F920F9215
S11305500FB60F9211242F938F939F93EF93FF93D2
S113056080913101882329F180913001209131015A
S113057090E0821B91095AF4E0913001809131019D
S1130580F0E0E81BF109EF5CFD4F90810AC0E091B7
S1130590300180913101F0E0E81BF109EE5CFE4F7F
S11305A09081809131018150809331019093C600F4
S11305B005C0E1ECF0E080818F7D8083FF91EF91B5
S11305C09F918F912F910F900FBE0F901F901895B0
S11305D01F920F920FB60F9211242F933F934F93B4
S11305E05F936F937F938F939F93AF93BF93CF93B7
S11305F0EF93FF93C091C60080911C01882349F0BA
S1130600809131018F3F29F060E070E08C2F0E94CF
S1130610F90180914302803120F081E0809342020D
S113062018C0CD3009F4CAE0E091310281E08E0FA8
S113063080933102F0E0EE5CFD4FC0838091430271
S11306408F5F8093430280913102803111F41092C4
S11306503102FF91EF91CF91BF91AF919F918F9113
S11306607F916F915F914F913F912F910F900FBEAA
S11306700F901F90189584E390E00E942A09089532
S1130680CF92DF92EF92FF926B017C010E94D5071B
S1130690C60ED71EE81EF91E0E94D5076C157D05EF
S11306A08E059F05C8F3FF90EF90DF90CF900895DB
S11306B0AF92BF92CF92DF92EF92FF920F931F936C
S11306C0CF93DF93CDB7DEB7C05ED1090FB6F894F0
S11306D0DEBF0FBECDBF5C011A8219821C821B8251
S11306E01E821D8218861F821A8619861C861B8606
S11306F01E861D86188A1F861A8A198A1C8A1B8AD6
S11307001E8A1D8A188E1F8ACE010B966C01FE016B
S113071039967F018E01095F1F4F9E012B5F3F4F6A
S1130720AE014D5F5F4FBE016F5F7F4FC5010E94F9
S11307309B016AE070E080E090E00E944003CE01FB
S113074047966C01FE0175967F01045F1F4F9E0161
S11307502F5E3F4FAE01415F5F4FBE01635F7F4F2E
S1130760C5010E949B01F501228133818D859E85FF
S113077049815A81841B950B829FA001839F500D50
S1130780929F500D1124249FC001259F900D349FEA
S1130790900D11240F2EF8EEEF2EF3E0FF2EF02D26
S11307A0B7010E94C108072E000C880B990B2AE0A0
S11307B0AE01475E5F4F0E94B30A08E412E0F801FD
S11307C06281738180E290E00E94E40AF801628110
S11307D07381CE0149960E941C0BF80162817381DA
S11307E080E290E00E94E40AF501228133818F8542
S11307F098894B815C81841B950B829FA001839F08
S1130800500D929F500D1124249FC001259F900DDF
S1130810349F900D1124B7010E94C108072E000CCB
S1130820880B990B2AE0AE01475E5F4F0E94B30A22
S1130830F8016281738180E290E00E94E40AF80189
S113084062817381CE0149960E941C0BF80162817A
S1130850738180E290E00E94E40AF50122813381F1
S113086089899A894D815E81841B950B829FA001A1
S1130870839F500D929F500D1124249FC001259FEA
S1130880900D349F900D1124B7010E94C108072ECA
S1130890000C880B990B2AE0AE01475E5F4F0E9463
S11308A0B30AF8016281738180E290E00E94E40A55
S11308B0F80162817381CE0149960E941C0BF801F4
S11308C06281738180E290E00E94E40A2B893C8972
S11308D08F819885281B390BF50142815381249F10
S11308E0C001259F900D349F900D11240F2EF4E626
S11308F0EF2EF12CF02DB7010E94C108072E000C39
S1130900880B990B2AE0AE01475E5F4F0E94B30A41
S1130910F8016281738180E290E00E94E40AF801A8
S113092062817381CE0149960E941C0BF801628199
S1130930738180E290E00E94E40A2D893E898985D2
S11309409A85281B390BF50142815381249FC001EC
S1130950259F900D349F900D1124B7010E94C1086A
S1130960072E000C880B990B2AE0AE01475E5F4FFF
S11309700E94B30AF8016281738180E290E00E94D0
S1130980E40AF80162817381CE0149960E941C0B2E
S1130990F8016281738180E290E00E94E40A2F8969
S11309A0388D8B859C85281B390BF5014281538139
S11309B0249FC001259F900D349F900D1124B701F1
S11309C00E94C108072E000C880B990B2AE0AE0187
S11309D0475E5F4F0E94B30AF8016281738180E22F
S11309E090E00E94E40AF80162817381CE01499685
S11309F00E941C0BF8016281738180E290E00E94E6
S1130A00E40AF8012281338142E050E061E070E0C1
S1130A1088E191E00E94460B69817A81072E000CDF
S1130A20880B990B2AE0AE01475E5F4F0E94B30A20
S1130A30F8016281738180E290E00E94E40AF80187
S1130A4062817381CE0149960E941C0BF801628178
S1130A50738180E290E00E94E40A6B817C81072E1E
S1130A60000C880B990B2AE0AE01475E5F4F0E9491
S1130A70B30AF8016281738180E290E00E94E40A83
S1130A80F80162817381CE0149960E941C0BF80122
S1130A906281738180E290E00E94E40A6D817E812C
S1130AA0072E000C880B990B2AE0AE01475E5F4FBE
S1130AB00E94B30AF8016281738180E290E00E948F
S1130AC0E40AF80162817381CE0149960E941C0BED
S1130AD0F8016281738180E290E00E94E40A6F81F0
S1130AE07885072E000C880B990B2AE0AE01475E2F
S1130AF05F4F0E94B30AF8016281738180E290E043
S1130B000E94E40AF80162817381CE0149960E9431
S1130B101C0BF8016281738180E290E00E94E40A78
S1130B2069857A85072E000C880B990B2AE0AE01A3
S1130B30475E5F4F0E94B30AF8016281738180E2CD
S1130B4090E00E94E40AF80162817381CE01499623
S1130B500E941C0BF8016281738180E290E00E9484
S1130B60E40A6B857C85072E000C880B990B2AE020
S1130B70AE01475E5F4F0E94B30AF8016281738140
S1130B8080E290E00E94E40AF80162817381CE0160
S1130B9049960E941C0BF8016281738180E290E007
S1130BA00E94E40AF8012281338142E050E061E0CE
S1130BB070E088E191E00E94460B6D857E85072EEA
S1130BC0000C880B990B2AE0AE01475E5F4F0E9430
S1130BD0B30AF8016281738180E290E00E94E40A22
S1130BE0F80162817381CE0149960E941C0BF801C1
S1130BF06281738180E290E00E94E40A6F857889C3
S1130C00072E000C880B990B2AE0AE01475E5F4F5C
S1130C100E94B30AF8016281738180E290E00E942D
S1130C20E40AF80162817381CE0149960E941C0B8B
S1130C30F8016281738180E290E00E94E40A69898C
S1130C407A89072E000C880B990B2AE0AE01475EC7
S1130C505F4F0E94B30AF8016281738180E290E0E1
S1130C600E94E40AF80162817381CE0149960E94D0
S1130C701C0BF8016281738180E290E00E94E40A17
S1130C806B897C89072E000C880B990B2AE0AE0136
S1130C90475E5F4F0E94B30AF8016281738180E26C
S1130CA090E00E94E40AF80162817381CE014996C2
S1130CB00E941C0BF8016281738180E290E00E9423
S1130CC0E40A6D897E89072E000C880B990B2AE0B3
S1130CD0AE01475E5F4F0E94B30AF80162817381DF
S1130CE080E290E00E94E40AF80162817381CE01FF
S1130CF049960E941C0BF8016281738180E290E0A6
S1130D000E94E40A6F89788D072E000C880B990BDA
S1130D102AE0AE01475E5F4F0E94B30AF801628188
S1130D20738180E290E00E94E40AF8016281738199
S1130D30CE0149960E941C0BF8016281738180E206
S1130D4090E00E94E40AF50162817381072E000C91
S1130D50880B990B2AE0AE01475E5F4F0E94B30AED
S1130D60F80162817381CE0149960E941C0BF8013F
S1130D702281338142E050E061E070E088E191E05B
S1130D800E94460BF8012281338142E050E061E089
S1130D9070E088E191E00E94460BF80122813381E2
S1130DA042E050E061E070E088E191E00E94460B8F
S1130DB0F50162817381072E000C880B990B2AE0E0
S1130DC0AE01475E5F4F0E94B30AF80162817381EE
S1130DD0CE0149960E941C0BF8012281338142E026
S1130DE050E061E070E088E191E00E94460BF80178
S1130DF02281338142E050E061E070E088E191E0DB
S1130E000E94460B68EC70E080E090E00E94400392
S1130E10C052DF4F0FB6F894DEBF0FBECDBFDF91D7
S1130E20CF911F910F91FF90EF90DF90CF90BF90E3
S1130E30AF900895EC018FEF81B980E48AB98AB14B
S1130E408AB9519A0E94BB0740E060E875E280E0ED
S1130E5090E00E945F020E94D507CB010E94A80A7D
S1130E607894198A188A1B8A1A8A1D8A1C8A1F8AEE
S1130E701E8A198E188E1B8E1A8E1C8E1D8E1E8E27
S1130E801F8E18A219A21AA21BA21CA21DA21EA286
S1130E901FA218A619A61AA61BA61CA61DA61EA646
S1130EA01FA618AA19AA1AAA1BAA0E94D5077B83EF
S1130EB06A83198218826AEF70E080E090E00E94F1
S1130EC0400381E082B96AEF70E080E090E00E9424
S1130ED0400382E082B96AEF70E080E090E00E9413
S1130EE0400383E082B96AEF70E080E090E00E9402
S1130EF0400386E082B96AEF70E080E090E00E94EF
S1130F00400387E082B968EE73E080E090E00E94DD
S1130F1040038AE082B968EE73E080E090E00E94CA
S1130F20400388E082B968EE73E080E090E00E94BC
S1130F3040038EE082B968EE73E080E090E00E94A6
S1130F40400360914A0270914B028AE690E00E944D
S1130F50E40A0E9468016AE070E080E090E00E9488
S1130F6040038BE082B9CE010E945803FCCF0E945B
S1130F703B030E941A0710921D0110921E01109249
S1130F801F01109220011092210116BC8CE787BD2D
S1130F9082E084BD83E085BDEEE6F0E0808182607E
S1130FA0808385B3827085BB08952FB7F8946091D0
S1130FB01E0170911F018091200190912101222333
S1130FC00CF4789408951F920F920FB60F92112487
S1130FD08F939F93AF93BF9380911E0190911F01B4
S1130FE0A0912001B09121010196A11DB11D809312
S1130FF01E0190931F01A0932001B09321014F9BE8
S113100004C081E080931D0102C010921D01BF91B4
S1131010AF919F918F910F900FBE0F901F901895D5
S11310201092B90080E28093B800089594EA9093F6
S1131030BC004FEF50E060E070E0ECEBF0E090813A
S1131040992334F04150510961097109C0F704C072
S1131050452B462B472B41F19091B900987F98304E
S113106011F0903119F58093BB0084E88093BC00A3
S11310708FEF90E0A0E0B0E0ECEBF0E020812223E1
S11310802CF00197A109B109C8F704C0892B8A2B58
S11310908B2B71F09091B900987F983159F081E0D1
S11310A0903449F480E0089581E0089581E0089542
S11310B081E0089580E0089584E98093BC0080E095
S11310C090E0ECEBF0E0208124FF05C0019681154F
S11310D021E09207C1F708958093BB0084E88093D0
S11310E0BC008FEF90E0A0E0B0E0ECEBF0E02081FA
S11310F022232CF00197A109B109C8F704C0892B58
S11311008A2B8B2B41F09091B900987F81E0983223
S113111019F480E0089581E0089584EC8093BC0084
S11311208FEF90E0A0E0B0E0ECEBF0E02081222330
S11311302CF00197A109B109C8F704C0892B8A2BA7
S11311408B2B19F08091BB00089580E0089584E80A
S11311508093BC008FEF90E0A0E0B0E0ECEBF0E017
S1131160208122232CF00197A109B109C8F704C0FA
S1131170892B8A2B8B2B19F08091BB00089580E07A
S1131180089597FB072E16F4009407D077FD09D035
S11311900E94F40807FC05D03EF4909581959F4F7A
S11311A00895709561957F4F0895052E97FB1EF461
S11311B000940E94EC0857FD07D00E94080907FC20
S11311C003D04EF40C94EC0850954095309521953D
S11311D03F4F4F4F5F4F089590958095709561955F
S11311E07F4F8F4F9F4F0895AA1BBB1B51E107C030
S11311F0AA1FBB1FA617B70710F0A61BB70B881FA3
S1131200991F5A95A9F780959095BC01CD01089531
S1131210A1E21A2EAA1BBB1BFD010DC0AA1FBB1FF6
S1131220EE1FFF1FA217B307E407F50720F0A21B68
S1131230B30BE40BF50B661F771F881F991F1A94D5
S113124069F760957095809590959B01AC01BD01FF
S1131250CF010895CF93DF938230910510F482E09B
S113126090E0E0914602F091470220E030E0C0E0D7
S1131270D0E0309711F14081518148175907C0F0EF
S11312804817590761F482819381209719F09B8351
S11312908A832BC0909347028093460226C021156F
S11312A0310519F04217530718F49A01BE01DF0102
S11312B0EF010280F381E02DDCCF2115310509F126
S11312C0281B390B2430310590F412968D919C9192
S11312D013976115710521F0FB019383828304C088
S11312E09093470280934602FD01329644C0FD016B
S11312F0E20FF31F81939193225031092D933C9374
S11313003AC02091440230914502232B41F42091AC
S1131310020130910301309345022093440220914D
S11313200001309101012115310541F42DB73EB77B
S11313304091040150910501241B350BE0914402B6
S1131340F0914502E217F307A0F42E1B3F0B281778
S1131350390778F0AC014E5F5F4F2417350748F02A
S11313604E0F5F1F50934502409344028193919323
S113137002C0E0E0F0E0CF01DF91CF9108950F9338
S11313801F93CF93DF93009709F48CC0FC0132972D
S11313901382128200914602109147020115110531
S11313A081F420813181820F931F20914402309176
S11313B045022817390779F5F0934502E093440272
S11313C071C0D80140E050E0AE17BF0750F4129648
S11313D02D913C911397AD012115310509F1D901E6
S11313E0F3CF9D01DA013383228360817181860FFB
S11313F0971F8217930769F4EC0128813981260F1E
S1131400371F2E5F3F4F318320838A819B819383D3
S11314108283452B29F4F0934702E093460242C0AD
S11314201396FC93EE931297ED01499159919E0105
S1131430240F351FE217F30771F480819181840F23
S1131440951F029611969C938E9382819381139695
S11314509C938E931297E0E0F0E0D80112968D9160
S11314609C911397009719F0F8018C01F6CF8D9198
S11314709C9198012E5F3F4F820F931F209144024D
S1131480309145022817390769F4309729F41092EE
S113149047021092460202C0138212821093450240
S11314A000934402DF91CF911F910F9108958F9281
S11314B09F92AF92BF92CF92DF92EF92FF92CF931F
S11314C0DF93EC01688179818A819B8161157105C3
S11314D08105910521F464E279ED8BE597E02DE136
S11314E033EF41E050E00E94D50849015A019B01C5
S11314F0AC01A7EAB1E40E948A0B6B017C01ACEE5B
S1131500B4EFA50194010E94980BDC01CB018C0D72
S11315109D1DAE1DBF1DB7FF03C00197A109B048B3
S113152088839983AA83BB839F77DF91CF91FF90B0
S1131530EF90DF90CF90BF90AF909F908F900895E1
S11315400E94570A089586E091E00E94570A089580
S1131550A0E0B0E08093060190930701A0930801F6
S1131560B09309010895BB272A3051F4992342F41A
S1131570BDE290958095709561957F4F8F4F9F4FF9
S11315800C94C30ABB27FA01A62F621771058105C3
S11315909105330B30FB66F0AA27660F771F881F6F
S11315A0991FAA1FA21710F0A21B63953850A9F720
S11315B0A05DAA3308F0A95DA19336F7B111B193E8
S11315C01082CA010C947A0B0F931F93CF93DF936D
S11315D0FB01238121FD03C08FEF9FEF28C022FF71
S11315E016C046815781248135814217530744F43C
S11315F0A081B1819D012F5F3F4F318320838C9364
S1131600268137812F5F3F4F3783268310C0EB013C
S1131610092F182F0084F185E02D0995892BE1F617
S11316208E819F8101969F838E83812F902FDF91DE
S1131630CF911F910F910895EF92FF920F931F93F3
S1131640CF93DF93DB0113962C9121FF18C08B01FC
S11316507C01D0E0C0E0F70181917F01882361F033
S1131660D8011896ED91FC911997B8010995892B29
S113167091F3DFEFCFEFEFCF8D2F9C2F02C08FEFD1
S11316809FEFCDB7DEB7E6E00C94C50BA0E0B0E069
S1131690ECE4FBE00C94A30B5B014A017901D90152
S11316A013962C9121FF1DC0C0E0D0E0C815D905C8
S11316B0D9F08C016C01CA0CDB1CC8010C151D058A
S11316C071F00F5F1F4FD7011896ED91FC91199798
S11316D0B701DC018C910995892B79F305C021961A
S11316E0E5CF80E090E001C0CE01CDB7DEB7ECE0FD
S11316F00C94BF0BDC01FC01672F71917723E1F798
S1131700329704C07C916D9370836291AE17BF07CA
S1131710C8F308950E94D40BA59F900DB49F900D1B
S1131720A49F800D911D11240895B7FF0C948A0B7A
S11317300E948A0B821B930B08952F923F924F9223
S11317405F926F927F928F929F92AF92BF92CF924D
S1131750DF92EF92FF920F931F93CF93DF93CDB756
S1131760DEB7CA1BDB0B0FB6F894DEBF0FBECDBFCE
S113177009942A88398848885F846E847D848C849F
S11317809B84AA84B984C884DF80EE80FD800C81A8
S11317901B81AA81B981CE0FD11D0FB6F894DEBF8B
S11317A00FBECDBFED010895A29FB001B39FC0014C
S11317B0A39F700D811D1124911DB29F700D811D79
S10D17C01124911D0895F894FFCF41
S11317CA00004E0220000100000000000003000097
S10F17DA0000F901310200000D0A0000BB
S9030000FC
