:100000000C94BB000C94D8000C94D8000C94D8002D
:100010000C94D8000C94D8000C94D8000C94D80000
:100020000C94D8000C94D8000C94D8000C94D800F0
:100030000C94D8000C94D8000C94D8000C94D800E0
:100040000C94E7040C94D8000C94D8000C94D800BD
:100050000C9465060C941D060C94D8000C94D800E2
:100060000C94D8000C94D8000C94D8000C94D800B0
:100070000C94D8000C94D8000C94D80000407A104E
:10008000F35A00A0724E18090010A5D4E80000E849
:100090007648170000E40B54020000CA9A3B0000A7
:1000A00000E1F505000080969800000040420F0036
:1000B0000000A08601000000102700000000E803F7
:1000C000000000006400000000000A0000000000C2
:1000D0000100000000002C76D888DC674F0823DF81
:1000E000C1DFAE59E1B1B796E5E3E453C63AE65154
:1000F000997696E8E6C28426EB898C9B62ED407C7B
:100100006FFCEFBC9C9F40F2BAA56FA5F490055A16
:100110002AF75C936B6CF9676DC11BFCE0E40D473B
:10012000FEF520E6B500D0ED902E0300943577055E
:100130000080841E080000204E0A000000C80C3316
:100140003333330F986E12831141EF8D2114893BA5
:10015000E65516CFFEE6DB18D1844B381BF77C1D25
:10016000901DA4BBE424203284725E228100C9F178
:1001700024ECA1E53D2711241FBECFEFD8E0DEBF60
:10018000CDBF11E0A0E0B1E0EEE1F7E102C00590E3
:100190000D92A830B107D9F722E0A8E0B1E001C084
:1001A0001D92A733B207E1F70E945B030C948D0BFD
:1001B0000C940000AF92BF92CF92DF92FF920F9308
:1001C0001F93CF93DF936623C9F1C52FD42FF62E4B
:1001D000182F80ED0E941A05812F0E94700561E0A2
:1001E00070E080E090E00E94CF0481ED0E941A054B
:1001F0000D2F1C2FCC24CA94CF0CD12C8FEFC81AF2
:10020000D80AC0E0D0E0AF2CB12CE1E0AE1AB108C2
:10021000AC16BD0629F40E94AB05F801808304C02A
:100220000E949105F801808321960F5F1F4FCC1526
:10023000DD0571F7CF2D0E94600501C0C0E08C2F55
:10024000DF91CF911F910F91FF90DF90CF90BF90E2
:10025000AF900895AB0161E00E94DA000895EF923B
:10026000FF920F931F93CF93DF936623D1F07A0110
:10027000162FC82F80ED0E941A058C2F0E94700542
:10028000E7016FEF610F062F10E00F5F1F4F0E0D9C
:100290001F1D89910E947005C017D107D1F70E94D8
:1002A0006005DF91CF911F910F91FF90EF9008951E
:1002B000CF93DF931F92CDB7DEB76983AE014F5F57
:1002C0005F4F61E00E942F010F90DF91CF91089561
:1002D000EF92FF920F931F93CF93DF931F92CDB7AF
:1002E000DEB7442389F1F22E142F062FE82E19824F
:1002F000BE016F5F7F4F0E942A01882329F1402FA2
:1003000050E0411B51094F5F5F4F81E090E002C018
:10031000880F991F1A95E2F70197042E02C0880FE3
:10032000991F0A94E2F72F2D30E002C0220F331FED
:100330004A95E2F7682F6095998169238223682B9B
:1003400069838E2D0E9458010F90DF91CF911F91EC
:100350000F91FF90EF900895FF920F931F93CF930B
:10036000DF931F92CDB7DEB7182F062FF42EBE01F4
:100370006F5F7F4F0E942A01FF2051F061E070E023
:1003800002C0660F771F0A95E2F78981682B0AC0C1
:1003900061E070E002C0660F771F0A95E2F7609592
:1003A000898168236983812F0E9458010F90DF9112
:1003B000CF911F910F91FF90089540E066E08BE68A
:1003C0000E94AC0108950E94140561E070E080E095
:1003D00090E00E94CF0464E670E080E090E00E942C
:1003E000CF040E94DD016AE070E080E090E00E94AE
:1003F000CF0421E043E062E08BE60E94680123E045
:1004000043E062E08AE10E94680164E089E10E94C1
:10041000580123E042E064E08BE10E94680120E0A3
:1004200042E064E08CE10E94680108958F929F92FF
:10043000AF92BF92CF92DF92EF92FF920F931F93F2
:10044000CF93DF934C015B016A01E9014FE051E07A
:100450006EE08BE30E94DA00EFE0F1E02081818121
:1004600090E0922BD4018D939C932281838190E024
:10047000922BD5018D939C932481858190E0922BC2
:10048000D6018D939C932085818590E0922B998352
:1004900088832285838590E0922BD8018D939C934D
:1004A0002485858590E0922BF70191838083DF91ED
:1004B000CF911F910F91FF90EF90DF90CF90BF9061
:1004C000AF909F908F9008952F923F924F925F929E
:1004D0006F927F928F929F92AF92BF92CF92DF9254
:1004E000EF92FF920F931F93CF93DF93CDB7DEB7B9
:1004F0002C970FB6F894DEBF0FBECDBF3C014B0169
:100500005A016901280117011A8219821C821B8273
:100510001E821D8218861F821A8619861C861B86DB
:10052000CE010B967C018E01075F1F4F9E01295F54
:100530003F4FAE014B5F5F4FBE016D5F7F4F0A972C
:100540000E94160269817A81072E000C880B990B94
:100550000E940B0720E030E040E858E30E94970734
:10056000F30160837183828393836B817C81072E87
:10057000000C880B990B0E940B0720E030E040E84C
:1005800058E30E949707F401608371838283938309
:100590006D817E81072E000C880B990B0E940B0742
:1005A00020E030E040E858E30E949707F5016083BF
:1005B0007183828393836F817885072E000C880B6B
:1005C000990B0E940B0723E333E343E851E40E94B5
:1005D0009706F601608371838283938369857A85A8
:1005E000072E000C880B990B0E940B0723E333E3C3
:1005F00043E851E40E949706F2016083718382838D
:1006000093836B857C85072E000C880B990B0E94C9
:100610000B0723E333E343E851E40E949706F1011B
:1006200060837183828393832C960FB6F894DEBF28
:100630000FBECDBFDF91CF911F910F91FF90EF9033
:10064000DF90CF90BF90AF909F908F907F906F90F2
:100650005F904F903F902F9008951092B20081E0EC
:100660008093B30088E78093B4008AB1806C8AB924
:10067000E0EBF0E08081836A8083E1EBF0E0808151
:100680008160808308958FEF81B9569A0E942D036F
:100690000E94A70478940E94C104CB010E947508AF
:1006A00063E370E080E090E00E94C5050E9497043B
:1006B0000E94E3010895CF93DF93CDB7DEB7AE97E5
:1006C0000FB6F894DEBF0FBECDBF1A8219821C820E
:1006D0001B821E821D8218861F821A8619861C861E
:1006E0001B861D861E861F86188A198A1A8A1B8AEF
:1006F0001C8A1D8A1E8A1F8A188E198E1A8E1B8EBE
:100700001C8E1D8E1E8E1F8E18A219A21AA21BA24D
:100710001CA20E944303CE010B967C018E01075F51
:100720001F4F9E01295F3F4FAE014B5F5F4FBE01E0
:100730006D5F7F4F0A970E941602CE0181967C0161
:100740000C5E1F4F9E01275E3F4FAE014B5E5F4F19
:10075000BE016F5E7F4F44970E94640269817A8177
:10076000072E000C880B990B2AE0AE014B5D5F4F02
:100770000E94800880E20E94ED05CE0185960E94CD
:100780000E0680E20E94ED056B817C81072E000C35
:10079000880B990B2AE0AE014B5D5F4F0E948008E9
:1007A00080E20E94ED05CE0185960E940E0680E251
:1007B0000E94ED056D817E81072E000C880B990B40
:1007C0002AE0AE014B5D5F4F0E94800880E20E94EC
:1007D000ED05CE0185960E940E0680E20E94ED0591
:1007E0006F817885072E000C880B990B2AE0AE01EB
:1007F0004B5D5F4F0E94800880E20E94ED05CE01B4
:1008000085960E940E0680E20E94ED0569857A8534
:10081000072E000C880B990B2AE0AE014B5D5F4F51
:100820000E94800880E20E94ED05CE0185960E941C
:100830000E0680E20E94ED056B857C85072E000C7C
:10084000880B990B2AE0AE014B5D5F4F0E94800838
:1008500080E20E94ED05CE0185960E940E0680E2A0
:100860000E94ED0584E091E00E940E066D857E8574
:100870008F859889085F1F4F25E043E00E94040898
:10088000C8010E940E0680E20E94ED0569897A89FE
:100890008B899C8925E043E00E940408C8010E94DE
:1008A0000E0680E20E94ED056D897E898F89988D04
:1008B00025E043E00E940408C8010E940E0680E281
:1008C0000E94ED05698D7A8D8B8D9C8D25E043E02E
:1008D0000E940408C8010E940E0680E20E94ED05F5
:1008E0006D8D7E8D8F8D98A125E043E00E940408D8
:1008F000C8010E940E0680E20E94ED0569A17AA15E
:100900008BA19CA125E043E00E940408C8010E943D
:100910000E0680E20E94ED0584E091E00E940E0642
:1009200062E370E080E090E00E94CF04F4CE109289
:100930001D0110921E011092210181E0809320017F
:1009400082E080931F0183E080932201089510923A
:1009500008011092090110920A0110920B011092E5
:100960000C0116BC8CE787BD82E084BD83E085BDA9
:10097000EEE6F0E080818260808385B3827085BB83
:1009800008952FB7F8946091090170910A01809140
:100990000B0190910C0122230CF478940895CF92CE
:1009A000DF92EF92FF926B017C010E94C104C60EA0
:1009B000D71EE81EF91E0E94C1046C157D058E0528
:1009C0009F05C8F3FF90EF90DF90CF9008951F929E
:1009D0000F920FB60F9211248F939F93AF93BF93F3
:1009E0008091090190910A01A0910B01B0910C0135
:1009F0000196A11DB11D8093090190930A01A09356
:100A00000B01B0930C014F9B04C081E0809308015F
:100A100002C010920801BF91AF919F918F910F90EA
:100A20000FBE0F901F9018951092B90080E280932E
:100A3000B800089594EA9093BC004FEF50E060E056
:100A400070E0ECEBF0E09081992334F041505109D3
:100A500061097109C0F704C0452B462B472B41F1B2
:100A60009091B900987F983011F0903119F58093EA
:100A7000BB0084E88093BC008FEF90E0A0E0B0E082
:100A8000ECEBF0E0208122232CF00197A109B109C1
:100A9000C8F704C0892B8A2B8B2B71F09091B90079
:100AA000987F983159F081E0903449F480E00895BE
:100AB00081E0089581E0089581E0089580E008953F
:100AC00084E98093BC0080E090E0ECEBF0E02081D2
:100AD00024FF05C00196811521E09207C1F7089512
:100AE0008093BB0084E88093BC008FEF90E0A0E08F
:100AF000B0E0ECEBF0E0208122232CF00197A1097B
:100B0000B109C8F704C0892B8A2B8B2B41F0909137
:100B1000B900987F81E0983219F480E0089581E06F
:100B2000089584EC8093BC008FEF90E0A0E0B0E0EB
:100B3000ECEBF0E0208122232CF00197A109B10910
:100B4000C8F704C0892B8A2B8B2B19F08091BB002E
:100B5000089580E0089584E88093BC008FEF90E0D2
:100B6000A0E0B0E0ECEBF0E0208122232CF0019734
:100B7000A109B109C8F704C0892B8A2B8B2B19F066
:100B80008091BB00089580E008950F931F93109209
:100B90000D0110920E011092230110923502109255
:100BA00024011092360210923402072F182F292F99
:100BB000332727FD3A950093C5006093C400E1EC0C
:100BC000F0E08081886180838081806C808386E012
:100BD0008093C2001F910F9108959FB79078F89469
:100BE000E091230121E02E0F20932301F0E0EB5D43
:100BF000FE4F8083809135028F5F80933502809114
:100C000023018F3F11F410922301E1ECF0E0808189
:100C100080628083992309F078940895CF93DF93BD
:100C2000EC018881882331F021960E94ED0589919D
:100C30008111FBCFDF91CF9108951F920F920FB6D4
:100C40000F9211242F938F939F93EF93FF93809193
:100C50003502882359F1809123012091350290E0DB
:100C6000821B91096AF4E091230180913502F0E042
:100C7000E81BF109EC5DFD4F808180930E010CC0F3
:100C8000E091230180913502F0E0E81BF109EB5D72
:100C9000FE4F808180930E018091350281508093B8
:100CA000350280910E018093C60005C0E1ECF0E0B2
:100CB00080818F7D8083FF91EF919F918F912F9104
:100CC0000F900FBE0F901F9018951F920F920FB6A6
:100CD0000F9211248F93EF93FF938091C60080931E
:100CE0000D01E091240181E08E0F80932401F0E05A
:100CF00080910D01EC5DFD4F8083809124018F3048
:100D000010F010922401809136028F5F809336029A
:100D100080913602803118F081E080933402FF9197
:100D2000EF918F910F900FBE0F901F9018950E941A
:100D3000AB060C945D070E94560758F00E944F07BF
:100D400040F029F45F3F29F00C94460751110C94B0
:100D500091070C944C070E946E0768F39923B1F336
:100D6000552391F3951B550BBB27AA2762177307D1
:100D7000840738F09F5F5F4F220F331F441FAA1F65
:100D8000A9F335D00E2E3AF0E0E832D09150504021
:100D9000E695001CCAF72BD0FE2F29D0660F771FCF
:100DA000881FBB1F261737074807AB07B0E809F0B5
:100DB000BB0B802DBF01FF2793585F4F3AF09E3F3A
:100DC000510578F00C9446070C9491075F3FE4F3CB
:100DD000983ED4F3869577956795B795F7959F5F7D
:100DE000C9F7880F911D9695879597F90895E1E0C9
:100DF000660F771F881FBB1F621773078407BA0728
:100E000020F0621B730B840BBA0BEE1F88F7E09582
:100E10000895E89409C097FB3EF4909580957095ED
:100E200061957F4F8F4F9F4F9923A9F0F92F96E936
:100E3000BB279395F695879577956795B795F111AB
:100E4000F8CFFAF4BB0F11F460FF1BC06F5F7F4F48
:100E50008F4F9F4F16C0882311F096E911C077235A
:100E600021F09EE8872F762F05C0662371F096E863
:100E7000862F70E060E02AF09A95660F771F881F32
:100E8000DAF7880F9695879597F9089597F99F67F0
:100E900080E870E060E008959FEF80EC0895002402
:100EA0000A941616170618060906089500240A94CF
:100EB00012161306140605060895092E0394000C55
:100EC00011F4882352F0BB0F40F4BF2B11F460FFE4
:100ED00004C06F5F7F4F8F4F9F4F089557FD90580D
:100EE000440F551F59F05F3F71F04795880F97FBEE
:100EF000991F61F09F3F79F08795089512161306A8
:100F00001406551FF2CF4695F1DF08C016161706D6
:100F10001806991FF1CF869571056105089408950B
:100F2000E894BB2766277727CB0197F908950E949D
:100F3000AA070C945D070E944F0738F00E945607DD
:100F400020F0952311F00C9446070C944C071124C3
:100F50000C9491070E946E0770F3959FC1F3950F53
:100F600050E0551F629FF001729FBB27F00DB11D2D
:100F7000639FAA27F00DB11DAA1F649F6627B00DBD
:100F8000A11D661F829F2227B00DA11D621F739FA6
:100F9000B00DA11D621F839FA00D611D221F749FB4
:100FA0003327A00D611D231F849F600D211D822FFB
:100FB000762F6A2F11249F5750409AF0F1F0882322
:100FC0004AF0EE0FFF1FBB1F661F771F881F91504F
:100FD0005040A9F79E3F510580F00C9446070C94B1
:100FE00091075F3FE4F3983ED4F386957795679534
:100FF000B795F795E7959F5FC1F7FE2B880F911D79
:101000009695879597F90895EF920F931F93CF9335
:10101000DF93E80147FD02C034E001C034E1042E53
:10102000000C550B57FF03C0519541955109E32E14
:10103000022F242FAE010E94B108CE01DF91CF9183
:101040001F910F91EF9008958F929F92AF92BF9250
:10105000CF92DF92EF92FF92CF93DF93EC01688102
:1010600079818A819B81611571058105910521F442
:1010700064E279ED8BE597E02DE133EF41E050E05C
:101080000E94F30A49015A019B01AC01A7EAB1E4AD
:101090000E94120B6B017C01ACEEB4EFA501940130
:1010A0000E94200BDC01CB018C0D9D1DAE1DBF1DD0
:1010B000B7FF03C00197A109B04888839983AA8329
:1010C000BB839F77DF91CF91FF90EF90DF90CF9020
:1010D000BF90AF909F908F9008950E94240808952C
:1010E00080E091E00E9424080895A0E0B0E08093A1
:1010F000000190930101A0930201B09303010895B0
:10110000BB272A3051F4992342F4BDE29095809593
:10111000709561957F4F8F4F9F4F0C949008BB2720
:10112000FA01A62F6217710581059105330B30FB7B
:1011300066F0AA27660F771F881F991FAA1FA2179C
:1011400010F0A21B63953850A9F7A05DAA3308F0F0
:10115000A95DA19336F7B111B1931082CA010C9425
:10116000E30AA9E0B0E0E7EBF8E00C942B0B6A018E
:10117000122FB02E2BE3201720F0FF24F394F00E53
:1011800002C02CE3F22E0F2D27E0AE014F5F5F4F20
:101190000E940B0ABC014981842F8970813031F093
:1011A000E1FC06C0E0FE06C090E205C09DE203C07F
:1011B0009BE201C090E05E2D507143FF3CC0911155
:1011C00002C083E001C084E0811718F4212F281B9E
:1011D00001C020E051110BC0F601822F30E28823BC
:1011E00019F031938150FBCFC20ED11C20E099231E
:1011F00029F0D6019C93F60131966F01C601039642
:10120000E2FE0AC03EE4D6013C9341E411964C93C1
:10121000119712963C9306C03EE6F601308341E6F4
:1012200041833283FC01322F40E2332309F442C070
:1012300041933150FACF42FF44C0911102C083E084
:1012400001C084E0811718F4212F281B01C020E081
:1012500051110BC0F601822F30E2882319F031932F
:101260008150FBCFC20ED11C20E0992329F0D6017A
:101270009C93F60131966F01C6010396E2FE0BC006
:1012800039E4D6013C933EE411963C93119736E441
:1012900012963C9307C039E6F60130833EE631836F
:1012A00036E63283FC01322F40E2332319F04193BA
:1012B0003150FBCFFC01E20FF11D10828EEF9FEF4A
:1012C000A6C021E030E0911102C020E030E0161607
:1012D00017061CF4FB01319602C0E1E0F0E02E0F8E
:1012E0003F1FBB2021F0EB2DF0E0319602C0E0E083
:1012F000F0E02E0F3F1FE12FF0E02E173F071CF408
:10130000121B212F01C020E08E2D887159F4F601A7
:10131000822F30E2882319F031938150FBCFC20E27
:10132000D11C20E0992329F0D6019C93F601319637
:101330006F0151110BC0F601822F90E3882319F041
:1013400091938150FBCFC20ED11C20E00F2D060FD0
:101350009A81342F307144FF03C0913309F4015056
:10136000101624F4093018F008E001C001E0AB01C8
:1013700077FF02C040E050E0FB01E41BF50BA1E069
:10138000B0E0AC0FBD1FEA0FFB1F8EE2A82E4B0191
:10139000801A91080B2D10E01195019511094F3F0E
:1013A000BFEF5B0721F4D601AC9211966D01641773
:1013B00075072CF08416950614F4818101C080E332
:1013C000415051093196D60111967D0140175107C0
:1013D00024F0D6018C936701E2CF6417750739F4C6
:1013E000963320F4953319F4311101C081E3F601ED
:1013F0008083F701822F90E2882319F09193815026
:10140000FBCFF701E20FF11D108280E090E02996FA
:10141000ECE00C94470B283008F027E03327DA0182
:10142000990F311D87FD916000966105710539F4B2
:1014300032602E5F3D9330E32A95E1F708959F3F98
:1014400030F080387105610509F03C5F3C5F3D93E9
:10145000913008F08068911DDF93CF931F930F9315
:10146000FF92EF92192F987F9695E92F9695969572
:10147000E90FFF27EA52FF4F99273327EE24FF2475
:10148000A701E70105900894079428F4360FE71E9A
:10149000F81E491F511D660F771F881F991F06945C
:1014A000A1F70590079428F4E70EF81E491F561F70
:1014B000C11D770F881F991F661F0694A1F705901D
:1014C000079428F4F80E491F561FC71FD11D880F17
:1014D000991F661F771F0694A1F70590079420F4C3
:1014E000490F561FC71FD81F990F661F771F881FE8
:1014F0000694A9F784911095177041F0D695C79579
:1015000057954795F794E7941A95C1F7ECE7F0E003
:1015100068941590159135916591959105907FE2AC
:101520007395E118F10A430B560BC90BD009C0F7AC
:10153000E10CF11E431F561FC91FD01D7EF47033EE
:1015400011F48A95E6CFE894015030F0080F0AF4C0
:101550000027021708F4202F2395022F7A3328F052
:1015600079E37D932A95E9F710C07D932A9589F652
:10157000069497956795379517951794E118F10A92
:10158000430B560BC90BD00998F023957E917395A8
:101590007A3308F070E37C932013B8F77E91706182
:1015A0007D9330F0839571E37D9370E32A95E1F7A5
:1015B0001124EF90FF900F911F91CF91DF91992708
:1015C00087FD90950895DC01FC01672F71917723C9
:1015D000E1F7329704C07C916D9370836291AE17EE
:1015E000BF07C8F30895052E97FB1EF400940E94D0
:1015F0000A0B57FD07D00E945C0B07FC03D04EF48A
:101600000C940A0B50954095309521953F4F4F4FC4
:101610005F4F089590958095709561957F4F8F4F9E
:101620009F4F08950E947E0BA59F900DB49F900D33
:10163000A49F800D911D11240895B7FF0C94120BE7
:101640000E94120B821B930B08952F923F924F9290
:101650005F926F927F928F929F92AF92BF92CF9242
:10166000DF92EF92FF920F931F93CF93DF93CDB74B
:10167000DEB7CA1BDB0B0FB6F894DEBF0FBECDBFC3
:1016800009942A88398848885F846E847D848C8494
:101690009B84AA84B984C884DF80EE80FD800C819D
:1016A0001B81AA81B981CE0FD11D0FB6F894DEBF80
:1016B0000FBECDBFED010895A1E21A2EAA1BBB1BE0
:1016C000FD010DC0AA1FBB1FEE1FFF1FA217B3070E
:1016D000E407F50720F0A21BB30BE40BF50B661F24
:1016E000771F881F991F1A9469F7609570958095E8
:1016F00090959B01AC01BD01CF010895A29FB0015F
:10170000B39FC001A39F700D811D1124911DB29F35
:0E171000700D811D1124911D0895F894FFCFD6
:08171E00010000000D0A0000AB
:00000001FF
