:100000000C9496000C94B3000C94B3000C94B300C1
:100010000C94B3000C94B3000C94B3000C94B30094
:100020000C94B3000C94B3000C94B3000C94B30084
:100030000C94B3000C945A080C94B3000C94B300C5
:100040000C94B3000C94B3000C94B3000C94B30064
:100050000C94A3010C9461010C94B3000C94B300B4
:100060000C94B3000C94B3000C94B3000C94B30044
:100070000C94B3000C94B3000C94B300A803C40315
:10008000C403C403C403C403C403C403C403C40338
:10009000C403E603C403C802C403C4032A032F0332
:1000A00035033B0341034703C403C403C403C40330
:1000B000C403C403C403BF02C403E603C403C403EC
:1000C000C403C403C403C403C403C403C403C403F8
:1000D000C403C403C403C403C403C403C403C403E8
:1000E000C403C403C403C403C403C403C403C403D8
:1000F000C4034D03C4037B03C403C4032503A60246
:10010000C403C403B002D102C403B303AF03C403E6
:10011000C403C403C403C403C403B703C403FB027E
:10012000BA02AB02C403C403C403B50211241FBE48
:10013000CFEFD8E0DEBFCDBF11E0A0E0B1E0EAE252
:10014000FCE102C005900D92AE37B107D9F722E06D
:10015000AEE7B1E001C01D92A93AB207E1F70E94F3
:10016000FC030C94130E0C9400002FB7207802C0EF
:10017000222329F1909185019F3FD1F3F894E091DA
:10018000840191E09E0F90938401F0E0EA57FE4FC6
:100190008083809185018F5F8093850180918401A8
:1001A0008F3F11F410928401E1ECF0E080818062D5
:1001B0008083222339F0789480E090E0089581E0F4
:1001C00090E0089580E090E0089580919702882360
:1001D000E1F32FB72078F89480918502309197024F
:1001E00090E0831B91095AF4E09185028091970277
:1001F000F0E0E81BF109EA56FD4F80810AC0E0916A
:10020000850280919702F0E0E81BF109EA57FD4F63
:10021000808190919702915090939702222309F048
:10022000789490E0089510928401109285011092C4
:100230008502109297021092960240937E01DC0193
:10024000CB01880F991FAA1FBB1F880F991FAA1FD8
:10025000BB1F9C01AD01220F331F441F551F60E0DF
:1002600072E18AE790E00E949308BA01A9014F5F0A
:100270005F4F6F4F7F4FDB01CA011AF40196A11D3A
:10028000B11DB595A7959795879501979093C50052
:100290008093C400E1ECF0E088E180838081806895
:1002A0008083E3EAF2E08AE091E0938382839183A2
:1002B000808308959091970281E0911101C080E0C0
:1002C00008951F920F920FB60F9211242F938F93C0
:1002D0009F93EF93FF9380918501882329F180916B
:1002E00084012091850190E0821B91095AF4E091EC
:1002F000840180918501F0E0E81BF109EB57FD4F87
:1003000090810AC0E091840180918501F0E0E81BB2
:10031000F109EA57FE4F90818091850181508093C9
:1003200085019093C60005C0E1ECF0E080818F7DEF
:100330008083FF91EF919F918F912F910F900FBE2E
:100340000F901F9018951F920F920FB60F921124C5
:100350002F933F934F935F936F937F938F939F93CD
:10036000AF93BF93CF93EF93FF93C091C60080915B
:100370007E01882349F0809185018F3F29F060E05C
:1003800070E08C2F0E94B50080919702803120F0A0
:1003900081E08093960218C0CD3009F4CAE0E09164
:1003A000850281E08E0F80938502F0E0EA57FD4FD1
:1003B000C083809197028F5F80939702809185021E
:1003C000803111F410928502FF91EF91CF91BF918E
:1003D000AF919F918F917F916F915F914F913F91DD
:1003E0002F910F900FBE0F901F90189516BC17BC41
:1003F00084B5836884BD85B5816085BD08951092FC
:10040000B2008CE78093B3008093B400E0EBF0E09F
:100410008081836A8083E1EBF0E08081816080836A
:1004200008958AE090E00E94EE0808950F931F93CC
:10043000CF93DF938C0183E081B988E084B98FE3A7
:1004400087B98EEF8AB9509840E060E875E280E0A5
:1004500090E00E9413010E94F6010E9429080E9468
:10046000FF010E9414050E944C08CB010E94600A03
:100470007894C3EAD2E020C0888199810E946B0AF7
:100480008F36D1F42091A5023091A60246E050E0CB
:1004900061E070E088E191E00E940F0B81E0F801DB
:1004A0008783148286E990E0938382831682108288
:1004B0008BB180638BB905C00E945A018823E1F398
:1004C000DBCFDF91CF911F910F910895CF92DF92F3
:1004D000EF92FF926B017C010E944C08C60ED71E62
:1004E000E81EF91E0E944C086C157D058E059F05BF
:1004F000C8F3FF90EF90DF90CF900895CF92DF92F6
:10050000EF92FF920F931F93CF93DF93CDB7DEB798
:1005100064970FB6F894DEBF0FBECDBF7C010E947A
:100520005A01882309F459C18091A3029091A40231
:100530000E946B0A8C011127F801B097E835F1058C
:1005400008F022C1E25CFF4F0C94B2085A985B9A03
:10055000409A41983BC15A985B9A4098419A36C15B
:100560005A9A5B984098419A31C15A9A5B98409A3E
:1005700041982CC10E945705F701148227C1609150
:10058000A5027091A6028BE290E00E94A90A1EC10A
:100590006091A5027091A6028FE590E00E94A90AE1
:1005A00015C1F7018181882314F481958183F701B6
:1005B0008181282F082E000C330B3F938F938FE1FE
:1005C00091E09F938F93CE0101966C019F938F933F
:1005D0000E94430B6091A5027091A602C6010E9481
:1005E000E50A81E4F70184830F900F900F900F903C
:1005F0000F900F90EBC0F7018181181614F48195CC
:100600008183F7018181282F082E000C330B3F9343
:100610008F938CE291E09F938F93CE0101966C01B2
:100620009F938F930E94430B6091A5027091A60245
:10063000C6010E94E50A82E5F70184830F900F90BE
:100640000F900F900F900F90C1C0F701108281E0C2
:100650008087BCC0F701108281E08087B7C084E149
:10066000F701808381E08087B1C088E2F701808351
:1006700081E08087ABC08CE3F701808381E08087D5
:10068000A5C080E5F701808381E080879FC084E674
:10069000F701808381E0808799C0F7012181822F53
:1006A000022E000C990B0A9783399F4F1CF02A5099
:1006B000F7012183F7018181282F082E000C330BCD
:1006C0003F938F9388E391E09F938F93CE010196A0
:1006D0007C019F938F930E94430B6091A5027091C0
:1006E000A602C7010E94E50A0F900F900F900F908D
:1006F0000F900F906BC0F7012181822F022E000C0A
:10070000990B0A978E36910514F4265F2183F70121
:100710008181282F082E000C330B3F938F9388E3A1
:1007200091E09F938F93CE0101967C019F938F93CD
:100730000E94430B6091A5027091A602C7010E941E
:10074000E50A0F900F900F900F900F900F903EC002
:10075000F701108281E085831086148237C08AE019
:10076000F701868333C086EFF70186832FC020917F
:10077000A5023091A60248E050E061E070E087E415
:1007800091E00E940F0B22C02091A5023091A60299
:1007900048E050E061E070E080E591E00E940F0BDE
:1007A000F70181858F5F81878A3080F06091A50293
:1007B0007091A60288E490E00E94A90A68EE73E0B6
:1007C00080E090E00E946602F70111866091A50228
:1007D0007091A602C8010E94A90A64960FB6F89407
:1007E000DEBF0FBECDBFDF91CF911F910F91FF9064
:1007F000EF90DF90CF900895CF93DF93CDB7DEB722
:1008000064970FB6F894DEBF0FBECDBF0E941102F1
:100810008C010E941602089A109A33243A940F2EE3
:10082000F4E6AF2EB12CF02D0F2EF3EB8F2E912C82
:10083000F02D0F2EF4EB6F2E712CF02DCE010196C2
:100840002C010F2EF3EACF2EF2E0DF2EF02D0E94C6
:100850005A01882319F0C8010E947E02F8018085A0
:100860008823B1F08081389EC0011124B5010E9417
:100870007F08F4016083F8018081389EC001112453
:10088000B5010E947F08F3016083F801108611868C
:10089000F8018581882391F05A985B984098419897
:1008A0008481813411F0823521F40E942F05F801F2
:1008B0001482F801168215821186C9CFF80184814D
:1008C000813419F0823509F09DC00E942A057C010F
:1008D000F80184811F928F938181282F082E000CAC
:1008E000330B3F938F93FF92EF9289E591E09F93B3
:1008F0008F935F924F920E94430BF6016281738146
:10090000C2010E94E50A0FB6F894DEBF0FBECDBF4C
:10091000F80181818823DCF484818235C1F48281ED
:100920009381E816F906A8F1C8010E94D5070E9434
:100930002A057C01F801818188234CF48481823569
:1009400031F482819381E816F90670F722C0F8012C
:1009500081811816C4F484818134A9F41E141F0403
:100960000CF45AC0C8010E94D5070E942A057C01D8
:10097000F801818118163CF48481813421F41E141D
:100980001F0484F749C0F80182819381E816F906B3
:1009900050F5FF2044F10E945A018823B9F0F60176
:1009A000808191810E946B0A803281F4F801148267
:1009B0000E942F05F6012281338149E050E061E079
:1009C00070E089E691E00E940F0B0DC0C8010E9403
:1009D000D5070E942A05F8012281338182179307E7
:1009E00010F49923C4F6F6012281338149E050E0E6
:1009F00061E070E083E791E00E940F0BF801148240
:100A0000118625CFF8018681882309F420CF97B578
:100A1000890F87BD11861BCFF80182819381E8166B
:100A2000F90608F4B8CFDFCF10929902109298021D
:100A300010929A0284E080939D0285E080939C024C
:100A400082E080939B0283E080939E0287B18C6357
:100A500087B908958091980290919902089538B1CC
:100A600081E090E0BC0100909D0202C0660F771FFC
:100A70000A94E2F7AC0100909C0202C0440F551F9B
:100A80000A94E2F7462B432B9C0100909B0202C084
:100A9000220F331F0A94E2F7242B00909E0202C01B
:100AA000880F991F0A94E2F7822B88B9089528B11C
:100AB00081E090E0BC0100909D0202C0660F771FAC
:100AC0000A94E2F7AC0100909C0202C0440F551F4B
:100AD0000A94E2F7362F342BAC0100909B0202C03F
:100AE000440F551F0A94E2F7432B00909E0202C068
:100AF000880F991F0A94E2F7842B8095822388B986
:100B0000089580919802909199020196909399028C
:100B1000809398020895809198029091990201978C
:100B200090939902809398020895CF92DF92EF926A
:100B3000FF92CF93DF93C82F80919A02811142C018
:100B40000E944C086B017C01CC0ED11CE11CF11CF5
:100B5000C1E0D0E02AC098B1AE0100909C0202C072
:100B6000440F551F0A94E2F79E0100909B0202C0B9
:100B7000220F331F0A94E2F7842F822B892B88B926
:100B800028B1AE0100909D0202C0440F551F0A9487
:100B9000E2F7CE0100909E0202C0880F991F0A94CE
:100BA000E2F7842B8095822388B90E944C086C154B
:100BB0007D058E059F0578F280919A028F5F809364
:100BC0009A02CAC0813009F042C00E944C086B01F1
:100BD0007C01CC0ED11CE11CF11CC1E0D0E02AC08C
:100BE00098B1AE0100909C0202C0440F551F0A94B8
:100BF000E2F79E0100909E0202C0220F331F0A946A
:100C0000E2F7842F822B892B88B928B1AE0100909E
:100C10009D0202C0440F551F0A94E2F7CE010090D6
:100C20009B0202C0880F991F0A94E2F7842B8095DB
:100C3000822388B90E944C086C157D058E059F059E
:100C400078F280919A028F5F80939A0285C08230F9
:100C500009F042C00E944C086B017C01CC0ED11CF3
:100C6000E11CF11CC1E0D0E02AC098B1AE010090B7
:100C70009D0202C0440F551F0A94E2F79E010090A6
:100C80009E0202C0220F331F0A94E2F7842F822BA8
:100C9000892B88B928B1AE0100909C0202C0440F94
:100CA000551F0A94E2F7CE0100909B0202C0880F04
:100CB000991F0A94E2F7842B8095822388B90E94B9
:100CC0004C086C157D058E059F0578F280919A027F
:100CD0008F5F80939A0240C08330F1F50E944C08E8
:100CE0006B017C01CC0ED11CE11CF11CC1E0D0E0F9
:100CF0002AC098B1AE0100909D0202C0440F551F5A
:100D00000A94E2F79E0100909B0202C0220F331F5B
:100D10000A94E2F7842F822B892B88B928B1AE017F
:100D200000909C0202C0440F551F0A94E2F7CE01C6
:100D300000909E0202C0880F991F0A94E2F7842B4C
:100D40008095822388B90E944C086C157D058E051C
:100D50009F0578F210929A020E948105DF91CF914F
:100D6000FF90EF90DF90CF900895CF92DF92EF92B7
:100D7000FF92CF93DF93C82F80919A02811142C0D6
:100D80000E944C086B017C01CC0ED11CE11CF11CB3
:100D9000C1E0D0E02AC098B1AE0100909D0202C02F
:100DA000440F551F0A94E2F79E0100909B0202C077
:100DB000220F331F0A94E2F7842F822B892B88B9E4
:100DC00028B1AE0100909C0202C0440F551F0A9446
:100DD000E2F7CE0100909E0202C0880F991F0A948C
:100DE000E2F7842B8095822388B90E944C086C1509
:100DF0007D058E059F0578F280919A028F5F809322
:100E00009A02CAC0813009F042C00E944C086B01AE
:100E10007C01CC0ED11CE11CF11CC1E0D0E02AC049
:100E200098B1AE0100909D0202C0440F551F0A9474
:100E3000E2F79E0100909E0202C0220F331F0A9427
:100E4000E2F7842F822B892B88B928B1AE0100905C
:100E50009C0202C0440F551F0A94E2F7CE01009095
:100E60009B0202C0880F991F0A94E2F7842B809599
:100E7000822388B90E944C086C157D058E059F055C
:100E800078F280919A028F5F80939A0285C08230B7
:100E900009F042C00E944C086B017C01CC0ED11CB1
:100EA000E11CF11CC1E0D0E02AC098B1AE01009075
:100EB0009C0202C0440F551F0A94E2F79E01009065
:100EC0009E0202C0220F331F0A94E2F7842F822B66
:100ED000892B88B928B1AE0100909D0202C0440F51
:100EE000551F0A94E2F7CE0100909B0202C0880FC2
:100EF000991F0A94E2F7842B8095822388B90E9477
:100F00004C086C157D058E059F0578F280919A023C
:100F10008F5F80939A0240C08330F1F50E944C08A5
:100F20006B017C01CC0ED11CE11CF11CC1E0D0E0B6
:100F30002AC098B1AE0100909C0202C0440F551F18
:100F40000A94E2F79E0100909B0202C0220F331F19
:100F50000A94E2F7842F822B892B88B928B1AE013D
:100F600000909D0202C0440F551F0A94E2F7CE0183
:100F700000909E0202C0880F991F0A94E2F7842B0A
:100F80008095822388B90E944C086C157D058E05DA
:100F90009F0578F210929A020E948B05DF91CF9103
:100FA000FF90EF90DF90CF900895FC01818188231E
:100FB00044F18A3094F0843194F08E3194F0883288
:100FC00094F0823394F08C3394F0863494F080352E
:100FD00094F08A3594F08AE011C084E60FC08AE567
:100FE0000DC080E50BC086E409C08CE307C082E336
:100FF00005C088E203C08EE101C084E10E9495052E
:101000000895873F94F48D3E94F4833E94F4893D93
:1010100094F48F3C94F4853C94F48B3B94F4813BA2
:1010200094F4873A94F48AE011C084E60FC08AE50C
:101030000DC080E50BC086E409C08CE307C082E3E5
:1010400005C088E203C08EE101C084E10E94B506BC
:10105000089510927F0110928001109281011092E8
:1010600082011092830110928500109284008CE717
:1010700090E0909389008093880082E080938000C4
:1010800083E080938100EFE6F0E0808182608083DE
:1010900086B3827086BB08952FB7F8946091800163
:1010A00070918101809182019091830122230CF43F
:1010B000789408951F920F920FB60F9211248F9378
:1010C0009F93AF93BF938091800190918101A091F4
:1010D0008201B09183010196A11DB11D8093800111
:1010E00090938101A0938201B0938301BF91AF914E
:1010F0009F918F910F900FBE0F901F90189597FBA7
:10110000072E16F4009407D077FD09D00E94B80886
:1011100007FC05D03EF4909581959F4F08957095FA
:1011200061957F4F0895052E97FB1EF400940E9451
:10113000AA0857FD07D00E94CC0807FC03D04EF444
:101140000C94AA0850954095309521953F4F4F4FEC
:101150005F4F089590958095709561957F4F8F4F63
:101160009F4F0895EE0FFF1F0590F491E02D099415
:10117000AA1BBB1B51E107C0AA1FBB1FA617B707BD
:1011800010F0A61BB70B881F991F5A95A9F78095D9
:101190009095BC01CD010895A1E21A2EAA1BBB1B9C
:1011A000FD010DC0AA1FBB1FEE1FFF1FA217B30733
:1011B000E407F50720F0A21BB30BE40BF50B661F49
:1011C000771F881F991F1A9469F76095709580950D
:1011D00090959B01AC01BD01CF0108950F931F9322
:1011E000CF93DF938230910510F482E090E0E0919C
:1011F000A102F091A20220E030E0A0E0B0E0309740
:1012000019F1408151810281138148175907C8F0B3
:101210008417950769F4109731F012960C93129782
:1012200013961C9327C00093A1021093A20222C020
:101230002115310519F04217530718F49A01BD0121
:10124000EF01DF01F801DBCF21153105F9F0281B93
:10125000390B2430310580F48A819B816115710539
:1012600021F0FB019383828304C09093A2028093B8
:10127000A102FE01329644C0FE01E20FF31F8193EA
:10128000919322503109398328833AC020919F02DB
:101290003091A002232B41F42091020130910301EF
:1012A0003093A00220939F02209100013091010110
:1012B0002115310541F42DB73EB7409104015091FD
:1012C0000501241B350BE0919F02F091A002E2176B
:1012D000F307A0F42E1B3F0B2817390778F0AC0159
:1012E0004E5F5F4F2417350748F04E0F5F1F509336
:1012F000A00240939F028193919302C0E0E0F0E04E
:10130000CF01DF91CF911F910F910895CF93DF937C
:10131000009709F481C0FC01329713821282A091D8
:10132000A102B091A202109781F420813181820F35
:10133000931F20919F023091A0022817390751F581
:10134000F093A002E0939F0267C0ED0120E030E03F
:10135000CE17DF0740F44A815B819E01411551059C
:10136000F1F0EA01F5CFD383C28340815181840F2C
:10137000951FC817D90759F488819981840F951F43
:101380000296918380838A819B8193838283211536
:10139000310529F4F093A202E093A1023DC0E901D6
:1013A000FB83EA8349915991C40FD51FEC17FD07C0
:1013B00061F480819181840F951F0296E9019983E0
:1013C0008883828193819B838A83E0E0F0E0129698
:1013D0008D919C911397009719F0FD01DC01F7CFD7
:1013E0008D919C9111979D012E5F3F4F820F931F0E
:1013F00020919F023091A0022817390769F4309795
:1014000029F41092A2021092A10202C01382128249
:10141000B093A002A0939F02DF91CF9108958F9285
:101420009F92AF92BF92CF92DF92EF92FF92CF93B3
:10143000DF93EC01688179818A819B816115710557
:101440008105910521F464E279ED8BE597E02DE1CA
:1014500033EF41E050E00E94930849015A019B019B
:10146000AC01A7EAB1E40E94BA0D6B017C01ACEEBD
:10147000B4EFA50194010E94C80DDC01CB018C0DD5
:101480009D1DAE1DBF1DB7FF03C00197A109B04848
:1014900088839983AA83BB839F77DF91CF91FF9045
:1014A000EF90DF90CF90BF90AF909F908F90089576
:1014B0000E940F0A089586E091E00E940F0A0895A5
:1014C000A0E0B0E08093060190930701A09308018B
:1014D000B09309010895CF93DF93EC012B8120FF96
:1014E00033C026FF0AC02F7B2B838E819F810196FC
:1014F0009F838E838A8190E029C022FF0FC0E881FC
:10150000F9818081082E000C990B009719F4206254
:101510002B831AC03196F983E8830EC0EA85FB85D8
:10152000099597FF09C02B81019611F080E201C057
:1015300080E1822B8B8308C02E813F812F5F3F4F3C
:101540003F832E83992702C08FEF9FEFDF91CF91CA
:1015500008950F931F93CF93DF93FB01238121FD08
:1015600003C08FEF9FEF2CC022FF16C0468157812A
:10157000248135814217530744F4A081B1819D0134
:101580002F5F3F4F318320838C93268137812F5FDC
:101590003F4F3783268314C08B01EC01FB0100848D
:1015A000F185E02D0995892BE1F6D80116968D91EC
:1015B0009C911797019617969C938E931697CE0140
:1015C000DF91CF911F910F910895EF92FF920F93AA
:1015D0001F93CF93DF93DB0113962C9121FF18C04B
:1015E0008B017C01D0E0C0E0F70181917F0188236D
:1015F00061F0D8011896ED91FC911997B801099501
:10160000892B91F3DFEFCFEFEFCF8D2F9C2F02C00F
:101610008FEF9FEFCDB7DEB7E6E00C94F50DA0E0BD
:10162000B0E0E5E1FBE00C94D30D5B014A017901E8
:10163000D90113962C9121FF1DC0C0E0D0E0C81540
:10164000D905D9F08C016C01CA0CDB1CC8010C1542
:101650001D0571F00F5F1F4FD7011896ED91FC919A
:101660001997B701DC018C910995892B79F305C095
:101670002196E5CF80E090E001C0CE01CDB7DEB786
:10168000ECE00C94EF0DAEE0B0E0E9E4FBE00C948C
:10169000DB0D0D891E8986E08C831A8309838FEF09
:1016A0009FE79E838D83AE01475E5F4F6F89788D84
:1016B000CE0101960E94650BEF81F885E00FF11FC6
:1016C00010822E96E4E00C94F70DABE0B0E0EBE670
:1016D000FBE00C94CD0D6C017B018A01FC011782AB
:1016E0001682838181FFCCC1CE0101963C01F601B7
:1016F0009381F70193FD859193FF81917F01882369
:1017000009F4BAC1853239F493FD859193FF819133
:101710007F01853229F4B60190E00E94A90AE7CF43
:10172000912C212C312CFFE1F315D8F08B3279F07C
:1017300038F4803279F08332A1F4232D20611DC06A
:101740008D3261F0803369F4232D216016C0832D22
:101750008260382EE32DE4603E2E2AC0F32DF8601F
:101760001DC037FC2DC020ED280F2A3040F08E32EE
:10177000B9F436FC81C1232D2064322E19C036FE07
:1017800006C08AE0989E200D1124922E11C0EAE036
:101790002E9E200D1124222EF32DF0623F2E08C024
:1017A0008C3621F4832D8068382E02C0883641F4AF
:1017B000F70193FD859193FF81917F018111B3CF53
:1017C000982F9F7D9554933028F40C5F1F4F9FE313
:1017D00099830DC0833631F0833771F0833509F07A
:1017E00059C021C0F801808189830E5F1F4F882472
:1017F0008394912C530113C02801F2E04F0E511C29
:10180000F801A080B18036FE03C0692D70E002C0EF
:101810006FEF7FEFC5010E94510D4C018201F32D46
:10182000FF773F2E16C0280122E0420E511CF8011E
:10183000A080B18036FE03C0692D70E002C06FEF5A
:101840007FEFC5010E94460D4C01F32DF0683F2E3D
:10185000820133FC1BC0822D90E088169906B0F4FB
:10186000B60180E290E00E94A90A2A94F4CFF50123
:1018700037FC859137FE81915F01B60190E00E94AF
:10188000A90A21102A9421E0821A91088114910456
:1018900071F7E8C0843611F0893641F5F80137FE5A
:1018A00007C060817181828193810C5F1F4F08C0E6
:1018B00060817181072E000C880B990B0E5F1F4F02
:1018C000F32DFF763F2E97FF09C090958095709578
:1018D00061957F4F8F4F9F4FF0683F2E2AE030E099
:1018E000A3010E945C0D882E861845C0853731F40F
:1018F000232D2F7EB22E2AE030E025C0932D997F34
:10190000B92E8F36C1F018F4883579F0B5C080371C
:1019100019F0883721F0B0C0E92FE061BE2EB4FE87
:101920000DC0FB2DF460BF2E09C034FE0AC0292F64
:101930002660B22E06C028E030E005C020E130E08D
:1019400002C020E132E0F801B7FE07C0608171817A
:10195000828193810C5F1F4F06C06081718180E09E
:1019600090E00E5F1F4FA3010E945C0D882E861829
:10197000FB2DFF773F2E36FE0DC0232D2E7FA22E8E
:10198000891458F434FE0BC032FC09C0832D8E7EBE
:10199000A82E05C0B82CA32C03C0B82C01C0B92CAC
:1019A000A4FE0FC0FE01E80DF11D8081803321F4FB
:1019B0009A2D997EA92E09C0A2FE06C0B394B394B5
:1019C00004C08A2D867809F0B394A3FC11C0A0FE50
:1019D00006C0B21488F4280C922C9B180EC0B214C6
:1019E00060F4B60180E290E00E94A90AB394F7CFB8
:1019F000B21418F42B1802C0982C212CA4FE10C08D
:101A0000B60180E390E00E94A90AA2FE17C0A1FCE3
:101A100003C088E790E002C088E590E0B6010CC002
:101A20008A2D867859F0A1FE02C08BE201C080E2C7
:101A3000A7FC8DE2B60190E00E94A90A891438F44F
:101A4000B60180E390E00E94A90A9A94F7CF8A94A5
:101A5000F301E80DF11D8081B60190E00E94A90A12
:101A60008110F5CF222009F442CEB60180E290E049
:101A70000E94A90A2A94F6CFF6018681978102C0B6
:101A80008FEF9FEF2B96E2E10C94E90DFC0105909E
:101A9000615070400110D8F7809590958E0F9F1F70
:101AA0000895FC016150704001900110D8F78095B5
:101AB00090958E0F9F1F0895FA01AA27283051F1A3
:101AC000203181F1E8946F936E7F6E5F7F4F8F4F6F
:101AD0009F4FAF4FB1E03ED0B4E03CD0670F781FCE
:101AE000891F9A1FA11D680F791F8A1F911DA11DB3
:101AF0006A0F711D811D911DA11D20D009F46894EC
:101B00003F912AE0269F11243019305D3193DEF693
:101B1000CF010895462F4770405D4193B3E00FD049
:101B2000C9F7F6CF462F4F70405D4A3318F0495D34
:101B300031FD4052419302D0A9F7EACFB4E0A69517
:101B40009795879577956795BA95C9F70097610539
:101B5000710508959B01AC010A2E0694579547958F
:101B600037952795BA95C9F7620F731F841F951F84
:101B7000A01D08950E94040EA59F900DB49F900D86
:101B8000A49F800D911D11240895B7FF0C94BA0DE8
:101B90000E94BA0D821B930B08952F923F924F9291
:101BA0005F926F927F928F929F92AF92BF92CF92ED
:101BB000DF92EF92FF920F931F93CF93DF93CDB7F6
:101BC000DEB7CA1BDB0B0FB6F894DEBF0FBECDBF6E
:101BD00009942A88398848885F846E847D848C843F
:101BE0009B84AA84B984C884DF80EE80FD800C8148
:101BF0001B81AA81B981CE0FD11D0FB6F894DEBF2B
:101C00000FBECDBFED010895A29FB001B39FC001EB
:101C1000A39F700D811D1124911DB29F700D811D18
:0A1C20001124911D0895F894FFCFE0
:101C2A000000A902200001000000000000030000DB
:101C3A000000B500E500000053746172740A006187
:101C4A00637469766174652025640A00726574722A
:101C5A006163742025640A0053746570207370658B
:101C6A0065642025640A00737461727465640A00ED
:101C7A007374757069642E0A00737465703A20254E
:101C8A00642025642025630A0063616E63656C65C0
:0E1C9A00640A00656E6420737465700A0000B1
:00000001FF
