:100000000C943E000C945B000C945B000C945B0021
:100010000C945B000C945B000C945B000C945B00F4
:100020000C945B000C945B000C945B000C945B00E4
:100030000C945B000C94D6040C945B000C945B0055
:100040000C945B000C945B000C945B000C945B00C4
:100050000C9444010C9402010C945B000C945B0022
:100060000C945B000C945B000C945B000C945B00A4
:100070000C945B000C945B000C945B0011241FBE7D
:10008000CFEFD8E0DEBFCDBF11E0A0E0B1E0EAEBFA
:10009000FDE002C005900D92A831B107D9F722E02A
:1000A000A8E1B1E001C01D92A334B207E1F70E94BC
:1000B000E3010C94DB060C9400002FB7207802C0FB
:1000C000222329F190911F019F3FD1F3F894E091F1
:1000D0001E0191E09E0F90931E01F0E0E05EFE4F46
:1000E000808380911F018F5F80931F0180911E018B
:1000F0008F3F11F410921E01E1ECF0E080818062EC
:100100008083222339F0789480E090E0089581E0A4
:1001100090E0089580E090E0089580913102882376
:10012000E1F32FB72078F89480911F0230913102CB
:1001300090E0831B91095AF4E0911F0280913102F3
:10014000F0E0E81BF109E05DFD4F80810AC0E0911D
:100150001F0280913102F0E0E81BF109E05EFD4FE3
:10016000808190913102915090933102222309F0C5
:10017000789490E0089510921E0110921F01109241
:100180001F02109231021092300240931801DC01DC
:10019000CB01880F991FAA1FBB1F880F991FAA1F89
:1001A000BB1F9C01AD01220F331F441F551F60E090
:1001B00072E18AE790E00E94FB04BA01A9014F5F57
:1001C0005F4F6F4F7F4FDB01CA011AF40196A11DEB
:1001D000B11DB595A7959795879501979093C50003
:1001E0008093C400E1ECF0E088E180838081806846
:1001F0008083EDE3F2E08AE091E093838283918350
:10020000808308951F920F920FB60F9211242F939F
:100210008F939F93EF93FF9380911F01882329F180
:1002200080911E0120911F0190E0821B91095AF4D8
:10023000E0911E0180911F01F0E0E81BF109E15EF1
:10024000FD4F90810AC0E0911E0180911F01F0E0F6
:10025000E81BF109E05EFE4F908180911F01815003
:1002600080931F019093C60005C0E1ECF0E080810F
:100270008F7D8083FF91EF919F918F912F910F90B0
:100280000FBE0F901F9018951F920F920FB60F92EE
:1002900011242F933F934F935F936F937F938F938B
:1002A0009F93AF93BF93CF93EF93FF93C091C600FB
:1002B00080911801882349F080911F018F3F29F018
:1002C00060E070E08C2F0E945D00809131028031EF
:1002D00020F081E08093300218C0CD3009F4CAE0EC
:1002E000E0911F0281E08E0F80931F02F0E0E05E3C
:1002F000FD4FC083809131028F5F809331028091E6
:100300001F02803111F410921F02FF91EF91CF91E3
:10031000BF91AF919F918F917F916F915F914F911D
:100320003F912F910F900FBE0F901F90189516BC04
:1003300017BC84B5836884BD85B5816085BD08958B
:100340001092B2008CE78093B3008093B400E0EB8E
:10035000F0E08081836A8083E1EBF0E0808181605E
:10036000808308958AE090E00E943C050895EC01A6
:1003700083E081B988E084B98CEF87B98EEF8AB9C0
:10038000509840E060E875E280E090E00E94BB0099
:100390000E9497010E94A5040E94A0010E94E7010B
:1003A0000E94C804CB010E94AE0678948AE5898336
:1003B00088E893E19B838A838BB180638BB9CE01FC
:1003C0000E945104FCCF0E94B2010E94B70110921A
:1003D0003302109232021092340284E0809337028A
:1003E00085E08093360282E08093350283E080933B
:1003F000380287B18C6387B9089580913202909159
:1004000033020196909333028093320208958091D3
:10041000320290913302019790933302809332021B
:100420000895CF92DF92EF92FF92CF93DF93C82F80
:1004300080913402811142C00E94C8046B017C018A
:10044000CC0ED11CE11CF11CC1E0D0E02AC098B157
:10045000AE010090360202C0440F551F0A94E2F725
:100460009E010090350202C0220F331F0A94E2F76A
:10047000842F822B892B88B928B1AE0100903702D6
:1004800002C0440F551F0A94E2F7CE0100903802D3
:1004900002C0880F991F0A94E2F7842B809582236B
:1004A00088B90E94C8046C157D058E059F0578F2F9
:1004B000809134028F5F80933402CAC0813009F08A
:1004C00042C00E94C8046B017C01CC0ED11CE11C0F
:1004D000F11CC1E0D0E02AC098B1AE010090360214
:1004E00002C0440F551F0A94E2F79E0100903802A3
:1004F00002C0220F331F0A94E2F7842F822B892B2C
:1005000088B928B1AE010090370202C0440F551FD0
:100510000A94E2F7CE010090350202C0880F991FBD
:100520000A94E2F7842B8095822388B90E94C8043C
:100530006C157D058E059F0578F2809134028F5FE2
:100540008093340285C0823009F042C00E94C80402
:100550006B017C01CC0ED11CE11CF11CC1E0D0E090
:100560002AC098B1AE010090370202C0440F551F57
:100570000A94E2F79E010090380202C0220F331F56
:100580000A94E2F7842F822B892B88B928B1AE0117
:100590000090360202C0440F551F0A94E2F7CE01C4
:1005A0000090350202C0880F991F0A94E2F7842B4D
:1005B0008095822388B90E94C8046C157D058E053C
:1005C0009F0578F2809134028F5F8093340240C09F
:1005D0008330F1F50E94C8046B017C01CC0ED11C64
:1005E000E11CF11CC1E0D0E02AC098B1AE0100903E
:1005F000370202C0440F551F0A94E2F79E01009093
:10060000350202C0220F331F0A94E2F7842F822B97
:10061000892B88B928B1AE010090360202C0440F80
:10062000551F0A94E2F7CE010090380202C0880FED
:10063000991F0A94E2F7842B8095822388B90E943F
:10064000C8046C157D058E059F0578F21092340262
:100650000E94FD01DF91CF91FF90EF90DF90CF904E
:100660000895CF92DF92EF92FF92CF93DF93C82F3E
:1006700080913402811142C00E94C8046B017C0148
:10068000CC0ED11CE11CF11CC1E0D0E02AC098B115
:10069000AE010090370202C0440F551F0A94E2F7E2
:1006A0009E010090350202C0220F331F0A94E2F728
:1006B000842F822B892B88B928B1AE010090360295
:1006C00002C0440F551F0A94E2F7CE010090380291
:1006D00002C0880F991F0A94E2F7842B8095822329
:1006E00088B90E94C8046C157D058E059F0578F2B7
:1006F000809134028F5F80933402CAC0813009F048
:1007000042C00E94C8046B017C01CC0ED11CE11CCC
:10071000F11CC1E0D0E02AC098B1AE0100903702D0
:1007200002C0440F551F0A94E2F79E010090380260
:1007300002C0220F331F0A94E2F7842F822B892BE9
:1007400088B928B1AE010090360202C0440F551F8F
:100750000A94E2F7CE010090350202C0880F991F7B
:100760000A94E2F7842B8095822388B90E94C804FA
:100770006C157D058E059F0578F2809134028F5FA0
:100780008093340285C0823009F042C00E94C804C0
:100790006B017C01CC0ED11CE11CF11CC1E0D0E04E
:1007A0002AC098B1AE010090360202C0440F551F16
:1007B0000A94E2F79E010090380202C0220F331F14
:1007C0000A94E2F7842F822B892B88B928B1AE01D5
:1007D0000090370202C0440F551F0A94E2F7CE0181
:1007E0000090350202C0880F991F0A94E2F7842B0B
:1007F0008095822388B90E94C8046C157D058E05FA
:100800009F0578F2809134028F5F8093340240C05C
:100810008330F1F50E94C8046B017C01CC0ED11C21
:10082000E11CF11CC1E0D0E02AC098B1AE010090FB
:10083000360202C0440F551F0A94E2F79E01009051
:10084000350202C0220F331F0A94E2F7842F822B55
:10085000892B88B928B1AE010090370202C0440F3D
:10086000551F0A94E2F7CE010090380202C0880FAB
:10087000991F0A94E2F7842B8095822388B90E94FD
:10088000C8046C157D058E059F0578F21092340220
:100890000E940702DF91CF91FF90EF90DF90CF9001
:1008A0000895FC018181882344F18A3094F08431D9
:1008B00094F08E3194F0883294F0823394F08C333B
:1008C00094F0863494F0803594F08A3594F08AE080
:1008D00011C084E60FC08AE50DC080E50BC086E438
:1008E00009C08CE307C082E305C088E203C08EE143
:1008F00001C084E10E9411020895873F94F48D3E67
:1009000094F4833E94F4893D94F48F3C94F4853CB4
:1009100094F48B3B94F4813B94F4873A94F48AE00A
:1009200011C084E60FC08AE50DC080E50BC086E4E7
:1009300009C08CE307C082E305C088E203C08EE1F2
:1009400001C084E10E9431030895109219011092B0
:100950001A0110921B0110921C0110921D0110929D
:100960008500109284008CE790E09093890080933A
:10097000880082E08093800083E080938100EFE62E
:10098000F0E080818260808386B3827086BB0895A8
:100990002FB7F89460911A0170911B0180911C018E
:1009A00090911D0122230CF4789408951F920F92C8
:1009B0000FB60F9211248F939F93AF93BF938091A3
:1009C0001A0190911B01A0911C01B0911D0101968B
:1009D000A11DB11D80931A0190931B01A0931C01CE
:1009E000B0931D01BF91AF919F918F910F900FBE5A
:1009F0000F901F901895052E97FB1EF400940E94EF
:100A0000120557FD07D00E941A0507FC03D04EF4CB
:100A10000C94120550954095309521953F4F4F4FBE
:100A20005F4F089590958095709561957F4F8F4F9A
:100A30009F4F0895A1E21A2EAA1BBB1BFD010DC0FA
:100A4000AA1FBB1FEE1FFF1FA217B307E407F5077E
:100A500020F0A21BB30BE40BF50B661F771F881F5A
:100A6000991F1A9469F760957095809590959B01F0
:100A7000AC01BD01CF0108950F931F93CF93DF9376
:100A80008230910510F482E090E0E0913B02F09119
:100A90003C0220E030E0A0E0B0E0309719F1408166
:100AA00051810281138148175907C8F084179507AF
:100AB00069F4109731F012960C93129713961C93C9
:100AC00027C000933B0210933C0222C02115310540
:100AD00019F04217530718F49A01BD01EF01DF0125
:100AE000F801DBCF21153105F9F0281B390B243033
:100AF000310580F48A819B816115710521F0FB012C
:100B00009383828304C090933C0280933B02FE0156
:100B1000329644C0FE01E20FF31F8193919322505D
:100B20003109398328833AC02091390230913A0241
:100B3000232B41F4209102013091030130933A02BA
:100B400020933902209100013091010121153105D6
:100B500041F42DB73EB74091040150910501241B8B
:100B6000350BE0913902F0913A02E217F307A0F455
:100B70002E1B3F0B2817390778F0AC014E5F5F4FF3
:100B80002417350748F04E0F5F1F50933A024093E9
:100B900039028193919302C0E0E0F0E0CF01DF9150
:100BA000CF911F910F910895CF93DF93009709F490
:100BB00081C0FC01329713821282A0913B02B09156
:100BC0003C02109781F420813181820F931F209184
:100BD000390230913A022817390751F5F0933A0259
:100BE000E093390267C0ED0120E030E0CE17DF0767
:100BF00040F44A815B819E0141155105F1F0EA0103
:100C0000F5CFD383C28340815181840F951FC817CC
:100C1000D90759F488819981840F951F0296918391
:100C200080838A819B81938382832115310529F4F6
:100C3000F0933C02E0933B023DC0E901FB83EA8371
:100C400049915991C40FD51FEC17FD0761F48081BC
:100C50009181840F951F0296E9019983888382818F
:100C600093819B838A83E0E0F0E012968D919C91C2
:100C70001397009719F0FD01DC01F7CF8D919C913E
:100C800011979D012E5F3F4F820F931F20913902D4
:100C900030913A022817390769F4309729F41092F5
:100CA0003C0210923B0202C013821282B0933A02BD
:100CB000A0933902DF91CF9108958F929F92AF92C6
:100CC000BF92CF92DF92EF92FF92CF93DF93EC012E
:100CD000688179818A819B81611571058105910502
:100CE00021F464E279ED8BE597E02DE133EF41E00B
:100CF00050E00E94FB0449015A019B01AC01A7EAA4
:100D0000B1E40E94B9066B017C01ACEEB4EFA50121
:100D100094010E94C706DC01CB018C0D9D1DAE1D08
:100D2000BF1DB7FF03C00197A109B048888399830D
:100D3000AA83BB839F77DF91CF91FF90EF90DF90E5
:100D4000CF90BF90AF909F908F9008950E945D06C6
:100D5000089586E091E00E945D060895A0E0B0E06D
:100D60008093060190930701A0930801B0930901B5
:100D700008950E94CC06A59F900DB49F900DA49F4E
:100D8000800D911D11240895B7FF0C94B9060E949F
:100D9000B906821B930B0895A29FB001B39FC001B7
:100DA000A39F700D811D1124911DB29F700D811D97
:0A0DB0001124911D0895F894FFCF5F
:100DBA0000004302200001000000000000030000C0
:080DCA0000005D008D00000037
:00000001FF
