S015000050726F6A6563745F305F305F312E737265638A
S11300000C943E000C945B000C945B000C945B001D
S11300100C945B000C945B000C945B000C945B00F0
S11300200C945B000C945B000C945B000C945B00E0
S11300300C945B000C945B000C945B000C945B00D0
S11300400C94BC000C945B000C945B000C945B005F
S11300500C9417010C94F9000C945B000C945B0055
S11300600C945B000C945B000C945B000C945B00A0
S11300700C945B000C945B000C945B0011241FBE79
S1130080CFEFD8E0DEBFCDBF21E0A4E0B1E001C0F6
S11300901D92A331B207E1F711E0A0E0B1E0E8ED71
S11300A0F3E002C005900D92A430B107D9F70E9485
S11300B076000C94EA010C940000CFEFC4B9C1B9E6
S11300C017B80E94780078940E94AE00CB010E9479
S11300D07C018AB183608AB9599A5198C1B98FEF6A
S11300E0499B02C082B9FCCF12B8FACF0E945D00CE
S11300F01092040184E690E0A0E0B0E0809309014E
S113010090930A01A0930B01B0930C0180910D010F
S113011090910E01A0910F01B091100180930501FF
S113012090930601A0930701B093080110920D016A
S113013010920E0110920F011092100116BC8CE760
S113014087BD82E084BD83E085BDEEE6F0E080817A
S11301508260808385B3827085BB08952FB7F8943D
S113016060910D0170910E0180910F019091100129
S113017022230CF4789408951F920F920FB60F92D5
S113018011248F939F93AF93BF9380910D0190910E
S11301900E01A0910F01B09110010196A11DB11D96
S11301A080930D0190930E01A0930F01B093100161
S11301B0309B04C081E08093040102C010920401CA
S11301C080910D0190910E01A0910F01B091100149
S11301D08093050190930601A0930701B093080151
S11301E0BF91AF919F918F910F900FBE0F901F9071
S11301F018951F920F920FB60F9211248F93EF93BD
S1130200FF9380911201882329F080911201809339
S1130210C60005C0E1ECF0E080818F7D8083FF9112
S1130220EF918F910F900FBE0F901F9018951F9212
S11302300F920FB60F9211248F938091C600809372
S1130240110180911101809582B98F910F900FBE99
S11302500F901F9018958F929F92AF92BF92CF925A
S1130260DF92EF92FF92CF93DF93EC016881798163
S11302708A819B81611571058105910521F464E2F0
S113028079ED8BE597E02DE133EF41E050E00E94FA
S1130290870149015A019B01AC01A7EAB1E40E941C
S11302A0A6016B017C01ACEEB4EFA50194010E94A0
S11302B0B401DC01CB018C0D9D1DAE1DBF1DB7FF2C
S11302C003C00197A109B04888839983AA83BB839B
S11302D09F77DF91CF91FF90EF90DF90CF90BF9009
S11302E0AF909F908F9008950E942B01089580E015
S11302F091E00E942B010895A0E0B0E080930001FA
S113030090930101A0930201B09303010895052E77
S113031097FB1EF400940E949E0157FD07D00E9493
S1130320B90107FC03D04EF40C949E0150954095FE
S1130330309521953F4F4F4F5F4F0895909580958D
S1130340709561957F4F8F4F9F4F08950E94DB01F9
S1130350A59F900DB49F900DA49F800D911D112415
S11303600895B7FF0C94A6010E94A601821B930B6B
S11303700895A1E21A2EAA1BBB1BFD010DC0AA1FE2
S1130380BB1FEE1FFF1FA217B307E407F50720F0FA
S1130390A21BB30BE40BF50B661F771F881F991F75
S11303A01A9469F760957095809590959B01AC01BE
S11303B0BD01CF010895A29FB001B39FC001A39FC7
S11303C0700D811D1124911DB29F700D811D11248A
S10B03D0911D0895F894FFCF7C
S10703D8010000001C
S9030000FC
