:100000000C943E000C945B000C945B000C945B0021
:100010000C945B000C945B000C945B000C945B00F4
:100020000C945B000C945B000C945B000C945B00E4
:100030000C945B000C945B000C945B000C945B00D4
:100040000C94C6000C945B000C945B000C945B0059
:100050000C9403010C945B000C945B000C945B000B
:100060000C945B000C945B000C945B000C945B00A4
:100070000C945B000C945B000C945B0011241FBE7D
:10008000CFEFD8E0DEBFCDBF21E0A4E0B1E001C0FA
:100090001D92A231B207E1F711E0A0E0B1E0ECEC73
:1000A000F3E002C005900D92A430B107D9F70E9489
:1000B00075000C94E4010C9400000E947A0078947E
:1000C0000E94B000CB010E94760184E090E00E9483
:1000D0001301D1E0C2E00E94BE00811103C0C5B986
:1000E00012B8F9CF15B8D2B9F6CF8FEF84B981B96C
:1000F0000E945D001092040184E690E0A0E0B0E070
:100100008093090190930A01A0930B01B0930C0115
:1001100080910D0190910E01A0910F01B0911001FD
:100120008093050190930601A0930701B093080105
:1001300010920D0110920E0110920F0110921001F9
:1001400016BC8CE787BD82E084BD83E085BDEEE60A
:10015000F0E080818260808385B3827085BB0895E2
:100160002FB7F89460910D0170910E0180910F01ED
:100170009091100122230CF4789408959FB7F8947D
:100180008091040199230CF4789408951F920F92A2
:100190000FB60F9211248F939F93AF93BF938091CB
:1001A0000D0190910E01A0910F01B09110010196E7
:1001B000A11DB11D80930D0190930E01A0930F011D
:1001C000B0931001309B04C081E08093040102C011
:1001D0001092040180910D0190910E01A0910F01E8
:1001E000B09110018093050190930601A09307013F
:1001F000B0930801BF91AF919F918F910F900FBE67
:100200000F901F9018951F920F920FB60F92112406
:100210008F938091C600809311018F910F900FBE34
:100220000F901F901895109211019093C500809324
:10023000C400E1ECF0E0808180618083808180688F
:10024000808386E08093C20008958F929F92AF9240
:10025000BF92CF92DF92EF92FF92CF93DF93EC01A8
:10026000688179818A819B8161157105810591057C
:1002700021F464E279ED8BE597E02DE133EF41E085
:1002800050E00E94810149015A019B01AC01A7EA9B
:10029000B1E40E94A0016B017C01ACEEB4EFA501BA
:1002A00094010E94AE01DC01CB018C0D9D1DAE1DA1
:1002B000BF1DB7FF03C00197A109B0488883998388
:1002C000AA83BB839F77DF91CF91FF90EF90DF9060
:1002D000CF90BF90AF909F908F9008950E9425017E
:1002E000089580E091E00E9425010895A0E0B0E02B
:1002F0008093000190930101A0930201B093030148
:100300000895052E97FB1EF400940E94980157FD56
:1003100007D00E94B30107FC03D04EF40C9498015F
:1003200050954095309521953F4F4F4F5F4F089521
:1003300090958095709561957F4F8F4F9F4F089551
:100340000E94D501A59F900DB49F900DA49F800D94
:10035000911D11240895B7FF0C94A0010E94A001E3
:10036000821B930B0895A1E21A2EAA1BBB1BFD0151
:100370000DC0AA1FBB1FEE1FFF1FA217B307E40784
:10038000F50720F0A21BB30BE40BF50B661F771FDC
:10039000881F991F1A9469F76095709580959095BC
:1003A0009B01AC01BD01CF010895A29FB001B39F95
:1003B000C001A39F700D811D1124911DB29F700D6E
:0C03C000811D1124911D0895F894FFCFB9
:0403CC00010000002C
:00000001FF
