S015000050726F6A6563745F305F305F312E737265638A
S11300000C943E000C945B000C945B000C945B001D
S11300100C945B000C945B000C945B000C945B00F0
S11300200C945B000C945B000C945B000C945B00E0
S11300300C945B000C945B000C945B000C945B00D0
S11300400C949C000C945B000C945B000C945B007F
S11300500C945B000C945B000C945B000C945B00B0
S11300600C945B000C945B000C945B000C945B00A0
S11300700C945B000C945B000C945B0011241FBE79
S1130080CFEFD8E0DEBFCDBF21E0A4E0B1E001C0F6
S11300901D92A930B207E1F711E0A0E0B1E0E8E079
S11300A0F3E002C005900D92A430B107D9F70E9485
S11300B06B000C9482010C9400000E946E007894F2
S11300C00E948600CB010E94140117B80E9494007C
S11300D08823E1F308950E945D00FFCF109204018C
S11300E010920501109206011092070116BC8CE7CC
S11300F087BD82E084BD83E085BDEEE6F0E08081CB
S11301008260808385B3827085BB08952FB7F8948D
S1130110609104017091050180910601909107019D
S113012022230CF4789408959FB7F89480910801E1
S113013099230CF4789408951F920F920FB60F929E
S113014011248F939F93AF93BF9380910401909157
S11301500501A0910601B09107010196A11DB11DF1
S11301608093040190930501A0930601B0930701C5
S113017010920801BF91AF919F918F910F900FBE84
S11301800F901F9018958F929F92AF92BF92CF922B
S1130190DF92EF92FF92CF93DF93EC016881798134
S11301A08A819B81611571058105910521F464E2C1
S11301B079ED8BE597E02DE133EF41E050E00E94CB
S11301C01F0149015A019B01AC01A7EAB1E40E9455
S11301D03E016B017C01ACEEB4EFA50194010E94D9
S11301E04C01DC01CB018C0D9D1DAE1DBF1DB7FF65
S11301F003C00197A109B04888839983AA83BB836C
S11302009F77DF91CF91FF90EF90DF90CF90BF90D9
S1130210AF909F908F9008950E94C300089580E04E
S113022091E00E94C3000895A0E0B0E08093000133
S113023090930101A0930201B09303010895052E48
S113024097FB1EF400940E94360157FD07D00E94CC
S1130250510107FC03D04EF40C943601509540959F
S1130260309521953F4F4F4F5F4F0895909580955E
S1130270709561957F4F8F4F9F4F08950E94730132
S1130280A59F900DB49F900DA49F800D911D1124E6
S11302900895B7FF0C943E010E943E01821B930B0C
S11302A00895A1E21A2EAA1BBB1BFD010DC0AA1FB3
S11302B0BB1FEE1FFF1FA217B307E407F50720F0CB
S11302C0A21BB30BE40BF50B661F771F881F991F46
S11302D01A9469F760957095809590959B01AC018F
S11302E0BD01CF010895A29FB001B39FC001A39F98
S11302F0700D811D1124911DB29F700D811D11245B
S10B0300911D0895F894FFCF4C
S107030801000000EC
S9030000FC
