S015000050726F6A6563745F305F305F312E737265638A
S11300000C943E000C945B000C945B000C945B001D
S11300100C945B000C945B000C945B000C945B00F0
S11300200C945B000C945B000C945B000C945B00E0
S11300300C945B000C945B000C945B000C945B00D0
S11300400C947E000C945B000C945B000C945B009D
S11300500C9401010C94E3000C945B000C945B0081
S11300600C945B000C945B000C945B000C945B00A0
S11300700C945B000C945B000C945B0011241FBE79
S1130080CFEFD8E0DEBFCDBF21E0A4E0B1E001C0F6
S11300901D92AF30B207E1F711E0A0E0B1E0ECEA65
S11300A0F3E002C005900D92A430B107D9F70E9485
S11300B06E000C94D4010C9400008FEF84B981B9C4
S11300C017B80E94BB0078940E947000CB010E9474
S11300D066018CE090E00E94D100FFCF0E945D0099
S11300E02FB7F8946091090170910A0180910B0176
S11300F090910C0122230CF4789408951F920F928E
S11301000FB60F9211248F939F93AF93BF93809157
S1130110090190910A01A0910B01B0910C01019683
S1130120A11DB11D8093090190930A01A0930B01B5
S1130130B0930C01309B04C081E08093040102C0A1
S1130140109204018091090190910A01A0910B0180
S1130150B0910C018093050190930601A0930701CF
S1130160B0930801BF91AF919F918F910F900FBEF3
S11301700F901F9018951092B20080EA8093B300FC
S113018088E78093B4008AB1806C8AB9E0EBF0E030
S11301908081836A8083E1EBF0E0808181608083E9
S11301A0089510920D019093C5008093C400E1EC72
S11301B0F0E080818861808380818068808386E02C
S11301C08093C20008951F920F920FB60F921124CC
S11301D08F93EF93FF9380910E01882329F08091F0
S11301E00E018093C60005C0E1ECF0E080818F7DB4
S11301F08083FF91EF918F910F900FBE0F901F900E
S113020018951F920F920FB60F9211248F9380911D
S1130210C60080930D0180910D01809582B98F9164
S11302200F900FBE0F901F9018958F929F92AF92D0
S1130230BF92CF92DF92EF92FF92CF93DF93EC01C4
S1130240688179818A819B81611571058105910598
S113025021F464E279ED8BE597E02DE133EF41E0A1
S113026050E00E94710149015A019B01AC01A7EAC7
S1130270B1E40E9490016B017C01ACEEB4EFA501E6
S113028094010E949E01DC01CB018C0D9D1DAE1DCD
S1130290BF1DB7FF03C00197A109B04888839983A4
S11302A0AA83BB839F77DF91CF91FF90EF90DF907C
S11302B0CF90BF90AF909F908F9008950E941501AA
S11302C0089580E091E00E9415010895A0E0B0E057
S11302D08093000190930101A0930201B093030164
S11302E00895052E97FB1EF400940E94880157FD83
S11302F007D00E94A30107FC03D04EF40C9488019C
S113030050954095309521953F4F4F4F5F4F08953D
S113031090958095709561957F4F8F4F9F4F08956D
S11303200E94C501A59F900DB49F900DA49F800DC0
S1130330911D11240895B7FF0C9490010E9490011F
S1130340821B930B0895A1E21A2EAA1BBB1BFD016D
S11303500DC0AA1FBB1FEE1FFF1FA217B307E407A0
S1130360F50720F0A21BB30BE40BF50B661F771FF8
S1130370881F991F1A9469F76095709580959095D8
S11303809B01AC01BD01CF010895A29FB001B39FB1
S1130390C001A39F700D811D1124911DB29F700D8A
S10F03A0811D1124911D0895F894FFCFD5
S10703AC0100000048
S9030000FC
