:100000000C949C000C94B9000C94B9000C94B900A9
:100010000C94B9000C94B9000C94B9000C94B9007C
:100020000C94B9000C94B9000C94B9000C94B9006C
:100030000C94B9000C94B9000C94B9000C94B9005C
:100040000C94A4020C94B9000C94B9000C94B9005F
:100050000C94C2010C9480010C94B9000C94B9006A
:100060000C94B9000C94B9000C94B9000C94B9002C
:100070000C94B9000C94B9000C94B900CB040D0594
:100080000D050D050D050D050D050D050D050D05E0
:100090000D052F050D05C1030D050D052F043404B5
:1000A0003A04400446044C040D050D050D050D05EC
:1000B0000D050D050D05AC030D052F050D050D05F1
:1000C0000D050D050D050D050D050D0501050D05AC
:1000D0000D050D05D8040D050D050D050D050D05C6
:1000E0000D050D050D050D050D050D05FD040D0591
:1000F0000D05AD040D05BC040D050D052A04930383
:100100000D05ED049D03D6030D050D050D050D052B
:10011000DA04DE04D2040D050D05F0040D0500041B
:10012000A703A2030D050D05EA049803E6040D05D7
:10013000E20452040D05800411241FBECFEFD8E065
:10014000DEBFCDBF11E0A0E0B1E0E8E8F0E202C020
:1001500005900D92AE3EB107D9F723E0AEEEB1E0C7
:1001600001C01D92AA31B207E1F70E943E050C942E
:1001700042100C940000439943984499449820916C
:1001800016033091170340E150E061E070E088E130
:1001900091E00E943E0D0895882319F0439A4498F7
:1001A0000895449A439808952FB7207802C02223D7
:1001B00029F19091F6019F3FD1F3F894E091F50178
:1001C00091E09E0F9093F501F0E0E950FE4F80839F
:1001D0008091F6018F5F8093F6018091F5018F3F4A
:1001E00011F41092F501E1ECF0E0808180628083EF
:1001F000222339F0789480E090E0089581E090E047
:10020000089580E090E00895809108038823E1F349
:100210002FB72078F8948091F6023091080390E08F
:10022000831B91095AF4E091F60280910803F0E0F3
:10023000E81BF109E95FFC4F80810AC0E091F602FA
:1002400080910803F0E0E81BF109E950FD4F80813F
:1002500090910803915090930803222309F0789419
:1002600090E008951092F5011092F6011092F602B6
:1002700010920803109207034093EE01DC01CB01BA
:10028000880F991FAA1FBB1F880F991FAA1FBB1F8A
:100290009C01AD01220F331F441F551F60E072E126
:1002A0008AE790E00E94C20ABA01A9014F5F5F4F3E
:1002B0006F4F7F4FDB01CA011AF40196A11DB11DDA
:1002C000B595A7959795879501979093C5008093CD
:1002D000C400E1ECF0E088E1808380818068808365
:1002E000E4E1F3E08AE091E0938382839183808369
:1002F00008959091080381E0911101C080E0089574
:100300001F920F920FB60F9211242F938F939F93EA
:10031000EF93FF938091F601882329F18091F501F5
:100320002091F60190E0821B91095AF4E091F501C9
:100330008091F601F0E0E81BF109EA50FD4F908151
:100340000AC0E091F5018091F601F0E0E81BF109A7
:10035000E950FE4F90818091F60181508093F60123
:100360009093C60005C0E1ECF0E080818F7D808332
:10037000FF91EF919F918F912F910F900FBE0F9052
:100380001F9018951F920F920FB60F9211242F9362
:100390003F934F935F936F937F938F939F93AF930D
:1003A000BF93CF93EF93FF93C091C6008091EE016E
:1003B000882349F08091F6018F3F29F060E070E0DA
:1003C0008C2F0E94D40080910803803120F081E0BE
:1003D0008093070318C0CD3009F4CAE0E091F6021B
:1003E00081E08E0F8093F602F0E0E950FD4FC0836C
:1003F000809108038F5F809308038091F60280311B
:1004000011F41092F602FF91EF91CF91BF91AF914D
:100410009F918F917F916F915F914F913F912F911C
:100420000F900FBE0F901F9018958FE19EE4909350
:10043000F0018093EF01E0E8F0E08081826C80833E
:10044000E1E8F0E080818A6180838091EF01909102
:10045000F001909387008093860008958091880032
:100460009091890088539F4F2091EF013091F001C6
:10047000A901405253404817590728F45093890066
:10048000409388000895285B3B408217930728F427
:1004900030938900209388000895E8E8F0E0808197
:1004A000918188539F4F9183808308958091880024
:1004B00090918900885C91092091EF013091F001C1
:1004C000A901405253404817590728F45093890016
:1004D000409388000895285B3B408217930728F4D7
:1004E00030938900209388000895E8E8F0E0808147
:1004F0009181885C91099183808308951092F10124
:100500001092F2011092F3011092F40116BC8CE7E4
:1005100087BD82E084BD83E085BDEEE6F0E08081AA
:100520008260808385B3827085BB08952FB7F8946D
:100530006091F1017091F2018091F3019091F401C9
:1005400022230CF4789408951F920F920FB60F9205
:1005500011248F939F93AF93BF938091F10190915A
:10056000F201A091F301B091F4010196A11DB11D1A
:100570008093F1019093F201A093F301B093F40101
:10058000BF91AF919F918F910F900FBE0F901F90D1
:1005900018951092B2008CE78093B3008093B4005A
:1005A000E0EBF0E08081836A8083E1EBF0E0808122
:1005B0008160808308958DE090E00E941D0B089576
:1005C0000F931F93CF93DF938C0183E081B98BE06E
:1005D00084B985B1836085B984B18C7F84B98CEF8F
:1005E00087B98EEF8AB9509840E060E875E280E004
:1005F00090E00E9432010E947E020E94C9020E9485
:1006000015020E949602CB010E948F0C7894C4E1DF
:10061000D3E024C0888199810E949A0C8F36F1F42E
:10062000209116033091170346E050E061E070E03E
:1006300089E291E00E943E0D81E0F80186831482F8
:1006400086E990E09383828310821286138688B1B4
:10065000837C88B98BB180638BB905C00E94790116
:100660008823E1F3D7CFDF91CF911F910F910895A8
:10067000CF92DF92EF92FF926B017C010E94960273
:10068000C60ED71EE81EF91E0E9496026C157D0547
:100690008E059F05C8F3FF90EF90DF90CF900895EF
:1006A000CF92DF92EF92FF920F931F93CF93DF933E
:1006B000CDB7DEB764970FB6F894DEBF0FBECDBFDF
:1006C0007C010E947901882309F4C9C18091140337
:1006D000909115030E949A0C8C018F7E8D32C1F08F
:1006E0000F2EF4E1CF2EF3E0DF2EF02DF601628124
:1006F0007381802F90E00E94D80CF6012281338113
:1007000042E050E061E070E080E391E00E943E0D45
:10071000F801FF27B097EE35F10508F07EC1E25CE5
:10072000FF4F0C94E10A5A985B9A469A479897C1F2
:100730005A985B9A4698479A92C15A9A5B984698FB
:10074000479A8DC15A9A5B98469A479888C10E94E9
:10075000A707F701148283C104E113E0F801628165
:1007600073818BE290E00E94D80CF80122813381E2
:1007700042E050E061E070E080E391E00E943E0DD5
:100780006EC104E113E0F801628173818FE590E0AE
:100790000E94D80CF8012281338142E050E061E0F0
:1007A00070E080E391E00E943E0D59C1F701818124
:1007B000882314F481958183F7018181282F082EE5
:1007C000000C330B3F938F9383E391E09F938F93C0
:1007D0008E010F5F1F4F1F930F930E94720D609148
:1007E000160370911703C8010E94140D81E4F701EC
:1007F00084830F900F900F900F900F900F902FC148
:10080000F7018181181614F481958183F7018181A4
:10081000282F082E000C330B3F938F9380E491E038
:100820009F938F938E010F5F1F4F1F930F930E9413
:10083000720D6091160370911703C8010E94140D88
:1008400082E5F70184830F900F900F900F900F9027
:100850000F9005C1F701108281E0878300C1F70185
:10086000108281E08783FBC084E1F701808381E00F
:100870008783F5C088E2F701808381E08783EFC03A
:100880008CE3F701808381E08783E9C080E5F7018D
:10089000808381E08783E3C084E6F701808381E081
:1008A0008783DDC0F7012181822F022E000C990B76
:1008B0000A9783399F4F1CF02A50F7012183F701D3
:1008C0008181282F082E000C330B3F938F938CE4EB
:1008D00091E09F938F938E010F5F1F4F1F930F9394
:1008E0000E94720D6091160370911703C8010E9457
:1008F000140D0F900F900F900F900F900F90AFC0AE
:10090000F7012181822F022E000C990B0A978E3657
:10091000910514F4265F2183F7018181282F082E89
:10092000000C330B3F938F938CE491E09F938F9354
:100930008E010F5F1F4F1F930F930E94720D6091E6
:10094000160370911703C8010E94140D0F900F90A9
:100950000F900F900F900F9082C00E942E02209156
:100960001603309117034BE050E061E070E08BE537
:1009700091E00E943E0D73C00E9456022091160322
:10098000309117034DE050E061E070E087E691E0C0
:100990000E943E0D64C0F701108281E085831782BA
:1009A00014825DC0119B02C0119859C0119A57C0A2
:1009B000119A55C08AE6F701818751C08BE6F7018D
:1009C00081874DC08AE7F701848749C088E7F7012E
:1009D000848745C00E94BB0042C00E94BB003FC04C
:1009E000209116033091170348E050E061E070E079
:1009F00085E791E00E943E0D32C081E0F7018387D8
:100A00002EC012B815B818B81BB811B814B817B85A
:100A10001AB8C7010E94E00222C02091160330914B
:100A2000170348E050E061E070E08EE791E00E943B
:100A30003E0DF70180858F5F80878A3080F060915E
:100A400016037091170388E490E00E94D80C68EEBA
:100A500073E080E090E00E943803F701108664960E
:100A60000FB6F894DEBF0FBECDBFDF91CF911F91BF
:100A70000F91FF90EF90DF90CF900895CF93DF9389
:100A8000CDB7DEB7E4970FB6F894DEBF0FBECDBF8B
:100A90000E94DB028C010E94E00233243A940F2E64
:100AA000F4E6AF2EB12CF02D0F2EF3EB6F2E712C40
:100AB000F02D0F2EF4EB4F2E512CF02DCE014F9632
:100AC0009CAB8BAB0F2EF4E1CF2EF3E0DF2EF02D9D
:100AD000FE0131964F01222423940E94790188233C
:100AE00019F0C8010E945003F80187818823B1F0F2
:100AF0008081389EC0011124B5010E94AE0AF30125
:100B00006083F8018081389EC0011124B5010E94E4
:100B1000AE0AF2016083F80117821086F801858120
:100B2000882389F05A985B98469847988481813445
:100B300011F0823521F40E947F07F8011482F80138
:100B400015821086CCC1F8018481813419F0823578
:100B500009F0C4C00E947A077C01F80184811F92C9
:100B60008F938181282F082E000C330B3F938F9396
:100B7000FF92EF9287E891E09F938F93FCA9FF93F8
:100B80002BA92F930E94720DF60162817381CE0111
:100B90004F960E94140D0FB6F894DEBF0FBECDBF66
:100BA000F80181818823DCF484818235C1F482815B
:100BB0009381E816F906A8F1C8010E94250A0E944F
:100BC0007A077C01F801818188234CF48481823585
:100BD00031F482819381E816F90670F722C0F8019A
:100BE00081811816C4F484818134A9F41E141F0471
:100BF0000CF478C1C8010E94250A0E947A077C0182
:100C0000F801818118163CF48481813421F41E148A
:100C10001F0484F767C1F80182819381E816F90601
:100C200050F5FF2044F10E9479018823B9F0F601C4
:100C3000808191810E949A0C803281F4F8011482A3
:100C40000E947F07F6012281338149E050E061E094
:100C500070E087E991E00E943E0D0DC0C8010E943E
:100C6000250A0E947A07F8012281338182179307AF
:100C700010F49923C4F60E947A07F80124811F9288
:100C80002F932181422F022E000C550B5F932F933F
:100C90009F938F9381EA91E09F938F939F928F927E
:100CA0000E94720DF60162817381C4010E94140DCD
:100CB000F6012281338149E050E061E070E085EB8C
:100CC00091E00E943E0DF801148210860E947F0779
:100CD0000FB6F894DEBF0FBECDBF01C1F80181850C
:100CE0008B3609F076C083858111F7CE622D8CE3B7
:100CF0000E94880AF80182858B3609F466C00F2E9F
:100D0000FCE3FF2EF02D0E947901882309F454C0E2
:100D1000F601808191810E949A0C803271F4F60173
:100D20002281338149E050E061E070E08FEB91E097
:100D30000E943E0D0E94790A48C08B36F9F48F2D2F
:100D400090E00A9684369105BCF5FAE0FF0E1F92FA
:100D5000FF9289EC91E09F938F939F928F920E94D4
:100D6000720DF60162817381C4010E94140D0F900F
:100D70000F900F900F900F900F901EC08A36E1F4E5
:100D80008F2D90E00A97C2F0F6EFFF0E1F92FF92B0
:100D900089EC91E09F938F939F928F920E94720DA6
:100DA000F60162817381C4010E94140D0F900F90AF
:100DB0000F900F900F900F90622D8F2D0E94880A38
:100DC000F80182858B3609F09ECFF80111861086D6
:100DD00086C08A3609F077C0F801838581117DCEFF
:100DE00060E08CE30E94880AF80182858A3609F463
:100DF00066C00F2EFCE3FF2EF02D0E9479018823A0
:100E000009F454C0F601808191810E949A0C8032CD
:100E100071F4F601228133814AE050E061E070E034
:100E200088ED91E00E943E0D0E94790A48C08B3601
:100E3000F9F48F2D90E00A9684369105BCF5FAE01E
:100E4000FF0E1F92FF9289EC91E09F938F939F92E8
:100E50008F920E94720DF60162817381C4010E941B
:100E6000140D0F900F900F900F900F900F901EC0C9
:100E70008A36E1F48F2D90E00A97C2F0F6EFFF0E6C
:100E80001F92FF9289EC91E09F938F939F928F9294
:100E90000E94720DF60162817381C4010E94140DDB
:100EA0000F900F900F900F900F900F9060E08F2D8C
:100EB0000E94880AF80182858A3609F09ECFF801DF
:100EC000118610860CC0F8019485892F8D7F883794
:100ED00031F4822D9A3709F480E00E94CC00F801A9
:100EE0001286FBCDF80182819381E816F90608F499
:100EF0009ACEC1CE8091090390910A03089538B12A
:100F000081E090E0BC0100900E0302C0660F771FE5
:100F10000A94E2F7AC0100900D0302C0440F551F84
:100F20000A94E2F7462B432B9C0100900C0302C06D
:100F3000220F331F0A94E2F7242B00900F0302C004
:100F4000880F991F0A94E2F7822B88B9089528B177
:100F500081E090E0BC0100900E0302C0660F771F95
:100F60000A94E2F7AC0100900D0302C0440F551F34
:100F70000A94E2F7362F342BAC0100900C0302C028
:100F8000440F551F0A94E2F7432B00900F0302C051
:100F9000880F991F0A94E2F7842B8095822388B9E1
:100FA00008958091090390910A03019790930A0391
:100FB0008093090308958091090390910A03019693
:100FC00090930A03809309030895CF92DF92EF92E2
:100FD000FF92CF93DF93C82F80910B03811142C002
:100FE0000E9496026B017C01CC0ED11CE11CF11C0D
:100FF000C1E0D0E02AC098B1AE0100900C0302C05D
:10100000440F551F0A94E2F79E0100900D0302C0A1
:10101000220F331F0A94E2F7842F822B892B88B981
:1010200028B1AE0100900E0302C0440F551F0A9470
:10103000E2F7CE0100900F0302C0880F991F0A94B7
:10104000E2F7842B8095822388B90E9496026C1562
:101050007D058E059F0578F280910B038F5F80934D
:101060000B03CAC0813009F042C00E9496026B0196
:101070007C01CC0ED11CE11CF11CC1E0D0E02AC0E7
:1010800098B1AE0100900F0302C0440F551F0A949F
:10109000E2F79E0100900D0302C0220F331F0A9455
:1010A000E2F7842F822B892B88B928B1AE010090FA
:1010B0000E0302C0440F551F0A94E2F7CE010090C0
:1010C0000C0302C0880F991F0A94E2F7842B8095C5
:1010D000822388B90E9496026C157D058E059F05B6
:1010E00078F280910B038F5F80930B0385C0823071
:1010F00009F042C00E9496026B017C01CC0ED11C0B
:10110000E11CF11CC1E0D0E02AC098B1AE01009012
:101110000E0302C0440F551F0A94E2F79E0100908F
:101120000F0302C0220F331F0A94E2F7842F822B91
:10113000892B88B928B1AE0100900D0302C0440F7D
:10114000551F0A94E2F7CE0100900C0302C0880FED
:10115000991F0A94E2F7842B8095822388B90E9414
:1011600096026C157D058E059F0578F280910B0324
:101170008F5F80930B0340C08330F1F50E9496028D
:101180006B017C01CC0ED11CE11CF11CC1E0D0E054
:101190002AC098B1AE0100900E0302C0440F551F43
:1011A0000A94E2F79E0100900C0302C0220F331F45
:1011B0000A94E2F7842F822B892B88B928B1AE01DB
:1011C00000900D0302C0440F551F0A94E2F7CE01B0
:1011D00000900F0302C0880F991F0A94E2F7842B36
:1011E0008095822388B90E9496026C157D058E0534
:1011F0009F0578F210920B030E94DB07DF91CF91DD
:10120000FF90EF90DF90CF900895CF92DF92EF9212
:10121000FF92CF93DF93C82F80910B03811142C0BF
:101220000E9496026B017C01CC0ED11CE11CF11CCA
:10123000C1E0D0E02AC098B1AE0100900E0302C018
:10124000440F551F0A94E2F79E0100900C0302C060
:10125000220F331F0A94E2F7842F822B892B88B93F
:1012600028B1AE0100900D0302C0440F551F0A942F
:10127000E2F7CE0100900F0302C0880F991F0A9475
:10128000E2F7842B8095822388B90E9496026C1520
:101290007D058E059F0578F280910B038F5F80930B
:1012A0000B03CAC0813009F042C00E9496026B0154
:1012B0007C01CC0ED11CE11CF11CC1E0D0E02AC0A5
:1012C00098B1AE0100900E0302C0440F551F0A945E
:1012D000E2F79E0100900F0302C0220F331F0A9411
:1012E000E2F7842F822B892B88B928B1AE010090B8
:1012F0000D0302C0440F551F0A94E2F7CE0100907F
:101300000C0302C0880F991F0A94E2F7842B809582
:10131000822388B90E9496026C157D058E059F0573
:1013200078F280910B038F5F80930B0385C082302E
:1013300009F042C00E9496026B017C01CC0ED11CC8
:10134000E11CF11CC1E0D0E02AC098B1AE010090D0
:101350000D0302C0440F551F0A94E2F79E0100904E
:101360000F0302C0220F331F0A94E2F7842F822B4F
:10137000892B88B928B1AE0100900E0302C0440F3A
:10138000551F0A94E2F7CE0100900C0302C0880FAB
:10139000991F0A94E2F7842B8095822388B90E94D2
:1013A00096026C157D058E059F0578F280910B03E2
:1013B0008F5F80930B0340C08330F1F50E9496024B
:1013C0006B017C01CC0ED11CE11CF11CC1E0D0E012
:1013D0002AC098B1AE0100900D0302C0440F551F02
:1013E0000A94E2F79E0100900C0302C0220F331F03
:1013F0000A94E2F7842F822B892B88B928B1AE0199
:1014000000900E0302C0440F551F0A94E2F7CE016C
:1014100000900F0302C0880F991F0A94E2F7842BF3
:101420008095822388B90E9496026C157D058E05F1
:101430009F0578F210920B030E94D107DF91CF91A4
:10144000FF90EF90DF90CF900895FC018181882379
:1014500044F18A3094F0843194F08E3194F08832E3
:1014600094F0823394F08C3394F0863494F0803589
:1014700094F08A3594F085E011C084E60FC08AE5C7
:101480000DC080E50BC086E409C08CE307C082E391
:1014900005C088E203C08EE101C084E10E94E50737
:1014A0000895873F94F48D3E94F4833E94F4893DEF
:1014B00094F48F3C94F4853C94F48B3B94F4813BFE
:1014C00094F4873A94F485E011C084E60FC08AE56D
:1014D0000DC080E50BC086E409C08CE307C082E341
:1014E00005C088E203C08EE101C084E10E940509C5
:1014F00008954598429820911603309117034AE0C9
:1015000050E061E070E083EE91E00E943E0D0895AE
:10151000662391F0459A429824E1829FC0011124EC
:1015200064E670E00E94AE0A072E000C880B990B4F
:101530000E94380345980895429A459824E1829F75
:10154000C001112464E670E00E94AE0A072E000C70
:10155000880B990B0E9438034598089597FB072E36
:1015600016F4009407D077FD09D00E94E70A07FC23
:1015700005D03EF4909581959F4F089570956195A3
:101580007F4F0895052E97FB1EF400940E94D90A00
:1015900057FD07D00E94FB0A07FC03D04EF40C94C1
:1015A000D90A50954095309521953F4F4F4F5F4F49
:1015B000089590958095709561957F4F8F4F9F4FBF
:1015C0000895EE0FFF1F0590F491E02D0994AA1BDA
:1015D000BB1B51E107C0AA1FBB1FA617B70710F01E
:1015E000A61BB70B881F991F5A95A9F78095909550
:1015F000BC01CD010895A1E21A2EAA1BBB1BFD015F
:101600000DC0AA1FBB1FEE1FFF1FA217B307E407E1
:10161000F50720F0A21BB30BE40BF50B661F771F39
:10162000881F991F1A9469F7609570958095909519
:101630009B01AC01BD01CF0108950F931F93CF9380
:10164000DF938230910510F482E090E0E091120384
:10165000F091130320E030E0A0E0B0E0309719F102
:10166000408151810281138148175907C8F08417BE
:10167000950769F4109731F012960C931297139610
:101680001C9327C0009312031093130322C021154B
:10169000310519F04217530718F49A01BD01EF0103
:1016A000DF01F801DBCF21153105F9F0281B390BDB
:1016B0002430310580F48A819B816115710521F008
:1016C000FB019383828304C09093130380931203DE
:1016D000FE01329644C0FE01E20FF31F8193919305
:1016E00022503109398328833AC020911003309168
:1016F0001103232B41F42091020130910301309317
:101700001103209310032091000130910101211554
:10171000310541F42DB73EB74091040150910501C8
:10172000241B350BE0911003F0911103E217F3072E
:10173000A0F42E1B3F0B2817390778F0AC014E5F41
:101740005F4F2417350748F04E0F5F1F509311036A
:10175000409310038193919302C0E0E0F0E0CF0149
:10176000DF91CF911F910F910895CF93DF93009751
:1017700009F481C0FC01329713821282A0911203F6
:10178000B0911303109781F420813181820F931F50
:1017900020911003309111032817390751F5F09368
:1017A0001103E093100367C0ED0120E030E0CE1795
:1017B000DF0740F44A815B819E0141155105F1F03C
:1017C000EA01F5CFD383C28340815181840F951FF5
:1017D000C817D90759F488819981840F951F0296FB
:1017E000918380838A819B81938382832115310534
:1017F00029F4F0931303E09312033DC0E901FB8346
:10180000EA8349915991C40FD51FEC17FD0761F484
:1018100080819181840F951F0296E90199838883C5
:10182000828193819B838A83E0E0F0E012968D9120
:101830009C911397009719F0FD01DC01F7CF8D9172
:101840009C9111979D012E5F3F4F820F931F209116
:101850001003309111032817390769F4309729F4E0
:10186000109213031092120302C013821282B093DB
:101870001103A0931003DF91CF9108958F929F924F
:10188000AF92BF92CF92DF92EF92FF92CF93DF930E
:10189000EC01688179818A819B81611571058105DF
:1018A000910521F464E279ED8BE597E02DE133EFCA
:1018B00041E050E00E94C20A49015A019B01AC017B
:1018C000A7EAB1E40E94E90F6B017C01ACEEB4EF32
:1018D000A50194010E94F70FDC01CB018C0D9D1D29
:1018E000AE1DBF1DB7FF03C00197A109B048888393
:1018F0009983AA83BB839F77DF91CF91FF90EF906D
:10190000DF90CF90BF90AF909F908F9008950E94EE
:101910003E0C089586E091E00E943E0C0895A0E000
:10192000B0E08093060190930701A0930801B09363
:1019300009010895CF93DF93EC012B8120FF33C081
:1019400026FF0AC02F7B2B838E819F8101969F8368
:101950008E838A8190E029C022FF0FC0E881F9813F
:101960008081082E000C990B009719F420622B83BC
:101970001AC03196F983E8830EC0EA85FB85099584
:1019800097FF09C02B81019611F080E201C080E130
:10199000822B8B8308C02E813F812F5F3F4F3F8377
:1019A0002E83992702C08FEF9FEFDF91CF9108958B
:1019B0000F931F93CF93DF93FB01238121FD03C07E
:1019C0008FEF9FEF2CC022FF16C0468157812481E4
:1019D00035814217530744F4A081B1819D012F5FE7
:1019E0003F4F318320838C93268137812F5F3F4F78
:1019F0003783268314C08B01EC01FB010084F18541
:101A0000E02D0995892BE1F6D80116968D919C91D0
:101A10001797019617969C938E931697CE01DF9198
:101A2000CF911F910F910895EF92FF920F931F9303
:101A3000CF93DF93DB0113962C9121FF18C08B010C
:101A40007C01D0E0C0E0F70181917F01882361F043
:101A5000D8011896ED91FC911997B8010995892B39
:101A600091F3DFEFCFEFEFCF8D2F9C2F02C08FEFE1
:101A70009FEFCDB7DEB7E6E00C942410A0E0B0E015
:101A8000E4E4FDE00C9402105B014A017901D90104
:101A900013962C9121FF1DC0C0E0D0E0C815D905D8
:101AA000D9F08C016C01CA0CDB1CC8010C151D059A
:101AB00071F00F5F1F4FD7011896ED91FC911997A8
:101AC000B701DC018C910995892B79F305C021962A
:101AD000E5CF80E090E001C0CE01CDB7DEB7ECE00D
:101AE0000C941E10AEE0B0E0E8E7FDE00C940A10A4
:101AF0000D891E8986E08C831A8309838FEF9FE707
:101B00009E838D83AE01475E5F4F6F89788DCE01D6
:101B100001960E94940DEF81F885E00FF11F10826D
:101B20002E96E4E00C942610ABE0B0E0EAE9FDE08C
:101B30000C94FC0F6C017B018A01FC011782168258
:101B4000838181FFCCC1CE0101963C01F6019381D6
:101B5000F70193FD859193FF81917F01882309F41B
:101B6000BAC1853239F493FD859193FF81917F014C
:101B7000853229F4B60190E00E94D80CE7CF912C71
:101B8000212C312CFFE1F315D8F08B3279F038F4A9
:101B9000803279F08332A1F4232D20611DC08D3273
:101BA00061F0803369F4232D216016C0832D82609B
:101BB000382EE32DE4603E2E2AC0F32DF8601DC0C0
:101BC00037FC2DC020ED280F2A3040F08E32B9F4BA
:101BD00036FC81C1232D2064322E19C036FE06C08A
:101BE0008AE0989E200D1124922E11C0EAE02E9ECC
:101BF000200D1124222EF32DF0623F2E08C08C36CA
:101C000021F4832D8068382E02C0883641F4F70114
:101C100093FD859193FF81917F018111B3CF982F1F
:101C20009F7D9554933028F40C5F1F4F9FE3998359
:101C30000DC0833631F0833771F0833509F059C018
:101C400021C0F801808189830E5F1F4F882483940F
:101C5000912C530113C02801F2E04F0E511CF801E2
:101C6000A080B18036FE03C0692D70E002C06FEF26
:101C70007FEFC5010E94800F4C018201F32DFF7799
:101C80003F2E16C0280122E0420E511CF801A08010
:101C9000B18036FE03C0692D70E002C06FEF7FEFA8
:101CA000C5010E94750F4C01F32DF0683F2E820193
:101CB00033FC1BC0822D90E088169906B0F4B60163
:101CC00080E290E00E94D80C2A94F4CFF50137FC12
:101CD000859137FE81915F01B60190E00E94D80C9A
:101CE00021102A9421E0821A91088114910471F73D
:101CF000E8C0843611F0893641F5F80137FE07C097
:101D000060817181828193810C5F1F4F08C0608167
:101D10007181072E000C880B990B0E5F1F4FF32D5E
:101D2000FF763F2E97FF09C090958095709561953D
:101D30007F4F8F4F9F4FF0683F2E2AE030E0A30186
:101D40000E948B0F882E861845C0853731F4232DCD
:101D50002F7EB22E2AE030E025C0932D997FB92E38
:101D60008F36C1F018F4883579F0B5C0803719F096
:101D7000883721F0B0C0E92FE061BE2EB4FE0DC05F
:101D8000FB2DF460BF2E09C034FE0AC0292F266047
:101D9000B22E06C028E030E005C020E130E002C0ED
:101DA00020E132E0F801B7FE07C0608171818281D5
:101DB00093810C5F1F4F06C06081718180E090E0CD
:101DC0000E5F1F4FA3010E948B0F882E8618FB2DDC
:101DD000FF773F2E36FE0DC0232D2E7FA22E8914B5
:101DE00058F434FE0BC032FC09C0832D8E7EA82E21
:101DF00005C0B82CA32C03C0B82C01C0B92CA4FE7C
:101E00000FC0FE01E80DF11D8081803321F49A2D71
:101E1000997EA92E09C0A2FE06C0B394B39404C053
:101E20008A2D867809F0B394A3FC11C0A0FE06C0E9
:101E3000B21488F4280C922C9B180EC0B21460F4D3
:101E4000B60180E290E00E94D80CB394F7CFB214B0
:101E500018F42B1802C0982C212CA4FE10C0B60137
:101E600080E390E00E94D80CA2FE17C0A1FC03C042
:101E700088E790E002C088E590E0B6010CC08A2DAA
:101E8000867859F0A1FE02C08BE201C080E2A7FC77
:101E90008DE2B60190E00E94D80C891438F4B601A6
:101EA00080E390E00E94D80C9A94F7CF8A94F301D3
:101EB000E80DF11D8081B60190E00E94D80C8110E0
:101EC000F5CF222009F442CEB60180E290E00E94D4
:101ED000D80C2A94F6CFF6018681978102C08FEF45
:101EE0009FEF2B96E2E10C941810FC0105906150D5
:101EF00070400110D8F7809590958E0F9F1F089520
:101F0000FC016150704001900110D8F780959095C8
:101F10008E0F9F1F0895FA01AA27283051F1203112
:101F200081F1E8946F936E7F6E5F7F4F8F4F9F4F6D
:101F3000AF4FB1E03ED0B4E03CD0670F781F891FAF
:101F40009A1FA11D680F791F8A1F911DA11D6A0F7D
:101F5000711D811D911DA11D20D009F468943F9130
:101F60002AE0269F11243019305D3193DEF6CF012F
:101F70000895462F4770405D4193B3E00FD0C9F7F5
:101F8000F6CF462F4F70405D4A3318F0495D31FD62
:101F90004052419302D0A9F7EACFB4E0A6959795B5
:101FA000879577956795BA95C9F70097610571058B
:101FB00008959B01AC010A2E0694579547953795D5
:101FC0002795BA95C9F7620F731F841F951FA01D2F
:101FD00008950E943310A59F900DB49F900DA49F6B
:101FE000800D911D11240895B7FF0C94E90F0E94F4
:101FF000E90F821B930B08952F923F924F925F92AD
:102000006F927F928F929F92AF92BF92CF92DF9208
:10201000EF92FF920F931F93CF93DF93CDB7DEB76D
:10202000CA1BDB0B0FB6F894DEBF0FBECDBF099401
:102030002A88398848885F846E847D848C849B8458
:10204000AA84B984C884DF80EE80FD800C811B8166
:10205000AA81B981CE0FD11D0FB6F894DEBF0FBE95
:10206000CDBFED010895A29FB001B39FC001A39F12
:10207000700D811D1124911DB29F700D811D1124C1
:08208000911D0895F894FFCFB3
:1020880000001A0320000100000000000003000007
:102098000000D400040100005069766F74206D6F51
:1020A800746F72206F66660A0053746172740A0056
:1020B8003A200061637469766174652025640A00BA
:1020C800726574726163742025640A0053746570C4
:1020D8002073706565642025640A0043616D65722C
:1020E80061207570200A0043616D65726120646F1C
:1020F800776E200A00737461727465640A007374E1
:10210800757069642E0A00737465703A202564201E
:1021180025642025630A0063616E63656C65640A43
:10212800007374657020504F533A2025642025644D
:102138002025630A00656E6420737465700A006365
:102148006C6177206F66660A00576F726D20737036
:102158006565642025640A00636C617731206F66C9
:0E216800660A00576F726D31206F66660A00BE
:00000001FF
