:100000000C943E000C945B000C945B000C945B0021
:100010000C945B000C945B000C945B000C945B00F4
:100020000C945B000C945B000C945B000C945B00E4
:100030000C945B000C945B000C945B000C945B00D4
:100040000C94FD030C945B000C945B000C945B001F
:100050000C9491020C944F020C945B000C945B0086
:100060000C945B000C945B000C945B000C945B00A4
:100070000C945B000C945B000C945B0011241FBE7D
:10008000CFEFD8E0DEBFCDBF11E0A0E0B1E0EEE7FA
:10009000FEE002C005900D92A831B107D9F722E029
:1000A000A8E1B1E001C01D92AC33B207E1F70E94B4
:1000B000D1030C943D070C940000AF92BF92DF92E5
:1000C000EF92FF920F931F93CF93DF936623C9F1B3
:1000D000C52FD42FD62E182F80ED0E943004812FEB
:1000E0000E94860461E070E080E090E00E94FE02E1
:1000F00081ED0E9430040D2F1C2FEE24EA94ED0CAC
:10010000F12C8FEFE81AF80AC0E0D0E0AD2CB12C4A
:10011000E1E0AE1AB108CA15DB0529F40E94C1045A
:10012000F801808304C00E94A704F801808321960F
:100130000F5F1F4FCE15DF0571F7CD2D0E9476049E
:1001400001C0C0E08C2FDF91CF911F910F91FF90E4
:10015000EF90DF90BF90AF900895AB0161E00E94F7
:100160005D000895EF92FF920F931F93CF93DF935B
:100170006623D1F07A01162FC82F80ED0E9430043B
:100180008C2F0E948604E7016FEF610F062F10E0AD
:100190000F5F1F4F0E0D1F1D89910E948604C0170F
:1001A000D107D1F70E947604DF91CF911F910F9173
:1001B000FF90EF900895CF93DF931F92CDB7DEB7F6
:1001C0006983AE014F5F5F4F61E00E94B2000F9004
:1001D000DF91CF910895EF92FF920F931F93CF93EA
:1001E000DF931F92CDB7DEB7442389F1F22E142F8F
:1001F000062FE82E1982BE016F5F7F4F0E94AD006F
:10020000882329F1402F50E0411B51094F5F5F4F78
:1002100081E090E002C0880F991F1A95E2F70197DC
:10022000042E02C0880F991F0A94E2F72F2D30E0A8
:1002300002C0220F331F4A95E2F7682F609599811B
:1002400069238223682B69838E2D0E94DB000F9027
:10025000DF91CF911F910F91FF90EF900895FF9242
:100260000F931F93CF93DF931F92CDB7DEB7182F55
:10027000062FF42EBE016F5F7F4F0E94AD00FF205E
:1002800059F021E030E0B90102C0660F771F0A95EE
:10029000E2F78981682B0BC021E030E0B90102C090
:1002A000660F771F0A95E2F7609599816923698344
:1002B000812F0E94DB000F90DF91CF911F910F9152
:1002C000FF90089540E066E08BE60E942F010895BC
:1002D0000E942A0461E070E080E090E00E94FE024B
:1002E00064E670E080E090E00E94FE020E946201FD
:1002F0006AE070E080E090E00E94FE0221E043E0CE
:1003000062E08BE60E94EB0023E043E062E08AE1DA
:100310000E94EB0064E089E10E94DB0023E042E000
:1003200064E08BE10E94EB0020E042E064E08CE1BD
:100330000E94EB000895CF93C82F8A3019F48DE006
:100340000E949B012FB7207802C0222329F19091AF
:100350001F019F3FD1F3F894E0911E0181E08E0FC1
:1003600080931E01F0E0E05EFE4FC08380911F018C
:100370008F5F80931F0180911E018F3F11F41092B7
:100380001E01E1ECF0E0808180628083222339F05D
:10039000789480E090E005C081E090E002C080E0C9
:1003A00090E0CF910895809131028823E1F32FB737
:1003B0002078F89480911F023091310290E0831BE5
:1003C00091095AF4E0911F0280913102F0E0E81B9C
:1003D000F109E05DFD4F80810AC0E0911F0280912C
:1003E0003102F0E0E81BF109E05EFD4F8081909161
:1003F0003102915090933102222309F0789490E0D9
:10040000089510921E0110921F0110921F02109267
:1004100031021092300240931801DC01CB01880FA9
:10042000991FAA1FBB1F880F991FAA1FBB1F9C01E2
:10043000AD01220F331F441F551F60E072E18AE7B0
:1004400090E00E94DB04BA01A9014F5F5F4F6F4F3C
:100450007F4FDB01CA011AF40196A11DB11DB595AC
:10046000A7959795879501979093C5008093C400B1
:10047000E1ECF0E088E18083808180688083E6E3BE
:10048000F2E08AE091E093838283918380830895F0
:100490009091310281E0911101C080E008951F9296
:1004A0000F920FB60F9211242F938F939F93EF9378
:1004B000FF9380911F01882329F180911E012091D3
:1004C0001F0190E0821B91095AF4E0911E01809176
:1004D0001F01F0E0E81BF109E15EFD4F90810AC0C9
:1004E000E0911E0180911F01F0E0E81BF109E05E40
:1004F000FE4F908180911F01815080931F01909346
:10050000C60005C0E1ECF0E080818F7D8083FF9123
:10051000EF919F918F912F910F900FBE0F901F9091
:1005200018951F920F920FB60F9211242F933F939D
:100530004F935F936F937F938F939F93AF93BF93EB
:10054000CF93EF93FF93C091C60080911801882349
:1005500049F080911F018F3F29F060E070E08C2FFF
:100560000E949B0180913102803120F081E08093D4
:10057000300218C0CD3009F4CAE0E0911F0281E0DA
:100580008E0F80931F02F0E0E05EFD4FC0838091EC
:1005900031028F5F8093310280911F02803111F40C
:1005A00010921F02FF91EF91CF91BF91AF919F9158
:1005B0008F917F916F915F914F913F912F910F900C
:1005C0000FBE0F901F9018951092B2008CE7809389
:1005D000B3008093B4008AB1806C8AB9E0EBF0E09C
:1005E0008081836A8083E1EBF0E080818160808399
:1005F000089584E390E00E941C050895CF92DF9255
:10060000EF92FF926B017C010E94EF03C60ED71E92
:10061000E81EF91E0E94EF036C157D058E059F05EF
:10062000C8F3FF90EF90DF90CF900895EC018FEF2B
:1006300081B980E48AB98AB18AB98AB18E6F8AB9E0
:100640000E94E4020E94D50340E060E875E280E089
:1006500090E00E9401020E94EF03CB010E949A06E3
:100660007894198A188A1B8A1A8A1D8A1C8A1F8AFA
:100670001E8A198E188E1B8E1A8E1C8E1D8E1E8E33
:100680001F8E18A219A21AA21BA21CA21DA21EA292
:100690001FA218A619A61AA61BA61CA61DA61EA652
:1006A0001FA618AA19AA1AAA1BAA0E94EF037B83E5
:1006B0006A83198218826AEF70E080E090E00E94FD
:1006C000FE0281E082B96AEF70E080E090E00E9473
:1006D000FE0282E082B96AEF70E080E090E00E9462
:1006E000FE0283E082B96AEF70E080E090E00E9451
:1006F000FE0286E082B96AEF70E080E090E00E943E
:10070000FE0287E082B968EE73E080E090E00E942C
:10071000FE028AE082B968EE73E080E090E00E9419
:10072000FE0288E082B968EE73E080E090E00E940B
:10073000FE028EE082B968EE73E080E090E00E94F5
:10074000FE0260913802709139028AE690E00E94C0
:10075000E3060E9468016AE070E080E090E00E9499
:10076000FE028BE082B984E18BB9CAEA06E312E0AB
:1007700082B18C2782B90E944802882359F0F8017F
:10078000808191810E94A506F8016281738190E0C9
:100790000E94E30662E370E080E090E00E94FE02C7
:1007A000E7CF0E94F9020E941603109219011092DD
:1007B0001A0110921B0110921C0110921D0116BC0F
:1007C0008CE787BD82E084BD83E085BDEEE6F0E086
:1007D00080818260808385B3827085BB08952FB746
:1007E000F89460911A0170911B0180911C01909105
:1007F0001D0122230CF4789408951F920F920FB6D6
:100800000F9211248F939F93AF93BF9380911A01FE
:1008100090911B01A0911C01B0911D010196A11D99
:10082000B11D80931A0190931B01A0931C01B093FA
:100830001D014F9B04C081E08093190102C01092FA
:100840001901BF91AF919F918F910F900FBE0F90A3
:100850001F9018951092B90080E28093B800089517
:1008600094EA9093BC004FEF50E060E070E0ECEB56
:10087000F0E09081992334F04150510961097109E8
:10088000C0F704C0452B462B472B41F19091B9008E
:10089000987F983011F0903119F58093BB0084E86F
:1008A0008093BC008FEF90E0A0E0B0E0ECEBF0E0D4
:1008B000208122232CF00197A109B109C8F704C0B7
:1008C000892B8A2B8B2B71F09091B900987F9831EE
:1008D00059F081E0903449F480E0089581E0089572
:1008E00081E0089581E0089580E0089584E980938F
:1008F000BC0080E090E0ECEBF0E0208124FF05C03C
:100900000196811521E09207C1F708958093BB00FD
:1009100084E88093BC008FEF90E0A0E0B0E0ECEBC7
:10092000F0E0208122232CF00197A109B109C8F73A
:1009300004C0892B8A2B8B2B41F09091B900987FB2
:1009400081E0983219F480E0089581E0089584EC04
:100950008093BC008FEF90E0A0E0B0E0ECEBF0E023
:10096000208122232CF00197A109B109C8F704C006
:10097000892B8A2B8B2B19F08091BB00089580E086
:10098000089584E88093BC008FEF90E0A0E0B0E091
:10099000ECEBF0E0208122232CF00197A109B109B2
:1009A000C8F704C0892B8A2B8B2B19F08091BB00D0
:1009B000089580E00895052E97FB1EF400940E9490
:1009C000F20457FD07D00E94FA0407FC03D04EF44E
:1009D0000C94F20450954095309521953F4F4F4F20
:1009E0005F4F089590958095709561957F4F8F4FDB
:1009F0009F4F0895A1E21A2EAA1BBB1BFD010DC03B
:100A0000AA1FBB1FEE1FFF1FA217B307E407F507BE
:100A100020F0A21BB30BE40BF50B661F771F881F9A
:100A2000991F1A9469F760957095809590959B0130
:100A3000AC01BD01CF010895CF93DF9382309105C2
:100A400010F482E090E0E0913402F091350220E071
:100A500030E0C0E0D0E0309711F14081518148177B
:100A60005907C0F04817590761F482819381209794
:100A700019F09B838A832BC09093350280933402B4
:100A800026C02115310519F04217530718F49A01B1
:100A9000BE01DF01EF010280F381E02DDCCF2115E3
:100AA000310509F1281B390B2430310590F41296D9
:100AB0008D919C9113976115710521F0FB01938332
:100AC000828304C09093350280933402FD013296F4
:100AD00044C0FD01E20FF31F81939193225031092D
:100AE0002D933C933AC02091320230913302232B54
:100AF00041F420910201309103013093330220939D
:100B0000320220910001309101012115310541F49B
:100B10002DB73EB74091040150910501241B350BC0
:100B2000E0913202F0913302E217F307A0F42E1B9A
:100B30003F0B2817390778F0AC014E5F5F4F241741
:100B4000350748F04E0F5F1F509333024093320237
:100B50008193919302C0E0E0F0E0CF01DF91CF916B
:100B600008950F931F93CF93DF93009709F48CC0E0
:100B7000FC013297138212820091340210913502E7
:100B80000115110581F420813181820F931F20917D
:100B90003202309133022817390779F5F093330286
:100BA000E093320271C0D80140E050E0AE17BF07B9
:100BB00050F412962D913C911397AD0121153105FA
:100BC00009F1D901F3CF9D01DA01338322836081DA
:100BD0007181860F971F8217930769F4EC012881B2
:100BE0003981260F371F2E5F3F4F318320838A8143
:100BF0009B8193838283452B29F4F0933502E09304
:100C0000340242C01396FC93EE931297ED01499182
:100C100059919E01240F351FE217F30771F480816B
:100C20009181840F951F029611969C938E938281D9
:100C3000938113969C938E931297E0E0F0E0D80195
:100C400012968D919C911397009719F0F8018C01E1
:100C5000F6CF8D919C9198012E5F3F4F820F931F8D
:100C600020913202309133022817390769F4309706
:100C700029F4109235021092340202C013821282BB
:100C80001093330200933202DF91CF911F910F91A5
:100C900008958F929F92AF92BF92CF92DF92EF9280
:100CA000FF92CF93DF93EC01688179818A819B81E8
:100CB000611571058105910521F464E279ED8BE5FB
:100CC00097E02DE133EF41E050E00E94DB04490161
:100CD0005A019B01AC01A7EAB1E40E941B076B011A
:100CE0007C01ACEEB4EFA50194010E942907DC0160
:100CF000CB018C0D9D1DAE1DBF1DB7FF03C001971D
:100D0000A109B04888839983AA83BB839F77DF9129
:100D1000CF91FF90EF90DF90CF90BF90AF909F90DA
:100D20008F9008950E944906089586E091E00E9400
:100D300049060895A0E0B0E0809306019093070172
:100D4000A0930801B09309010895CF93DF93EC01BC
:100D50002B8120FF33C026FF0AC02F7B2B838E817F
:100D60009F8101969F838E838A8190E029C022FF14
:100D70000FC0E881F9818081082E000C990B009743
:100D800019F420622B831AC03196F983E8830EC0D0
:100D9000EA85FB85099597FF09C02B81019611F023
:100DA00080E201C080E1822B8B8308C02E813F81CD
:100DB0002F5F3F4F3F832E83992702C08FEF9FEF16
:100DC000DF91CF9108950F931F93CF93DF93FB0192
:100DD000238121FD03C08FEF9FEF28C022FF16C0A3
:100DE00046815781248135814217530744F4A081FD
:100DF000B1819D012F5F3F4F318320838C932681EA
:100E000037812F5F3F4F3783268310C0EB01092FB7
:100E1000182F0084F185E02D0995892BE1F68E814C
:100E20009F8101969F838E83812F902FDF91CF9199
:100E30001F910F9108950E942E07A59F900DB49FBA
:100E4000900DA49F800D911D11240895B7FF0C945F
:100E50001B070E941B07821B930B0895A29FB001E2
:100E6000B39FC001A39F700D811D1124911DB29FDE
:0E0E7000700D811D1124911D0895F894FFCF7F
:100E7E0000003C0220000100000000000003000002
:080E8E0000009B01D3010000EC
:00000001FF
