S015000050726F6A6563745F305F325F302E7372656389
S11300000C94B5000C94D2000C94D2000C94D20041
S11300100C94D2000C94D2000C94D2000C94D20014
S11300200C94D2000C94D2000C949F050C94D20032
S11300300C94D2000C94D2000C94D2000C94D200F4
S11300400C94C1010C9482010C94D2000C94D20043
S11300500C94D2000C94D2000C94D2000C94D200D4
S11300600C94D2000C94D2000C94D2000C94D200C4
S113007000407A10F35A00A0724E18090010A5D45B
S1130080E80000E87648170000E40B54020000CAB8
S11300909A3B000000E1F5050000809698000000FE
S11300A040420F000000A08601000000102700005D
S11300B00000E803000000006400000000000A00E3
S11300C0000000000100000000002C76D888DC67E6
S11300D04F0823DFC1DFAE59E1B1B796E5E3E4533E
S11300E0C63AE651997696E8E6C28426EB898C9B5B
S11300F062ED407C6FFCEFBC9C9F40F2BAA56FA5FB
S1130100F490055A2AF75C936B6CF9676DC11BFC7C
S1130110E0E40D47FEF520E6B500D0ED902E030097
S1130120943577050080841E080000204E0A0000E4
S113013000C80C333333330F986E12831141EF8DA3
S11301402114893BE65516CFFEE6DB18D1844B38E3
S11301501BF77C1D901DA4BBE424203284725E2214
S11301608100C9F124ECA1E53D2711241FBECFEF86
S1130170D4E0DEBFCDBF11E0A0E0B1E0E6E4FAE1F7
S113018002C005900D92AA34B107D9F722E0AAE47F
S1130190B1E001C01D92AD36B207E1F70E946604DA
S11301A00C94210D0C940000CF93C82F8A3019F4BD
S11301B08DE00E94D4009FB7907802C0992319F172
S11301C0809150018F3FD1F3F894E0914F0181E089
S11301D08E0F80934F01F0E0EF5AFE4FC083809161
S11301E050018F5F8093500180914F018F3F11F434
S11301F010924F0185B5806285BD992339F07894BA
S113020080E090E005C081E090E002C080E090E0F2
S1130210CF910895809162028823E1F32FB720786B
S1130220F894809150023091620290E0831B91090E
S11302305AF4E091500280916202F0E0E81BF10967
S1130240EF59FD4F80810AC0E09150028091620213
S1130250F0E0E81BF109EF5AFD4F808190916202B2
S1130260915090936202222309F0789490E00895CB
S113027010924F011092500110925002109262029B
S11302801092610240934A01DC01CB01880F991F4F
S1130290AA1FBB1F880F991FAA1FBB1F9C01AD017A
S11302A0220F331F441F551F60E072E18AE790E07C
S11302B00E94A607BA01A9014F5F5F4F6F4F7F4F9E
S11302C0DB01CA011AF40196A11DB11DB595A795CC
S11302D097958795019792BD81BD88E185BD85B5C8
S11302E0806885BDE7E6F2E08AE091E0938382834B
S11302F09183808308959091620281E0911101C0FD
S113030080E008951F920F920FB60F9211242F933D
S11303108F939F93EF93FF9380915001882321F152
S113032080914F012091500190E0821B91095AF471
S1130330E0914F0180915001F0E0E81BF109E05B8E
S1130340FD4F90810AC0E0914F0180915001F0E08F
S1130350E81BF109EF5AFE4F9081809150018150C2
S11303608093500190BD03C085B58F7D85BDFF91FD
S1130370EF919F918F912F910F900FBE0F901F902F
S113038018951F920F920FB60F9211242F933F933B
S11303904F935F936F937F938F939F93AF93BF9389
S11303A0CF93EF93FF93C0B580914A01882349F01E
S11303B0809150018F3F29F060E070E08C2F0E9403
S11303C0D40080916202803120F081E08093610248
S11303D018C0CD3009F4CAE0E091500281E08E0FDC
S11303E080935002F0E0EF5AFD4FC0838091620287
S11303F08F5F8093620280915002803111F41092D9
S11304005002FF91EF91CF91BF91AF919F918F9146
S11304107F916F915F914F913F912F910F900FBEFC
S11304200F901F901895CF93DF93EEE6F0E01182C2
S11304301082CCE6D0E019821882AAE6B0E01196C8
S11304401C921E9211821082E2E7F0E08081806BA0
S113045080838FEF90E09093690080936800E1E7D8
S1130460F0E0208120612083208123602083998310
S1130470888311969C938E93DF91CF91089588E0A1
S113048090E00E9407080895CF92DF92EF92FF92C6
S11304906B017C010E949105C60ED71EE81EF91E51
S11304A00E9491056C157D058E059F05C8F3FF908C
S11304B0EF90DF90CF9008950F931F93CF93DF9326
S11304C0449A459A819A829A609A879880B38865FB
S11304D080BB639A88B1866088B981B3897F81BB08
S11304E00E94130280E00E94710540E060E875E21A
S11304F080E090E00E9438010E949105CB010E94A7
S11305007B09789468EE73E080E090E00E944402F6
S1130510C0E007E612E00E947B01882391F0F80115
S1130520808191810E94B709D82FF801628173817B
S113053090E00E94F509DA3031F0CF5FC63019F04F
S1130540EACFC63040F368EE73E080E090E00E94AA
S113055044022091690230916A024CE050E061E06B
S113056070E088E191E00E945B0ADF91CF911F91D6
S11305700F9108957F928F929F92AF92BF92CF92E4
S1130580DF92EF92FF920F931F93CF93DF938C012F
S11305904C9860E971E080E090E00E9444024C9A3B
S11305A062E370E080E090E00E9444024C980E9474
S11305B09105C0E06B017C0120E2C20E23E0D21E53
S11305C0E11CF11CD1E008C00E949105C616D706B3
S11305D0E806F90608F4CD2F3D9BF6CF0E9491055D
S11305E04B015C016B017C0180E2C80E83E0D81EE4
S11305F0E11CF11CD1E0712C09C00E949105CD2FA2
S1130600C616D706E806F90608F0C72D3D9B03C0B9
S1130610CC2399F31BC0C11119C00E94910568191C
S113062079098A099B090E94A3062AE939E949E55F
S113063050E40E94310720E030E040E05FE30E9494
S11306403107F8016083718382839383899860E919
S113065071E080E090E00E944402899A62E370E0D5
S113066080E090E00E94440289980E9491056B0109
S11306707C01F0E2CF0EF3E0DF1EE11CF11CD2E0BE
S113068008C00E949105C616D706E806F90608F4C4
S1130690CD2F7A9BF6CF0E9491054B015C016B0133
S11306A07C0120E2C20E23E0D21EE11CF11CD2E048
S11306B008C00E949105C616D706E806F90608F494
S11306C0CD2F7A9B03C0C230A1F71BC0C230C9F042
S11306D00E949105681979098A099B090E94A30659
S11306E02AE939E949E550E40E94310720E030E085
S11306F040E05FE30E943107F801648375838683D9
S1130700978380E0DF91CF911F910F91FF90EF903D
S1130710DF90CF90BF90AF909F908F907F9008957F
S11307202F923F924F925F926F927F928F929F92FD
S1130730AF92BF92CF92DF92EF92FF920F931F93EB
S1130740CF93DF93CDB7DEB76B970FB6F894DEBFC8
S11307500FBECDBF8C01FFB6F89481E00E947105F5
S1130760FF200CF08AC0789488C0C8010E94BA02A5
S1130770F10181931F01F80180819181A281B381EC
S1130780F50181939193A193B1935F01F801848161
S11307909581A681B781F20181939193A193B1933D
S11307A02F01A814B90409F7F801108211821282EA
S11307B013821482158216821782B12CF30181915F
S11307C03F01811123C0F70120813181428153818E
S11307D0F80160817181828193810E94C505F801CD
S11307E06083718382839383F60120813181428106
S11307F05381F80164817581868197810E94C505C2
S1130800F8016483758386839783B394F4E0EF0ED1
S1130810F11C84E0C80ED11CE814F90479F6BB205D
S113082019F16B2D70E080E090E00E94A5066B0149
S11308307C019B01AC01F80160817181828193810B
S11308400E943106F8016083718382839383A70138
S1130850960164817581868197810E943106F80131
S113086064837583868397831FB7F89480E00E941E
S11308707105112394F4789410C03E01F9E16F0ED0
S1130880711CCE0101967C016E019DE0C90ED11C44
S1130890460126015701130168CF6B960FB6F894F1
S11308A0DEBF0FBECDBFDF91CF911F910F91FF909F
S11308B0EF90DF90CF90BF90AF909F908F907F90FC
S11308C06F905F904F903F902F900895CF93DF9358
S11308D0CDB7DEB7C654D1090FB6F894DEBF0FBE4C
S11308E0CDBF0E943F022C010E945C020F2EF7E64E
S11308F0CF2EF2E0DF2EF02D0F2EFAE6EF2EF12CA4
S1130900F02D0F2EF4E6AF2EB12CF02D88248A940E
S1130910912C0F2EFCE66F2E712CF02D0E947B0182
S11309208823E1F3F601808191810E94B709382E72
S113093093EC930D923010F08B32B9F48C9A8B981F
S1130940F701808191818B3F910518F0B182A082DB
S1130950C0C0F70180819181469708F4BAC08081B4
S11309609181449791838083B4C08F3511F08C3387
S1130970B1F4F701808191818B3F910518F0B18228
S1130980A0820AC0F70180819181C49728F08081F8
S113099091814497918380838B9A8C989AC08234F6
S11309A021F08E3411F0863579F48B988C988A98DE
S11309B0899849984A984C984D98F7019182808279
S11309C0F3019182808285C08F3309F078C089E079
S11309D0E5E2F1E0DE01999601900D928A95E1F746
S11309E0C2010E949003F20160817181828193812E
S11309F08E010B5E1F4F25E043E00E94E707F601DE
S1130A002281338149E050E061E070E08EE291E0C0
S1130A100E945B0AF60162817381C8010E94310A57
S1130A20F6016281738189E090E00E94F509F20188
S1130A3064817581868197810451110925E043E021
S1130A400E94E707F6012281338149E050E061E02A
S1130A5070E088E391E00E945B0AF6016281738191
S1130A60C8010E94310AF6016281738189E090E035
S1130A700E94F50918B3F6012281338147E050E062
S1130A8061E070E082E491E00E945B0A612F70E013
S1130A9080E090E02AE0AE01435C5F4F0E9486094B
S1130AA0F60162817381CE01CD960E94310AF6016E
S1130AB0628173818AE090E00E94F5090AC088345B
S1130AC041F48D9868EE73E080E090E00E94440267
S1130AD08D9AF60162817381832D90E00E94F5095D
S1130AE01DCF10924B0110924C0110924D011092A7
S1130AF04E0119BA882341F08FE488BB82E08BBB96
S1130B0081E08ABBD19806C08CE788BB82E08BBBAE
S1130B1083E08ABB8AB781608ABF89B7817089BF45
S1130B2008952FB7F89460914B0170914C01809116
S1130B304D0190914E0122230CF4789408951F9254
S1130B400F920FB60F9211248F939F93AF93BF937D
S1130B5080914B0190914C01A0914D01B0914E01B7
S1130B600196A11DB11D80934B0190934C01A0935C
S1130B704D01B0934E01BF91AF919F918F910F9012
S1130B800FBE0F901F9018955058BB27AA270E949C
S1130B90DC050C94F7060E94E90638F00E94F00682
S1130BA020F039F49F3F19F426F40C94E6060EF471
S1130BB0E095E7FB0C94E006E92F0E94080758F340
S1130BC0BA17620773078407950720F079F4A6F52E
S1130BD00C942A070EF4E0950B2EBA2FA02D0B01CE
S1130BE0B90190010C01CA01A0011124FF27591B6E
S1130BF099F0593F50F4503E68F11A16F040A22F74
S1130C00232F342F4427585FF3CF469537952795E4
S1130C10A795F0405395C9F77EF41F16BA0B620BE3
S1130C20730B840BBAF09150A1F0FF0FBB1F661F2A
S1130C30771F881FC2F70EC0BA0F621F731F841F6D
S1130C4048F4879577956795B795F7959E3F08F093
S1130C50B0CF9395880F08F09927EE0F9795879555
S1130C6008950E9445060C94F7060E94F00658F079
S1130C700E94E90640F029F45F3F29F00C94E00655
S1130C8051110C942B070C94E6060E94080768F394
S1130C909923B1F3552391F3951B550BBB27AA2731
S1130CA062177307840738F09F5F5F4F220F331F6B
S1130CB0441FAA1FA9F335D00E2E3AF0E0E832D033
S1130CC091505040E695001CCAF72BD0FE2F29D036
S1130CD0660F771F881FBB1F261737074807AB0708
S1130CE0B0E809F0BB0B802DBF01FF2793585F4F7D
S1130CF03AF09E3F510578F00C94E0060C942B07D3
S1130D005F3FE4F3983ED4F3869577956795B7955E
S1130D10F7959F5FC9F7880F911D9695879597F969
S1130D200895E1E0660F771F881FBB1F62177307E2
S1130D308407BA0720F0621B730B840BBA0BEE1FF7
S1130D4088F7E0950895E89409C097FB3EF49095E0
S1130D508095709561957F4F8F4F9F4F9923A9F090
S1130D60F92F96E9BB279395F6958795779567951F
S1130D70B795F111F8CFFAF4BB0F11F460FF1BC063
S1130D806F5F7F4F8F4F9F4F16C0882311F096E9F6
S1130D9011C0772321F09EE8872F762F05C06623A4
S1130DA071F096E8862F70E060E02AF09A95660F5D
S1130DB0771F881FDAF7880F9695879597F9089516
S1130DC097F99F6780E870E060E008959FEF80ECFA
S1130DD0089500240A94161617061806090608959D
S1130DE000240A9412161306140605060895092E03
S1130DF00394000C11F4882352F0BB0F40F4BF2B72
S1130E0011F460FF04C06F5F7F4F8F4F9F4F0895B1
S1130E1057FD9058440F551F59F05F3F71F04795A7
S1130E20880F97FB991F61F09F3F79F0879508958C
S1130E30121613061406551FF2CF4695F1DF08C0AB
S1130E40161617061806991FF1CF869571056105C8
S1130E5008940895E894BB2766277727CB0197F970
S1130E6008950E9443070C94F7060E94E90638F09F
S1130E700E94F00620F0952311F00C94E0060C94E7
S1130E80E6060C942B070E94080778F39923C9F30C
S1130E905523B9F3950F50E0551FAA27EE27FF27D6
S1130EA0BB2700240894679520F4E20FF31FB41FB6
S1130EB00A1E220F331F441FAA1F6695A9F77795B0
S1130EC030F4F30FB41F0A1E121E08F46395330F97
S1130ED0441FAA1F221F769599F7879520F4B40F13
S1130EE00A1E121E631F440FAA1F221F331F86955A
S1130EF0A9F7862F712D602D11249F5750409AF029
S1130F00F1F088234AF0EE0FFF1FBB1F661F771F07
S1130F10881F91505040A9F79E3F510580F00C94D2
S1130F20E0060C942B075F3FE4F3983ED4F38695D8
S1130F3077956795B795F795E7959F5FC1F7FE2B72
S1130F40880F911D9695879597F90895052E97FB1F
S1130F501EF400940E94BD0757FD07D00E94C507E8
S1130F6007FC03D04EF40C94BD0750954095309582
S1130F7021953F4F4F4F5F4F089590958095709501
S1130F8061957F4F8F4F9F4F0895A1E21A2EAA1BA0
S1130F90BB1BFD010DC0AA1FBB1FEE1FFF1FA21725
S1130FA0B307E407F50720F0A21BB30BE40BF50B22
S1130FB0661F771F881F991F1A9469F760957095AB
S1130FC0809590959B01AC01BD01CF010895EF92EE
S1130FD00F931F93CF93DF93E80147FD02C034E0E2
S1130FE001C034E1042E000C550B57FF03C051958A
S1130FF041955109E32E022F242FAE010E948F0A3E
S1131000CE01DF91CF911F910F91EF9008950F932F
S11310101F93CF93DF938230910510F482E090E028
S1131020E0916502F091660220E030E0A0E0B0E0DB
S1131030309719F140815181028113814817590772
S1131040C8F08417950769F4109731F012960C9341
S1131050129713961C9327C000936502109366029F
S113106022C02115310519F04217530718F49A01CB
S1131070BD01EF01DF01F801DBCF21153105F9F0E6
S1131080281B390B2430310580F48A819B8161153A
S1131090710521F0FB019383828304C0909366025F
S11310A080936502FE01329644C0FE01E20FF31FF5
S11310B08193919322503109398328833AC0209136
S11310C0630230916402232B41F420910201309198
S11310D00301309364022093630220910001309154
S11310E001012115310541F42DB73EB740910401AA
S11310F050910501241B350BE0916302F0916402C9
S1131100E217F307A0F42E1B3F0B2817390778F0DA
S1131110AC014E5F5F4F2417350748F04E0F5F1F39
S113112050936402409363028193919302C0E0E080
S1131130F0E0CF01DF91CF911F910F910895CF93EC
S1131140DF93009709F481C0FC0132971382128265
S1131150A0916502B0916602109781F420813181DB
S1131160820F931F2091630230916402281739077C
S113117051F5F0936402E093630267C0ED0120E04F
S113118030E0CE17DF0740F44A815B819E014115B0
S11311905105F1F0EA01F5CFD383C2834081518137
S11311A0840F951FC817D90759F488819981840F32
S11311B0951F0296918380838A819B819383828386
S11311C02115310529F4F0936602E09365023DC0D0
S11311D0E901FB83EA8349915991C40FD51FEC17A8
S11311E0FD0761F480819181840F951F0296E901C6
S11311F099838883828193819B838A83E0E0F0E0F2
S113120012968D919C911397009719F0FD01DC01C2
S1131210F7CF8D919C9111979D012E5F3F4F820FC7
S1131220931F20916302309164022817390769F4EF
S1131230309729F4109266021092650202C013825C
S11312401282B0936402A0936302DF91CF91089558
S11312508F929F92AF92BF92CF92DF92EF92FF92C2
S1131260CF93DF93EC01688179818A819B81611539
S113127071058105910521F464E279ED8BE597E030
S11312802DE133EF41E050E00E94A60749015A01E5
S113129027EA31E440E050E00E94D10C6B017C016C
S11312A02CEE34EF4FEF5FEFC501B4010E94D10C77
S11312B0DC01CB018C0D9D1DAE1DBF1DB7FF03C00E
S11312C00197A109B04888839983AA83BB839F7738
S11312D0DF91CF91FF90EF90DF90CF90BF90AF90D0
S11312E09F908F9008950E942809089586E091E0C8
S11312F00E9428090895A0E0B0E08093060190932D
S11313000701A0930801B09309010895BB272A306F
S113131051F4992342F4BDE29095809570956195BE
S11313207F4F8F4F9F4F0C949609BB27FA01A62F2E
S11313306217710581059105330B30FB66F0AA270E
S1131340660F771F881F991FAA1FA21710F0A21BF0
S113135063953850A9F7A05DAA3308F0A95DA1935D
S113136036F7B111B1931082CA010C94C10CCF931A
S1131370DF93EC012B8120FF33C026FF0AC02F7BB3
S11313802B838E819F8101969F838E838A8190E037
S113139029C022FF0FC0E881F9818081082E000C4A
S11313A0990B009719F420622B831AC03196F983A4
S11313B0E8830EC0EA85FB85099597FF09C02B8158
S11313C0019611F080E201C080E1822B8B8308C07A
S11313D02E813F812F5F3F4F3F832E83992702C089
S11313E08FEF9FEFDF91CF9108950F931F93CF93CA
S11313F0DF93FB01238121FD03C08FEF9FEF2CC0FE
S113140022FF16C046815781248135814217530734
S113141044F4A081B1819D012F5F3F4F318320832C
S11314208C93268137812F5F3F4F3783268314C0E7
S11314308B01EC01FB010084F185E02D0995892BDA
S1131440E1F6D80116968D919C91179701961796FF
S11314509C938E931697CE01DF91CF911F910F919C
S11314600895EF92FF920F931F93CF93DF93DB01C5
S113147013962C9121FF18C08B017C01D0E0C0E0B1
S1131480F70181917F01882361F0D8011896ED91CD
S1131490FC911997B8010995892B91F3DFEFCFEFF0
S11314A0EFCF8D2F9C2F02C08FEF9FEFCDB7DEB70C
S11314B0E6E00C94120DA0E0B0E0E1E6FAE00C9452
S11314C0F00C5B014A017901D90113962C9121FF9B
S11314D01DC0C0E0D0E0C815D905D9F08C016C015D
S11314E0CA0CDB1CC8010C151D0571F00F5F1F4FE2
S11314F0D7011896ED91FC911997B701DC018C91F5
S11315000995892B79F305C02196E5CF80E090E019
S113151001C0CE01CDB7DEB7ECE00C940C0DA9E010
S1131520B0E0E5E9FAE00C94F00C6A01122FB02E59
S11315302BE3201720F0FF24F394F00E02C02CE3D9
S1131540F22E0F2D27E0AE014F5F5F4F0E94E90B93
S1131550BC014981842F8970813031F0E1FC06C0DF
S1131560E0FE06C090E205C09DE203C09BE201C01C
S113157090E05E2D507143FF3CC0911102C083E0A6
S113158001C084E0811718F4212F281B01C020E03A
S113159051110BC0F601822F30E2882319F03193E8
S11315A08150FBCFC20ED11C20E0992329F0D60133
S11315B09C93F60131966F01C6010396E2FE0AC0C0
S11315C03EE4D6013C9341E411964C931197129654
S11315D03C9306C03EE6F601308341E64183328304
S11315E0FC01322F40E2332309F442C041933150CD
S11315F0FACF42FF44C0911102C083E001C084E0ED
S1131600811718F4212F281B01C020E051110BC0B1
S1131610F601822F30E2882319F031938150FBCFF9
S1131620C20ED11C20E0992329F0D6019C93F60127
S113163031966F01C6010396E2FE0BC039E4D60170
S11316403C933EE411963C93119736E412963C93F6
S113165007C039E6F60130833EE6318336E632834D
S1131660FC01322F40E2332319F041933150FBCF78
S1131670FC01E20FF11D10828EEF9FEFA6C021E066
S113168030E0911102C020E030E0161617061CF479
S1131690FB01319602C0E1E0F0E02E0F3F1FBB20BA
S11316A021F0EB2DF0E0319602C0E0E0F0E02E0FE7
S11316B03F1FE12FF0E02E173F071CF4121B212FD0
S11316C001C020E08E2D887159F4F601822F30E29A
S11316D0882319F031938150FBCFC20ED11C20E036
S11316E0992329F0D6019C93F60131966F0151118B
S11316F00BC0F601822F90E3882319F09193815057
S1131700FBCFC20ED11C20E00F2D060F9A81342F7F
S1131710307144FF03C0913309F40150101624F4CE
S1131720093018F008E001C001E0AB0177FF02C006
S113173040E050E0FB01E41BF50BA1E0B0E0AC0F8E
S1131740BD1FEA0FFB1F8EE2A82E4B01801A9108E1
S11317500B2D10E01195019511094F3FBFEF5B0769
S113176021F4D601AC9211966D01641775072CF023
S11317708416950614F4818101C080E34150510917
S11317803196D60111967D014017510724F0D601F8
S11317908C936701E2CF6417750739F4963320F40C
S11317A0953319F4311101C081E3F6018083F70107
S11317B0822F90E2882319F091938150FBCFF70197
S11317C0E20FF11D108280E090E02996ECE00C9489
S11317D00C0D283008F027E03327DA01990F311D6A
S11317E087FD916000966105710539F432602E5FC2
S11317F03D9330E32A95E1F708959F3F30F0803818
S11318007105610509F03C5F3C5F3D93913008F040
S11318108068911DDF93CF931F930F93FF92EF92F4
S1131820192F987F9695E92F96959695E90FFF279E
S1131830E653FF4F99273327EE24FF24A701E7013E
S113184005900894079428F4360FE71EF81E491FE4
S1131850511D660F771F881F991F0694A1F70590E5
S1131860079428F4E70EF81E491F561FC11D770F71
S1131870881F991F661F0694A1F70590079428F402
S1131880F80E491F561FC71FD11D880F991F661FC9
S1131890771F0694A1F70590079420F4490F561F6B
S11318A0C71FD81F990F661F771F881F0694A9F7B3
S11318B084911095177041F0D695C7955795479523
S11318C0F794E7941A95C1F7E0E7F0E0689415906F
S11318D0159135916591959105907FE27395E11885
S11318E0F10A430B560BC90BD009C0F7E10CF11EEA
S11318F0431F561FC91FD01D7EF4703311F48A95FF
S1131900E6CFE894015030F0080F0AF400270217DC
S113191008F4202F2395022F7A3328F079E37D935E
S11319202A95E9F710C07D932A9589F60694979530
S11319306795379517951794E118F10A430B560BE1
S1131940C90BD00998F023957E9173957A3308F0EA
S113195070E37C932013B8F77E9170617D9330F02F
S1131960839571E37D9370E32A95E1F71124EF9059
S1131970FF900F911F91CF91DF91992787FD90954B
S11319800895DC01FC01672F71917723E1F7329709
S113199004C07C916D9370836291AE17BF07C8F346
S11319A00895EE27FF27AA27BB2708C0A20FB31F5D
S11319B0E41FF51F220F331F441F551F969587956B
S11319C07795679598F37040A9F7009799F7BD014B
S11319D0CF0108952F923F924F925F926F927F9220
S11319E08F929F92AF92BF92CF92DF92EF92FF922B
S11319F00F931F93CF93DF93CDB7DEB7CA1BDB0BD7
S1131A000FB6F894DEBF0FBECDBF09942A8839887B
S1131A1048885F846E847D848C849B84AA84B98482
S1131A20C884DF80EE80FD800C811B81AA81B9818E
S1131A30CE0FD11D0FB6F894DEBF0FBECDBFED01A2
S1091A400895F894FFCFA5
S1131A4600006D02200001000000000000030000F9
S1131A560000D4000A010000466C6F6174207265B0
S1131A666164790A0073656E73696E670A0053656B
S1131A766E736F72303A200053656E736F72313A2B
S10D1A86200074696D65723A2000B7
S9030000FC
