S013000050726F6A6563745F5375622E73726563B1
S11300000C9496000C94B3000C94B3000C94B300BD
S11300100C94B3000C94B3000C94B3000C94B30090
S11300200C94B3000C94B3000C94B3000C94B30080
S11300300C94B3000C948F090C94B3000C94B3008B
S11300400C94B3000C94B3000C94B3000C94B30060
S11300500C94A3010C9461010C94B3000C94B300B0
S11300600C94B3000C94B3000C94B3000C94B30040
S11300700C94B3000C94B3000C94B300AB03B3041E
S1130080B304B304B304B304B304B304B304B304B4
S1130090B304D504B304CB02B304B3042D03320375
S11300A038033E0344034A03B304B304B304B30460
S11300B0B304B304B304C202B304D504B304B30455
S11300C0B304B304B304B304B304B304B304B30474
S11300D0B304B304C103B304B304B304B304B30457
S11300E0B304B304B304B304B304B304B304B30454
S11300F0B3045003B3047E03B304B3042803A90276
S1130100B304B304B302D402B304B603B203B30416
S1130110C2033404BA03B304B304A604B304FE0252
S1130120BD02AE02B304B304B304B80211241FBE6B
S1130130CFEFD8E0DEBFCDBF11E0A0E0B1E0EAED43
S1130140FEE102C005900D92AC3AB107D9F722E066
S1130150ACEAB1E001C01D92A73DB207E1F70E94ED
S1130160EE040C946B0F0C9400002FB7207802C09F
S1130170222329F19091B3019F3FD1F3F894E091A8
S1130180B20191E09E0F9093B201F0E0EC54FE4F67
S113019080838091B3018F5F8093B3018091B2011A
S11301A08F3F11F41092B201E1ECF0E080818062A3
S11301B08083222339F0789480E090E0089581E0F0
S11301C090E0089580E090E008958091C50288232E
S11301D0E1F32FB72078F8948091B3023091C502EF
S11301E090E0831B91095AF4E091B3028091C50217
S11301F0F0E0E81BF109EC53FD4F80810AC0E09167
S1130200B3028091C502F0E0E81BF109EC54FD4F04
S113021080819091C50291509093C502222309F0E8
S1130220789490E008951092B2011092B301109264
S1130230B3021092C5021092C4024093AC01DC01D7
S1130240CB01880F991FAA1FBB1F880F991FAA1FD4
S1130250BB1F9C01AD01220F331F441F551F60E0DB
S113026072E18AE790E00E94F109BA01A9014F5FA7
S11302705F4F6F4F7F4FDB01CA011AF40196A11D36
S1130280B11DB595A7959795879501979093C5004E
S11302908093C400E1ECF0E088E180838081806891
S11302A08083E1EDF2E08AE091E09383828391839D
S11302B0808308959091C50281E0911101C080E08E
S11302C008951F920F920FB60F9211242F938F93BC
S11302D09F93EF93FF938091B301882329F1809139
S11302E0B2012091B30190E0821B91095AF4E0918C
S11302F0B2018091B301F0E0E81BF109ED54FD4F28
S113030090810AC0E091B2018091B301F0E0E81B52
S1130310F109EC54FE4F90818091B3018150809398
S1130320B3019093C60005C0E1ECF0E080818F7DBD
S11303308083FF91EF919F918F912F910F900FBE2A
S11303400F901F9018951F920F920FB60F921124C1
S11303502F933F934F935F936F937F938F939F93C9
S1130360AF93BF93CF93EF93FF93C091C600809157
S1130370AC01882349F08091B3018F3F29F060E0FC
S113038070E08C2F0E94B5008091C502803120F06E
S113039081E08093C40218C0CD3009F4CAE0E09132
S11303A0B30281E08E0F8093B302F0E0EC54FD4F72
S11303B0C0838091C5028F5F8093C5028091B30290
S11303C0803111F41092B302FF91EF91CF91BF915C
S11303D0AF919F918F917F916F915F914F913F91D9
S11303E02F910F900FBE0F901F90189516BC17BC3D
S11303F084B5836884BD85B5816085BD08951092F8
S1130400B2008CE78093B3008093B400E0EBF0E09B
S11304108081836A8083E1EBF0E080818160808366
S113042008958AE090E00E944C0A08950F931F9368
S1130430CF93DF938C0183E081B988E084B98CEF9A
S113044087B98EEF8AB9509840E060E875E280E0A1
S113045090E00E9413010E94F6010E945E090E942E
S1130460FF010E9449060E948109CB010E94CA0B28
S11304707894C1EDD2E020C0888199810E94D50B87
S11304808F36D1F42091D3023091D40246E050E06B
S113049061E070E088E191E00E94750C81E0F80170
S11304A08783148286E990E0938382831682108284
S11304B08BB180638BB905C00E945A018823E1F394
S11304C0DBCFDF91CF911F910F910895CF92DF92EF
S11304D0EF92FF926B017C010E948109C60ED71E28
S11304E0E81EF91E0E9481096C157D058E059F0585
S11304F0C8F3FF90EF90DF90CF9008958F929F9272
S1130500AF92BF92DF92EF92FF920F931F93CF931C
S1130510DF93CDB7DEB764970FB6F894DEBF0FBE96
S1130520CDBF8C010E945A01882309F445C28091F1
S1130530D1029091D2020E94D50B7C01FF24F701D5
S1130540B097E835F10508F00EC2E25CFF4F0C9459
S1130550100A5A985B9A469A479827C25A985B9A07
S11305604698479A22C25A9A5B984698479A1DC25F
S11305705A9A5B98469A479818C20E948C06F801CA
S1130580148213C26091D3027091D4028BE290E082
S11305900E94130C0AC26091D3027091D4028FE5B9
S11305A090E00E94130C01C2F8018181882314F4A5
S11305B081958183F8018181282F082E000C330B4B
S11305C03F938F938FE191E09F938F93CE01019698
S11305D05C019F938F930E94A90C6091D302709148
S11305E0D402C5010E944B0C81E4F80184830F906E
S11305F00F900F900F900F900F90D7C1F801818149
S1130600181614F481958183F8018181282F082E0E
S1130610000C330B3F938F938CE291E09F938F9365
S1130620CE0101965C019F938F930E94A90C609167
S1130630D3027091D402C5010E944B0C82E5F801EB
S113064084830F900F900F900F900F900F90ADC177
S1130650F801108281E08087A8C1F801108281E04E
S11306608087A3C184E1F801808381E080879DC1F4
S113067088E2F801808381E0808797C18CE3F801E8
S1130680808381E0808791C180E5F801808381E0E7
S113069080878BC184E6F801808381E0808785C1EF
S11306A0F8012181822F022E000C990B0A978339BD
S11306B09F4F1CF02A50F8012183F8018181282FD3
S11306C0082E000C330B3F938F9388E391E09F93A4
S11306D08F938E010F5F1F4F1F930F930E94A90CDE
S11306E06091D3027091D402C8010E944B0C0F9008
S11306F00F900F900F900F900F9057C1F801218128
S1130700822F022E000C990B0A978E36910514F451
S1130710265F2183F8018181282F082E000C330BDA
S11307203F938F9388E391E09F938F938E010F5FA4
S11307301F4F1F930F930E94A90C6091D3027091D5
S1130740D402C8010E944B0C0F900F900F900F9091
S11307500F900F902AC1F801108281E085831086E2
S1130760148223C18AE0F80186831FC186EFF80151
S113077086831BC182B1882311F0119816C1119A86
S113078014C1119A60E08CE30E94B7090F2EFCE3B8
S1130790DF2EF02D0F2EF1EDAF2EF2E0BF2EF02D57
S11307A00F2EF2E58F2EF1E09F2EF02D8E010F5FBC
S11307B01F4F0E945A01882309F451C0F50180811A
S11307C091810E94D50B803279F42091D30230912B
S11307D0D4024AE050E061E070E087E491E00E94D6
S11307E0750C0E94B409E1C08B36E9F48D2D90E0BC
S11307F00A96843691059CF5FAE0DF0E1F92DF928B
S11308009F928F921F930F930E94A90CF50162810E
S11308107381C8010E944B0C0F900F900F900F90A2
S11308200F900F901CC08A36D1F48D2D90E00A975A
S1130830B2F0F6EFDF0E1F92DF929F928F921F931A
S11308400F930E94A90CF50162817381C8010E9473
S11308504B0C0F900F900F900F900F900F9060E043
S11308608D2D0E94B709A5CF61E08CE30E94B709E2
S11308700F2EFCE3DF2EF02D0F2EF1EDAF2EF2E064
S1130880BF2EF02D0F2EF2E58F2EF1E09F2EF02DCE
S11308908E010F5F1F4F0E945A01882309F451C033
S11308A0F501808191810E94D50B803279F42091E9
S11308B0D3023091D4024AE050E061E070E087E472
S11308C091E00E94750C0E94B4096FC08B36E9F464
S11308D08D2D90E00A96843691059CF5FAE0DF0EA2
S11308E01F92DF929F928F921F930F930E94A90CE5
S11308F0F50162817381C8010E944B0C0F900F9027
S11309000F900F900F900F901CC08A36D1F48D2D4C
S113091090E00A97B2F0F6EFDF0E1F92DF929F92FB
S11309208F921F930F930E94A90CF501628173812A
S1130930C8010E944B0C0F900F900F900F900F90D6
S11309400F9061E08D2D0E94B709A5CF2091D302AD
S11309503091D40248E050E061E070E082E691E03A
S11309600E94750C22C02091D3023091D40248E039
S113097050E061E070E08BE691E00E94750CF801B4
S113098081858F5F81878A3080F06091D302709176
S1130990D40288E490E00E94130C68EE73E080E0D7
S11309A090E00E946602F80111866091D302709172
S11309B0D402C7010E94130C64960FB6F894DEBFEC
S11309C00FBECDBFDF91CF911F910F91FF90EF909C
S11309D0DF90BF90AF909F908F900895CF93DF9357
S11309E0CDB7DEB7E2970FB6F894DEBF0FBECDBF2A
S11309F00E9411028C010E941602089A109A332454
S1130A003A940F2EF4E6AF2EB12CF02D0F2EF3EB0B
S1130A108F2E912CF02D0F2EF4EB6F2E712CF02DC8
S1130A202E018FE1480E511C0F2EF1EDCF2EF2E076
S1130A30DF2EF02D0E945A01882319F0C8010E946C
S1130A407E02D80118968C9118978823C9F08C914E
S1130A50389EC0011124B5010E94DD09F4016083B0
S1130A60D8018C91389EC0011124B5010E94DD0982
S1130A70F3016083D80118961C92189719961C925A
S1130A80F8018581882399F05A985B98469847988D
S1130A908481813411F0823529F40E946406D801DE
S1130AA014961C92F801168215821186C3CF848194
S1130AB0813419F0823509F0DBC00E945F067C01A5
S1130AC0F80184811F928F938181282F082E000CB6
S1130AD0330B3F938F93FF92EF92A4E7B1E0BF9360
S1130AE0AF935F924F920E94A90CD60112966D911A
S1130AF07C911397C2010E944B0C0FB6F894DEBF91
S1130B000FBECDBFD80111968C9111978823FCF4A8
S1130B1014968C9114978235D1F412968D919C91F0
S1130B201397E816F90690F1C8010E940A090E9479
S1130B305F067C01F801818188234CF4848182352D
S1130B4031F482819381E816F90670F71FC0D80149
S1130B5011968C9111971816CCF414968C918134BB
S1130B60A9F41E141F040CF48CC0C8010E940A09C5
S1130B700E945F067C01F801818118163CF484818F
S1130B80813421F41E141F0484F77BC0D80112960B
S1130B908D919C911397E816F90668F5FF205CF196
S1130BA00E945A018823C1F0F601808191810E943C
S1130BB0D50B803289F4D80114961C920E946406E5
S1130BC0F6012281338149E050E061E070E084E87D
S1130BD091E00E94750C0FC0C8010E940A090E948E
S1130BE05F06D80112962D913C91139782179307B3
S1130BF010F49923ACF60E945F06F80124811F9239
S1130C002F932181422F022E000C550B5F932F93BB
S1130C109F938F93AEE8B1E0BF93AF9381E090E0F0
S1130C208C0F9D1F9F938F930E94A90CD60112963F
S1130C306D917C911397CE0101960E944B0CF601A5
S1130C402281338149E050E061E070E082EA91E082
S1130C500E94750CD80114961C92149719961C9234
S1130C600E9464060FB6F894DEBF0FBECDBFE2CE7D
S1130C708681882309F4DECE97B5890F87BD118656
S1130C80D9CEF80182819381E816F90608F488CF59
S1130C90B2CF1092C7021092C6021092C80285E029
S1130CA08093CB0284E08093CA0283E08093C902DC
S1130CB082E08093CC0287B18C6387B908958091D8
S1130CC0C6029091C702089538B181E090E0BC015A
S1130CD00090CB0202C0660F771F0A94E2F7AC01C2
S1130CE00090CA0202C0440F551F0A94E2F7462B33
S1130CF0432B9C010090C90202C0220F331F0A94A7
S1130D00E2F7242B0090CC0202C0880F991F0A94AA
S1130D10E2F7822B88B9089528B181E090E0BC0104
S1130D200090CA0202C0660F771F0A94E2F7AC0172
S1130D300090CB0202C0440F551F0A94E2F7362FED
S1130D40342BAC010090C90202C0440F551F0A9411
S1130D50E2F7432B0090CC0202C0880F991F0A943B
S1130D60E2F7842B8095822388B908958091C60286
S1130D709091C70201979093C7028093C602089589
S1130D808091C6029091C70201969093C702809306
S1130D90C6020895CF92DF92EF92FF92CF93DF9332
S1130DA0C82F9091C802911142C00E9481096B0121
S1130DB07C01CC0ED11CE11CF11CC1E0D0E02AC0A6
S1130DC098B1AE010090C90202C0440F551F0A94A5
S1130DD0E2F79E010090CA0202C0220F331F0A9458
S1130DE0E2F7842F822B892B88B928B1AE010090B9
S1130DF0CC0202C0440F551F0A94E2F7CE010090C2
S1130E00CB0202C0880F991F0A94E2F7842B8095C5
S1130E10822388B90E9481096C157D058E059F0582
S1130E2078F28091C8028F5F8093C802CAC0913063
S1130E3009F042C00E9481096B017C01CC0ED11CD7
S1130E40E11CF11CC1E0D0E02AC098B1AE010090D1
S1130E50CC0202C0440F551F0A94E2F79E01009091
S1130E60CA0202C0220F331F0A94E2F7842F822B96
S1130E70892B88B928B1AE010090C90202C0440F81
S1130E80551F0A94E2F7CE010090CB0202C0880FEE
S1130E90991F0A94E2F7842B8095822388B90E94D3
S1130EA081096C157D058E059F0578F28091C80235
S1130EB08F5F8093C80285C0923009F042C00E94BF
S1130EC081096B017C01CC0ED11CE11CF11CC1E039
S1130ED0D0E02AC098B1AE010090CB0202C0440F0A
S1130EE0551F0A94E2F79E010090CC0202C0220F23
S1130EF0331F0A94E2F7842F822B892B88B928B1F7
S1130F00AE010090C90202C0440F551F0A94E2F7D3
S1130F10CE010090CA0202C0880F991F0A94E2F71A
S1130F20842B8095822388B90E9481096C157D05E4
S1130F308E059F0578F28091C8028F5F8093C80266
S1130F4040C09330F1F50E9481096B017C01CC0E05
S1130F50D11CE11CF11CC1E0D0E02AC098B1AE0163
S1130F600090CB0202C0440F551F0A94E2F79E0181
S1130F700090C90202C0220F331F0A94E2F7842FA3
S1130F80822B892B88B928B1AE010090CC0202C013
S1130F90440F551F0A94E2F7CE010090CA0202C022
S1130FA0880F991F0A94E2F7842B8095822388B9CD
S1130FB00E9481096C157D058E059F0578F21092BB
S1130FC0C8020E94C006DF91CF91FF90EF90DF909E
S1130FD0CF900895CF92DF92EF92FF92CF93DF9359
S1130FE0C82F9091C802911142C00E9481096B01DF
S1130FF07C01CC0ED11CE11CF11CC1E0D0E02AC064
S113100098B1AE010090CB0202C0440F551F0A9460
S1131010E2F79E010090C90202C0220F331F0A9416
S1131020E2F7842F822B892B88B928B1AE01009076
S1131030CC0202C0440F551F0A94E2F7CE0100907F
S1131040CA0202C0880F991F0A94E2F7842B809584
S1131050822388B90E9481096C157D058E059F0540
S113106078F28091C8028F5F8093C802CAC0913021
S113107009F042C00E9481096B017C01CC0ED11C95
S1131080E11CF11CC1E0D0E02AC098B1AE0100908F
S1131090CB0202C0440F551F0A94E2F79E01009050
S11310A0CC0202C0220F331F0A94E2F7842F822B52
S11310B0892B88B928B1AE010090C90202C0440F3F
S11310C0551F0A94E2F7CE010090CA0202C0880FAD
S11310D0991F0A94E2F7842B8095822388B90E9491
S11310E081096C157D058E059F0578F28091C802F3
S11310F08F5F8093C80285C0923009F042C00E947D
S113110081096B017C01CC0ED11CE11CF11CC1E0F6
S1131110D0E02AC098B1AE010090CA0202C0440FC8
S1131120551F0A94E2F79E010090CC0202C0220FE0
S1131130331F0A94E2F7842F822B892B88B928B1B4
S1131140AE010090C90202C0440F551F0A94E2F791
S1131150CE010090CB0202C0880F991F0A94E2F7D7
S1131160842B8095822388B90E9481096C157D05A2
S11311708E059F0578F28091C8028F5F8093C80224
S113118040C09330F1F50E9481096B017C01CC0EC3
S1131190D11CE11CF11CC1E0D0E02AC098B1AE0121
S11311A00090CA0202C0440F551F0A94E2F79E0140
S11311B00090C90202C0220F331F0A94E2F7842F61
S11311C0822B892B88B928B1AE010090CC0202C0D1
S11311D0440F551F0A94E2F7CE010090CB0202C0DF
S11311E0880F991F0A94E2F7842B8095822388B98B
S11311F00E9481096C157D058E059F0578F2109279
S1131200C8020E94B606DF91CF91FF90EF90DF9065
S1131210CF900895FC018181882344F18A3094F0B1
S1131220843194F08E3194F0883294F0823394F0C7
S11312308C3394F0863494F0803594F08A3594F0AD
S113124085E011C084E60FC08AE50DC080E50BC0BF
S113125086E409C08CE307C082E305C088E203C0CA
S11312608EE101C084E10E94CA060895873F94F488
S11312708D3E94F4833E94F4893D94F48F3C94F42D
S1131280853C94F48B3B94F4813B94F4873A94F436
S113129085E011C084E60FC08AE50DC080E50BC06F
S11312A086E409C08CE307C082E305C088E203C07A
S11312B08EE101C084E10E94EA0708951092AD0115
S11312C01092AE011092AF011092B0011092B101D0
S11312D010928500109284008CE790E0909389002E
S11312E08093880082E08093800083E08093810073
S11312F0EFE6F0E080818260808386B3827086BBF3
S113130008952FB7F8946091AE017091AF01809168
S1131310B0019091B10122230CF4789408951F92A6
S11313200F920FB60F9211248F939F93AF93BF9395
S11313308091AE019091AF01A091B001B091B10143
S11313400196A11DB11D8093AE019093AF01A093AE
S1131350B001B093B101BF91AF919F918F910F9064
S11313600FBE0F901F9018954598429808956623D4
S113137091F0459A429824E1829FC001112464E6C9
S113138070E00E94DD09072E000C880B990B0E9467
S1131390660245980895429A459824E1829FC001C7
S11313A0112464E670E00E94DD09072E000C880B0E
S11313B0990B0E9466024598089597FB072E16F430
S11313C0009407D077FD09D00E94160A07FC05D0C7
S11313D03EF4909581959F4F0895709561957F4F48
S11313E00895052E97FB1EF400940E94080A57FDE9
S11313F007D00E942A0A07FC03D04EF40C94080A72
S113140050954095309521953F4F4F4F5F4F08952C
S113141090958095709561957F4F8F4F9F4F08955C
S1131420EE0FFF1F0590F491E02D0994AA1BBB1B3E
S113143051E107C0AA1FBB1FA617B70710F0A61BD0
S1131440B70B881F991F5A95A9F780959095BC01F1
S1131450CD010895A1E21A2EAA1BBB1BFD010DC0EC
S1131460AA1FBB1FEE1FFF1FA217B307E407F50750
S113147020F0A21BB30BE40BF50B661F771F881F2C
S1131480991F1A9469F760957095809590959B01C2
S1131490AC01BD01CF010895CF93DF938230910554
S11314A010F482E090E0E091CF02F091D00220E0CD
S11314B030E0C0E0D0E0309711F14081518148170D
S11314C05907C0F04817590761F482819381209726
S11314D019F09B838A832BC09093D0028093CF0210
S11314E026C02115310519F04217530718F49A0143
S11314F0BE01DF01EF010280F381E02DDCCF211575
S1131500310509F1281B390B2430310590F412966A
S11315108D919C9113976115710521F0FB019383C3
S1131520828304C09093D0028093CF02FD0132964F
S113153044C0FD01E20FF31F8193919322503109BE
S11315402D933C933AC02091CD023091CE02232BAF
S113155041F420910201309103013093CE02209393
S1131560CD0220910001309101012115310541F492
S11315702DB73EB74091040150910501241B350B52
S1131580E091CD02F091CE02E217F307A0F42E1BF6
S11315903F0B2817390778F0AC014E5F5F4F2417D3
S11315A0350748F04E0F5F1F5093CE024093CD0293
S11315B08193919302C0E0E0F0E0CF01DF91CF91FD
S11315C008950F931F93CF93DF93009709F48CC072
S11315D0FC013297138212820091CF021091D00243
S11315E00115110581F420813181820F931F20910F
S11315F0CD023091CE022817390779F5F093CE0247
S1131600E093CD0271C0D80140E050E0AE17BF07AF
S113161050F412962D913C911397AD01211531058B
S113162009F1D901F3CF9D01DA013383228360816B
S11316307181860F971F8217930769F4EC01288143
S11316403981260F371F2E5F3F4F318320838A81D4
S11316509B8193838283452B29F4F093D002E093FA
S1131660CF0242C01396FC93EE931297ED01499179
S113167059919E01240F351FE217F30771F48081FD
S11316809181840F951F029611969C938E9382816B
S1131690938113969C938E931297E0E0F0E0D80127
S11316A012968D919C911397009719F0F8018C0173
S11316B0F6CF8D919C9198012E5F3F4F820F931F1F
S11316C02091CD023091CE022817390769F4309762
S11316D029F41092D0021092CF0202C01382128217
S11316E01093CE020093CD02DF91CF911F910F9101
S11316F008958F929F92AF92BF92CF92DF92EF9212
S1131700FF92CF93DF93EC01688179818A819B8179
S1131710611571058105910521F464E279ED8BE58C
S113172097E02DE133EF41E050E00E94F1094901D7
S11317305A019B01AC01A7EAB1E40E94120F6B01AC
S11317407C01ACEEB4EFA50194010E94200FDC01F2
S1131750CB018C0D9D1DAE1DBF1DB7FF03C00197AE
S1131760A109B04888839983AA83BB839F77DF91BB
S1131770CF91FF90EF90DF90CF90BF90AF909F906C
S11317808F9008950E94790B089586E091E00E945D
S1131790790B0895A0E0B0E08093060190930701CF
S11317A0A0930801B09309010895CF93DF93EC014E
S11317B02B8120FF33C026FF0AC02F7B2B838E8111
S11317C09F8101969F838E838A8190E029C022FFA6
S11317D00FC0E881F9818081082E000C990B0097D5
S11317E019F420622B831AC03196F983E8830EC062
S11317F0EA85FB85099597FF09C02B81019611F0B5
S113180080E201C080E1822B8B8308C02E813F815E
S11318102F5F3F4F3F832E83992702C08FEF9FEFA7
S1131820DF91CF9108950F931F93CF93DF93FB0123
S1131830238121FD03C08FEF9FEF28C022FF16C034
S113184046815781248135814217530744F4A0818E
S1131850B1819D012F5F3F4F318320838C9326817B
S113186037812F5F3F4F3783268310C0EB01092F49
S1131870182F0084F185E02D0995892BE1F68E81DE
S11318809F8101969F838E83812F902FDF91CF912B
S11318901F910F910895EF92FF920F931F93CF938F
S11318A0DF93DB0113962C9121FF18C08B017C017F
S11318B0D0E0C0E0F70181917F01882361F0D80175
S11318C01896ED91FC911997B8010995892B91F31C
S11318D0DFEFCFEFEFCF8D2F9C2F02C08FEF9FEF65
S11318E0CDB7DEB7E6E00C944D0FA0E0B0E0EBE737
S11318F0FCE00C942B0F5B014A017901D90113968A
S11319002C9121FF1DC0C0E0D0E0C815D905D9F045
S11319108C016C01CA0CDB1CC8010C151D0571F08F
S11319200F5F1F4FD7011896ED91FC911997B701DE
S1131930DC018C910995892B79F305C02196E5CFBB
S113194080E090E001C0CE01CDB7DEB7ECE00C94AE
S1131950470FAEE0B0E0EFEAFCE00C94330F0D89E2
S11319601E8986E08C831A8309838FEF9FE79E8309
S11319708D83AE01475E5F4F6F89788DCE010196EE
S11319800E94CC0C2F813885F801E20FF31F1082DE
S11319902E96E4E00C944F0FACE0B0E0E2EDFCE0F6
S11319A00C94250F7C016B018A01FC0117821682BD
S11319B0838181FFBDC1CE0101964C01F701938162
S11319C0F60193FD859193FF81916F01882309F4BA
S11319D0ABC1853239F493FD859193FF81916F01F9
S11319E0853229F4B70190E00E94130CE7CF512C03
S11319F0312C20E02032A0F48B3269F030F48032B4
S1131A0059F0833269F420612CC08D3239F080336F
S1131A1039F4216026C02260246023C0286021C0DC
S1131A2027FD27C030ED380F3A3078F426FF06C082
S1131A30FAE05F9E300D1124532E13C08AE0389EC5
S1131A40300D1124332E20620CC08E3221F426FD79
S1131A506BC1206406C08C3611F4206802C088363D
S1131A6041F4F60193FD859193FF81916F018111FA
S1131A70C1CF982F9F7D9554933028F40C5F1F4F4E
S1131A80FFE3F9830DC0833631F0833771F083357A
S1131A9009F05BC022C0F801808189830E5F1F4F6B
S1131AA044244394512C540115C03801F2E06F0EC4
S1131AB0711CF801A080B18026FF03C0652D70E081
S1131AC002C06FEF7FEFC5012C870E94A90E2C0185
S1131AD083012C852F77222E17C03801F2E06F0E78
S1131AE0711CF801A080B18026FF03C0652D70E051
S1131AF002C06FEF7FEFC5012C870E949E0E2C0160
S1131B002C852068222E830123FC1BC0832D90E0AA
S1131B1048165906B0F4B70180E290E00E94130C15
S1131B203A94F4CFF50127FC859127FE81915F015A
S1131B30B70190E00E94130C31103A94F1E04F1A6F
S1131B4051084114510471F7E5C0843611F0893607
S1131B5039F5F80127FF07C0608171818281938183
S1131B600C5F1F4F08C060817181072E000C880B29
S1131B70990B0E5F1F4F2F76722E97FF09C0909519
S1131B808095709561957F4F8F4F9F4F2068722E7F
S1131B902AE030E0A4010E94B40EA82EA81844C084
S1131BA0853729F42F7EB22E2AE030E025C0F22FAB
S1131BB0F97FBF2E8F36C1F018F4883579F0B4C0A0
S1131BC0803719F0883721F0AFC02F2F2061B22E53
S1131BD0B4FE0DC08B2D8460B82E09C024FF0AC04A
S1131BE09F2F9660B92E06C028E030E005C020E1A2
S1131BF030E002C020E132E0F801B7FE07C06081A6
S1131C007181828193810C5F1F4F06C06081718155
S1131C1080E090E00E5F1F4FA4010E94B40EA82E36
S1131C20A818FB2DFF777F2E76FE0BC0372D3E7F45
S1131C30A51450F474FE0AC072FC08C0372D3E7E11
S1131C4005C0BA2C372D03C0BA2C01C0B52C34FF03
S1131C500DC0FE01EA0DF11D8081803311F4397E3F
S1131C6009C032FF06C0B394B39404C0832F8678AE
S1131C7009F0B39433FD13C030FF06C05A2CB314DB
S1131C8018F4530C5B18B32CB31468F4B70180E256
S1131C9090E03C870E94130CB3943C85F5CFB314B9
S1131CA010F43B1801C0312C34FF12C0B70180E39B
S1131CB090E03C870E94130C3C8532FF17C031FD35
S1131CC003C088E790E002C088E590E0B7010CC04B
S1131CD0832F867859F031FF02C08BE201C080E285
S1131CE037FD8DE2B70190E00E94130CA51438F47F
S1131CF0B70180E390E00E94130C5A94F7CFAA94A2
S1131D00F401EA0DF11D8081B70190E00E94130CEB
S1131D10A110F5CF332009F451CEB70180E290E051
S1131D200E94130C3A94F6CFF7018681978102C082
S1131D308FEF9FEF2C96E2E10C94410FFC0105908C
S1131D40615070400110D8F7809590958E0F9F1FB9
S1131D500895FC016150704001900110D8F78095FE
S1131D6090958E0F9F1F0895FA01AA27283051F1EC
S1131D70203181F1E8946F936E7F6E5F7F4F8F4FB8
S1131D809F4FAF4FB1E03ED0B4E03CD0670F781F17
S1131D90891F9A1FA11D680F791F8A1F911DA11DFC
S1131DA06A0F711D811D911DA11D20D009F4689435
S1131DB03F912AE0269F11243019305D3193DEF6DD
S1131DC0CF010895462F4770405D4193B3E00FD093
S1131DD0C9F7F6CF462F4F70405D4A3318F0495D7E
S1131DE031FD4052419302D0A9F7EACFB4E0A69561
S1131DF09795879577956795BA95C9F70097610583
S1131E00710508959B01AC010A2E069457954795D8
S1131E1037952795BA95C9F7620F731F841F951FCD
S1131E20A01D08950E945C0FA59F900DB49F900D76
S1131E30A49F800D911D11240895B7FF0C94120FD7
S1131E400E94120F821B930B08952F923F924F9280
S1131E505F926F927F928F929F92AF92BF92CF9236
S1131E60DF92EF92FF920F931F93CF93DF93CDB73F
S1131E70DEB7CA1BDB0B0FB6F894DEBF0FBECDBFB7
S1131E8009942A88398848885F846E847D848C8488
S1131E909B84AA84B984C884DF80EE80FD800C8191
S1131EA01B81AA81B981CE0FD11D0FB6F894DEBF74
S1131EB00FBECDBFED010895A29FB001B39FC00135
S1131EC0A39F700D811D1124911DB29F700D811D62
S10D1ED01124911D0895F894FFCF2A
S1131EDA0000D702200001000000000000030000F7
S1131EEA0000B500E500000053746172740A0061D1
S1131EFA637469766174652025640A007265747274
S1131F0A6163742025640A005374657020737065D4
S1131F1A65642025640A0057696E6368206F6666E3
S1131F2A0A0057696E6368207370656564202564C6
S1131F3A0A00737461727465640A00737475706953
S1131F4A642E0A00737465703A202564202564207F
S1131F5A25630A0063616E63656C65640A007374C1
S1131F6A657020504F533A20256420256420256348
S10F1F7A0A00656E6420737465700A0030
S9030000FC
